:020000040000FA
:1000000018132020D5000000D9000000DB000000FC
:1000100000000000000000000000000000000000E0
:10002000000000000000000000000000DD000000F3
:100030000000000000000000DF000000912300002D
:10004000E3000000E90E0000E3000000C526000008
:10005000E3000000E3000000E3000000E300000014
:1000600000000000E3000000E300000000000000CA
:1000700000000000E3000000E3000000892600000B
:10008000E3000000A5230000E3000000E3000000FF
:10009000E3000000E300000000000000000000009A
:1000A000E3000000E300000000000000000000008A
:1000B000E300000000000000E3000000E300000097
:1000C0000348854600F0D4FB00480047FD2C0000A3
:1000D0001813202003480047FEE7FEE7FEE7FEE78F
:1000E000FEE7FEE7C1000000F8B502464A40D40F23
:1000F00042004B0052085B089A4202D20246084670
:1001000011464A0023D0C30D4A00DDB2120EAD1ACB
:10011000202D35DA49020126490AF6058A19002CF4
:1001200000D0524220214F1B1146B9402A411018DD
:10013000C20D9A4221D0002C17D0012D08DCDA051F
:10014000801AD20F8019D207DBB200F0F8FAF8BD9E
:10015000DA05801A012340001B06C01880185A4295
:100160008018CA0F1043490007E04908C20711432D
:10017000DA05801A80194008801800F0D8FAF8BD16
:1001800061000122511A001BF7E70122D2075140FA
:10019000AAE70122D2075040A6E7024670B54A40BE
:1001A000D30FDB0740002DD04A002AD0010E140ED9
:1001B000000212020919400A520A8418E501044695
:1001C0005443000A120A2E045043A4194219200C69
:1001D000C543AA18120C0125AD03521C5219120472
:1001E0007F39240400D0521C104301D44000491E22
:1001F000C2B20C06C0092018401C4008802A02D058
:1002000003E0002070BD40084000002900DA002013
:10021000184370BD70B502464A40D50F40004A00F1
:10022000ED0740085208002814D0002A12D0C40D4F
:10023000D30D41020120C0055202490A520AE41AB4
:10024000091812187D34914201D3641C00E0490062
:10025000002C01DA002070BD0023914201D3891ADD
:100260000343400849000028F7D100290AD09142F1
:1002700002D10121C90705E0914201D2012101E02B
:100280000121C943E005C018401900F050FA70BDC3
:10029000F0B507460846584087B0C00F04904800A4
:1002A0000E46590040084908BC1A884105D2384614
:1002B00031461E4617460B4602465800400810437A
:1002C0004CD0300D039040055900400D490D05906C
:1002D000401A0290402872DA18030121000B090528
:1002E0000843019004980092002805D001995242D9
:1002F0000020884100920190029840210A1A019939
:10030000009800F0F1F905460C466B4607CB00F06B
:10031000FBF9C0197141039A0E0D0023D7175640FF
:100320001A467A40164344D0049A002A2DD0029AE5
:10033000012A039A15DC1205C01A914101263605DF
:10034000001C7141D20F059ED207009301920296C4
:100350002A46234600F039FA07B0F0BD3846314648
:10036000FAE71605224A0F46B218C01AB741012112
:100370000905001C4F4100187F41114618187941AA
:10038000E20F10436D19644113E0E2076D08154355
:100390006408C2071443039A01261205C01A91414A
:1003A0003605001C7141CE07400830434908C0188B
:1003B00051412A46234600F0FBF9CDE7FFE70498B8
:1003C00001224000C117121A00238B4104983146C4
:1003D000C417381AA141EEE730B40124E4076340A2
:1003E00030BC55E730B40124E407614030BC4FE72E
:1003F0000000E0FFF0B51FB488B00B990998002405
:1004000048400999C00F490049080991C0070B9954
:100410000090490049080B9109990898A64608439D
:100420001CD00B990A98084318D009980124400061
:10043000420D4800410D099824050003000B20439C
:1004400009900B980003000B20430B9050181C4997
:100450004018002201901446104605E00020014695
:100460000DB0F0BD032801DA034600E003239C46EB
:10047000C11A0AAE0AE05F0008ADED5B4F00F75B02
:100480007D430027AA187C41491C5B1E6145F2DDB3
:10049000410004AB5A522104120C0A43240C401CA4
:1004A0000828DFDB019802900099704601910090C6
:1004B000059B049A0799069800F087F9D0E7000099
:1004C0000DFCFFFF0122D207002800DB101A0029D3
:1004D00000DB511A814201D801207047002070478B
:1004E0000122D207002800DB101A002900DB511A74
:1004F000814201D201207047002070470122D207BB
:10050000002800DB101A002900DB511A814201D3B8
:1005100001207047002070470122D207002800DB2D
:10052000101A002900DB511A814201D901207047BD
:10053000002070470122D207002800DB101A002992
:1005400000DB511A814201D1012070470020704721
:1005500010B5002904DB0C460121C9074042A14126
:10056000002B04DB1C460123DB075242A341101A77
:100570008B4101D3012010BD002010BDC217C10F57
:10058000504010B54018CA079623002100F0D7F854
:1005900010BD10B500229623114600F0D0F810BD12
:1005A000C20F410040020123400ADB05D207090EB9
:1005B000C0187F2901DA00207047962903DC9623B2
:1005C000591AC84001E096398840002AF4D04042C8
:1005D0007047410040020122400AD205090E8018EE
:1005E0007F2901DA00207047962903DC9622511AF0
:1005F000C8407047963988407047C20FD207400004
:1006000040080BD0C10D0723DB01C91840020905C2
:10061000400A1143C20840071143704700200146B9
:100620007047CB0FDB07490010B5490802460A4363
:1006300007D00A0D07240903E401090B121B002A45
:1006400001DC002010BDC900440F0C43C100E018BC
:10065000D205801800F06BF810BD70B50446002973
:1006600003D000202022012310E0002801D0002028
:10067000C043C046C0460DE02546D5408D4205D357
:100680000D469540641B1D46954040191546521E67
:10069000002DF1DC214670BD70B5002504462E46C4
:1006A000002911D0002C01DA01254442002901DA89
:1006B000012649422046FFF7D0FFB54200D0404214
:1006C000002D00D0494270BD002C02DA0121C9077B
:1006D00002E0002C00DD03490846C046C046214622
:1006E00070BD0000FFFFFF7F10B5202A04DB01462C
:1006F000203A9140002010BD914020239C1A0346CF
:10070000E3401943904010BD10B5202A06DBCB17FB
:100710000846203A1041C1170B4306E00B4613412F
:10072000D0402024A21A91400843194610BD002948
:1007300004DA401C490001D140084000704770B401
:100740000024050C05D11024000402D1002921D079
:100750001124050E01D100020834050F01D100015A
:10076000241D850F01D18000A41C002801DB40005E
:10077000641C002908D020252E1B0D46F540A14001
:1007800000D001212943084301061B1B000ADB1D81
:1007900002D5002070BC7047DB05181880180029AE
:1007A000F8DA401C4900F5D170BC400840007047A1
:1007B00010B5002B08DA0024401C614192185B41FF
:1007C0001A4301D14008400010BDF0B51FB482B0FB
:1007D00005460C0003D0084602F030FE02E002F0AD
:1007E0002DFE20300246009021462846FFF77CFF70
:1007F000049B059A04460F4618431143084314D03E
:10080000184610431BD0009840210A1A1846059933
:1008100000F046F805460E46009A05990498FFF741
:1008200063FF084305D0012004E02046394607B0A5
:10083000F0BD0020C11705430E432C4337430099F8
:100840000E986305401A7905E40A00220C43FD0A5C
:100850000A3002D500200146E9E701051019694177
:100860000C9C0D9D00196941FFF7A2FFDFE7000016
:100870001CB5094800900948019005460126009CD6
:1008800005E0E36807CC33430C3C98471034AC4296
:10089000F7D3FFF719FC0000103C0000303C0000CB
:1008A00010B5202A04DB0846203AD040002110BDB4
:1008B0000B46D340D0402024A21A91400843194649
:1008C00010BD0000B0B582B01F4C01941F480090CD
:1008D0001F482049204A214B00F084FD0020204978
:1008E000095E205E401AC11702464A40511A1D4D4A
:1008F0002C680B290CD3FFF741FE1B49FFF78AFC3C
:100900001A49FFF74AFC2146FFF7EEFB0446286030
:10091000174800682146FFF738FC0446154D28604B
:100920001549FFF7F9FD002801D0144906E01449E4
:100930002046FFF7E3FD002804D112492046FFF7C7
:10094000D3FB286002B0B0BD1C0020201A0020207C
:10095000080020200A0020200C0020201800202061
:100960009C02202048002020333383410AD7233CB7
:100970004C00202054002020000034430000B4C369
:10098000000034C30000B443811E091F00BFFCD225
:1009900070470000F0B585B001221402344B19688D
:1009A0000494A1431960950348490E682E4208D16A
:1009B0000E682E4205D10E682E4202D10E682E42DC
:1009C000F3D0457E15409E69964375199D6120259B
:1009D000455D03263540DF69B7437D19DD61254D4F
:1009E0002E6805272F60476A3C681C627C685C6241
:1009F000072434402C60C4697F252D02DE69AE4394
:100A00006406640C3419DC6150C8056800954768B9
:100A100085680195C568029503929A69164D15403F
:100A20002207120B3403A4B2A2183A43009C2407F5
:100A3000240D1443019A1443029A1443007C20436A
:100A40000E4A0240501998611868049A10431860C1
:100A5000039840020A68024208D10A68024205D19E
:100A60000A68024202D10A680242F3D005B0F0BD22
:100A700008010B40001340408D00F0FF72FF0F0093
:100A800010B51149886001225305104804681C42C2
:100A900008D104681C4205D104681C4202D10468D4
:100AA0001C42F3D012040B6813430B600168C906A3
:100AB00008D40168C90605D40168C90602D40168D2
:100AC000C906F3D510BDC04604010B4004020B401B
:100AD00070B582B00B794A79002A24D0174A2124B4
:100AE0002401202B00D070348218002B00D18824E0
:100AF000156C3F4E35402D191564556C35402C1939
:100B000054641468774D2C40146054682C40546031
:100B10000024146254628F24E443156D254015654A
:100B2000556D254055656A4613718B795371096877
:100B30000091114600F004F802B070BD38180000B2
:100B4000F0B5664A8218294BC318087920280DD0C1
:100B500000281DD10C68641E5460D56E244C2540BD
:100B60008835D5661646703688251DE00C68641EEB
:100B70005460D46E1E4D2C401E4EA419D466146FC2
:100B80002C40A4191467012465071B4C16460BE082
:100B90000C6864085460D66E154C26400525ED019E
:100BA0007619D66616467036376827402F43376069
:100BB000D46A4C4D2C40D462146B2C401463002436
:100BC000D46414658F24E443D56F2540D5671D6830
:100BD00025401D6049790143BD2008401168074B3D
:100BE0000B40C018801C1060F0BDC0468418000087
:100BF00024493E0001040000FFFFFFCF4000FFCF6B
:100C0000B0B5364A80184A6842600A78222A57D816
:100C1000930001A4E3589F46B70C0000C10C0000EC
:100C2000B70C0000C10C0000C10C0000C10C00009A
:100C3000C10C0000C10C0000C10C0000C10C000080
:100C4000C10C0000C10C0000C10C0000C10C000070
:100C5000C10C0000C10C0000A50C0000C10C00007C
:100C6000A50C0000C10C0000C10C0000C10C00006C
:100C7000C10C0000C10C0000C10C0000C10C000040
:100C8000C10C0000C10C0000C10C0000C10C000030
:100C9000C10C0000C10C0000A50C0000C10C00003C
:100CA000A50C000003231B0704689C4301235B077A
:100CB000E318036004E003231B0704689C430460FB
:100CC0000B8AC360CB68064C1C40C36A054D1D40AF
:100CD0002B19C362097A11430160B0BD04180000EA
:100CE000777702008888FDFF10B507239B04194021
:100CF00092008018024A84589C436118815010BDAC
:100D00003018000010B5029CA400001911431943CB
:100D1000014A815010BDC046501800009200801852
:100D2000014A81507047C0461018000010B50122DA
:100D3000120383180C789C604B7883508978014AA1
:100D4000815010BD0C110000B0B511221202835861
:100D50000124A34383508B780C881C438B88234346
:100D6000094C1C408358094D1D402B1983508B7929
:100D7000CC791C43097A21437E23194080184268AC
:100D80009A4351184160B0BD18670000E798FDFF15
:100D900010B50122120383180C789C6049788150A9
:100DA00010BD000070B5B02000F0FAFE102000F079
:100DB000F7FE012000F0F4FE0025484C605D00F0D5
:100DC000B7FF6D1C802DF9D1B12000F0E9FE102095
:100DD00000F0E6FE012000F0E3FE8025605D00F0FB
:100DE000A7FF6D1C2806F9D1B22000F0D9FE102013
:100DF00000F0D6FE012000F0D3FEFF2502352E467E
:100E0000A019401E007800F093FF701CF1B28029F9
:100E10000646F5D1B32000F0C3FE102000F0C0FE5E
:100E2000012000F0BDFE80356019401E007800F002
:100E30007FFF681C29060546F6D1B42000F0B0FEFD
:100E4000102000F0ADFE012000F0AAFE244D2E4639
:100E5000A019401E007800F06BFF701CF1B28029D1
:100E60000646F5D1B52000F09BFE102000F098FE5C
:100E7000012000F095FE80356019401E007800F0DA
:100E800057FF681C29060546F6D1B62000F088FEFB
:100E9000102000F085FE012000F082FE114D2E464C
:100EA000A019401E007800F043FF701CF1B28029A9
:100EB0000646F5D1B72000F073FE102000F070FE5A
:100EC000012000F06DFE80356019401E007800F0B2
:100ED0002FFF681C29060546F6D170BDBE360000FE
:100EE00001020000010300007047000010B5154921
:100EF00008680209012003469343C04A13600B6847
:100F00005B0904469C4354600B681B0D04469C43DC
:100F100094600B685B0804469C43D4600B680446ED
:100F20009C4314610B685B0B04469C4354610B6843
:100F30009B0B04469C4394610968C90B8843D061AC
:100F400010BDC04680330A40F0B581B0AB4802689E
:100F500041684B1E9941002A00D0491C8268002A32
:100F600000D0491CC268002A00D0491C0269002A2E
:100F700000D0491C4269002A00D0491C8269002A1D
:100F800000D0491CC9B2C269002A00D0FF22914298
:100F900029D1B44800240460B3480460B94804600F
:100FA000B4480470B2480470B348047094480126F1
:100FB00006609B480460B1480188491C0180AB4829
:100FC000046088B2CA4D0F2818D3C7480460C748C8
:100FD00004600520000628602046214601F0C0F983
:100FE000C4482860DDE0864900230B60A3490B80DC
:100FF00001680029009317D003251AE02F46103FFF
:101000003006386041200006B7490860B7490860DB
:10101000B0062860834C0021204601F0A1F9B005FC
:101020003860B0032860BCE0C169002900D1BEE08F
:1010300004258F4805708F4805708F480021017086
:101040009D4804689A4F20463946FFF749FA002820
:1010500000D12746974C38462146FFF741FA002831
:1010600000D12746681E032808D8664D78440079C9
:10107000400087441201050C664D0EE0664D0CE001
:1010800061493846FFF730F80746614D05E05E4993
:101090003846FFF729F807465C4D724C25602068FA
:1010A000724E3168FFF771F86F4908605B49284656
:1010B000FFF773F8FFF774FA594908602068306049
:1010C000704805607A4E38463146FFF709FA002825
:1010D00000D13E46774C30462146FFF701FA002802
:1010E00000D1264628463146FEF7FEFF0746009C03
:1010F0002146FFF7F5F9002800D13C4620466D4F08
:101100003946FFF7EDF9002800D13C4677480460E6
:1011100030462946FFF739F80646009F3946FFF763
:10112000DFF900283D4600D135462846614E31465C
:10113000FFF7D6F9002800D135466B4805602046F8
:101140003946FFF7BFF96A4E00280CD130461038F7
:1011500001210A060260880630607F20C105204612
:10116000FEF7C2FF03E005200006306000200024E7
:10117000214601F0F5F828462146FFF7A3F900289B
:101180000DD13046103801218A0502608803306095
:101190007F20C1052846FEF7A7FF044601E0554819
:1011A00030600121204601F0DBF801B0F0BD41685C
:1011B0000125002909D18168002906D1416902254C
:1011C000002902D18069002815D0294801788D4274
:1011D0000AD129490878012803D8421C0A7001283D
:1011E00006D1244805702BE7234901220A700570B7
:1011F0002048057824E700251BE7C046C0022020D0
:1012000020002020CDCC2C40000080BF0000A0C0DA
:101210000000A040CDCC2CC09A9999BF000020417D
:10122000240020200000104110B50E480024046066
:101230000D4804600D4804600D4804700D480470AA
:101240000D4804700D480480284804602648046056
:101250000B480068FFF792F91749086009480460D5
:1012600010BDC0467800202074002020A402202059
:10127000B502202068002020B4022020AC022020EB
:101280000000202064002020B0B50546084C21460F
:10129000FFF726F9002800D12C46064D20462946A6
:1012A000FFF71EF9002800D12C4603480460B0BDAA
:1012B0000000E0400000F04104002020B0B50A48E2
:1012C000002404600948046005200006084D2860D9
:1012D0002046214601F044F80648286001212046B6
:1012E00001F03EF8B0BDC046B8022020A802202080
:1012F000A0120A4000404000B0B5144605467E28C2
:1013000000D9491C5039C8B200F04AFC7E2D00D9E2
:1013100000252809103000F043FC0E202840401C16
:1013200000F03EFC203CE0B2062444432C4D285DF6
:1013300000F0FEFC2C19607800F0FAFCA07800F0B8
:10134000F7FCE07800F0F4FC207900F0F1FC607923
:1013500000F0EEFCB0BDC046F0B583B00192147849
:10136000002C3AD00646002729E0F0B200091030E0
:1013700000F016FC0E203040401C00F011FC203C18
:10138000E0B206244443164D285D00F0D1FC2C1930
:10139000607800F0CDFCA07800F0CAFCE07800F0A6
:1013A000C7FC207900F0C4FC607900F0C1FCB61DD8
:1013B0007F1CF8B201990C5C002C02990DD0F5B29B
:1013C0007E2D00D9491C029108465038C0B200F069
:1013D000E7FB7E2DC9D90026C7E703B0F0BDC046A4
:1013E00096340000F0B581B0009315460E460746CE
:1013F0003B2000F05DF804463C2000F059F8210243
:10140000081838803D2000F053F804463E2000F0D4
:101410004FF82102081830803F2000F049F80446B8
:10142000402000F045F8210208182880432000F0F1
:101430003FF80446442000F03BF8210208180099C8
:101440000880452000F034F80446462000F030F8CB
:101450002102081806990880472000F029F8044660
:10146000482000F025F8210208180799088001B0EB
:10147000F0BD000010B5A448032101606B200121DC
:1014800000F044F96C20002100F040F919200921F6
:1014900000F03CF91A20062100F038F91B2018242E
:1014A000214600F033F91C20214600F02FF910BD31
:1014B000F0B583B00090934881260660924F0225D4
:1014C0003D603D6406603D603D643D600124204612
:1014D00001F0F2FB3C60204601F0EEFB894806601B
:1014E0003D603D643D61204601F0E6FB3C612046E5
:1014F00001F0E2FB0296834806603D603D640026F1
:101500000EE03D61204601F0D7FB3C60204601F033
:10151000D3FB3C61204601F0CFFB761C082E0CD09B
:10152000F648029901603D603D6480200190F040E2
:10153000D0210842E5D03D60E4E7F048029E066015
:101540003D603D6406603D603D643D60204601F0C5
:10155000B3FB3C60204601F0AFFBE948E749086077
:101560000860E8480068204601F0A6FB3C61204680
:1015700001F0A2FBE14806603D603D6400260EE0FC
:101580003D61204601F098FB3C60204601F094FB51
:101590003C61204601F090FB761C082E0BD0D7480A
:1015A000029901603D603D640198F0400099084255
:1015B000E6D03D60E5E7D148029E06603D603D64AF
:1015C00006603D603D643D60204601F075FB3C6077
:1015D000204601F071FBCA48C84908600860C94844
:1015E0000068204601F068FB3C61204601F064FB86
:1015F000C24806603D603D6406603D603D643D60FC
:10160000204601F059FB3C60204601F055FBBB48E9
:1016100006603D603D643D61204601F04DFB3C614C
:10162000204601F049FBB54806603D603D64002658
:101630000EE03D61204601F03FFB3C60204601F09A
:101640003BFB3C61204601F037FB761C082E0BD09B
:10165000AA48029901603D603D640198F040D121A3
:101660000842E6D03D60E5E7A448029E06603D6082
:101670003D6406603D603D643D60204601F01CFB1A
:101680003C60204601F018FB9D48FB49086008605B
:101690009C480068204601F00FFB3C61204601F0A9
:1016A0000BFB00F031F90190F34806603D603D64AA
:1016B00006603D603D643D60204601F0FDFA3C60FF
:1016C000204601F0F9FA3C61204601F0F5FAEA48BB
:1016D00006603D603D6406603D603D643D612046BE
:1016E00001F0EAFA3C60204601F0E6FAE2480660C2
:1016F0003D603D643D60204601F0DEFA019803B094
:10170000F0BDC0460880424090120A40F0B585B056
:1017100002910190D84881260660D84D02272F609B
:101720002F6406602F602F642F600124204601F093
:10173000C3FA2C60204601F0BFFACF4806602F6044
:101740002F642F61204601F0B7FA2C61204601F08A
:10175000B3FA0496C84806602F602F6400260EE096
:101760002F61204601F0A8FA2C60204601F0A4FA6F
:101770002C61204601F0A0FA761C082E0CD0BE4841
:10178000049901602F602F6480200390F040D021E5
:101790000842E5D02F60E4E7B748049E06602F605A
:1017A0002F6406602F602F642F60204601F084FABA
:1017B0002C60204601F080FAB148AF49086008600B
:1017C000B0480068204601F077FA2C61204601F00D
:1017D00073FAA94806602F602F6400260EE02F617F
:1017E000204601F069FA2C60204601F065FA2C6170
:1017F000204601F061FA761C082E0BD09E48049911
:1018000001602F602F640398F04001990842E6D0F0
:101810002F60E5E79848049E06602F602F640660FD
:101820002F602F642F60204601F046FA2C6020467E
:1018300001F042FA924890490860086091480068B7
:10184000204601F039FA2C61204601F035FA8A4829
:1018500006602F602F6400260EE02F61204601F005
:101860002BFA2C60204601F027FA2C61204601F06B
:1018700023FA761C082E0BD07F48049901602F6054
:101880002F640398F04002990842E6D02F60E5E704
:101890007948049E06602F602F6406602F602F64D5
:1018A0002F60204601F008FA2C60204601F004FA6F
:1018B000734871490860086072480068204601F06A
:1018C000FBF92C61204601F0F7F96B4806602F60A8
:1018D0002F6406602F602F642F61204601F0ECF921
:1018E0002C60204601F0E8F9634806602F602F6401
:1018F0002F60204601F0E0F905B0F0BD08804240BD
:101900008100060080130A40F0B589B05A4F81204B
:1019100038605A4E0221089131603164386031607C
:10192000316431600124204601F0C6F9544D3D6018
:101930003460204601F0C0F93D60524800680790CD
:10194000204601F0B9F93461204601F0B5F93D6057
:101950003460204601F0B0F93D604A4800680690C6
:10196000204601F0A9F93461204601F0A5F93D6057
:101970003460204601F0A0F93D60424800680590BF
:10198000204601F099F93461204601F095F93D6057
:101990003460204601F090F93D603A4800680490B8
:1019A000204601F089F93461204601F085F93D6057
:1019B0003460204601F080F93D60324800680390B1
:1019C000204601F079F93461204601F075F93D6057
:1019D0003460204601F070F93D602A4800680290AA
:1019E000204601F069F93461204601F065F93D6057
:1019F0003460204601F060F93D60224801680191A1
:101A0000204601F059F93461204601F055F93D6056
:101A10003460204601F050F93D601A4805682046C0
:101A200001F04AF93461204601F046F90698400178
:101A30004021014007984008C00108180599090194
:101A400020220A4010180499C90010220A401018D8
:101A50000399890008220A401018029949000422BB
:101A60000A4010180899019A0A401018A907C90FCE
:101A70000143C8B209B0F0BD0880424090120A404C
:101A80008100060080130A40B0B50446B02000F083
:101A900087F8012000F084F8102000F081F800257C
:101AA000204600F045F9681C45B2002DF8D5B1205C
:101AB00000F076F8012000F073F8102000F070F8C4
:101AC0000025204600F034F9681C45B2002DF8D5F9
:101AD000B22000F065F8012000F062F8102000F05C
:101AE0005FF80025204600F023F9681C45B2002D60
:101AF000F8D5B32000F054F8012000F051F8102080
:101B000000F04EF80025204600F012F9681C45B29E
:101B1000002DF8D5B42000F043F8012000F040F883
:101B2000102000F03DF80025204600F001F9681C67
:101B300045B2002DF8D5B52000F032F8012000F0B4
:101B40002FF8102000F02CF80025204600F0F0F8C7
:101B5000681C45B2002DF8D5B62000F021F8012010
:101B600000F01EF8102000F01BF80025204600F0C1
:101B7000DFF8681C45B2002DF8D5B72000F010F84A
:101B8000012000F00DF8102000F00AF80025204692
:101B900000F0CEF8681C45B2002DF8D5B0BD0000AD
:101BA000F0B587B00090C648812101910160012005
:101BB0000604C44F3E643E60C5033D6002A8002495
:101BC0000470007804281BD80298401C02A90870F1
:101BD0000878042814D80298401C02A908700878D4
:101BE00004280DD80298401C02A90870087804281F
:101BF00006D80298401C02A9087008780528E3D38B
:101C00003E6103A80470007804281BD80398401C88
:101C100003A908700878042814D80398401C03A965
:101C20000870087804280DD80398401C03A9087090
:101C30000878042806D80398401C03A9087008787F
:101C40000528E3D33D6104A80470007804281BD85C
:101C50000498401C04A908700878042814D8049833
:101C6000401C04A90870087804280DD80498401C6A
:101C700004A908700878042806D80498401C04A910
:101C8000087008780528E3D3782000F09DFE2046F0
:101C900000F09AFE009800F097FE894801990160D3
:101CA0003E643E613D6005A80470007804281BD89E
:101CB0000598401C05A908700878042814D80598D0
:101CC000401C05A90870087804280DD80598401C08
:101CD00005A908700878042806D80598401C05A9AD
:101CE000087008780528E3D33E6006A804700078E1
:101CF00004281BD80698401C06A9087008780428F8
:101D000014D80698401C06A90870087804280DD835
:101D10000698401C06A908700878042806D806987A
:101D2000401C06A9087008780528E3D307B0F0BD69
:101D3000F0B587B0009062488121019101600120D7
:101D40000504604E35643560C403346002A8002782
:101D50000770007804281BD80298401C02A908705C
:101D60000878042814D80298401C02A90870087842
:101D700004280DD80298401C02A90870087804288D
:101D800006D80298401C02A9087008780528E3D3F9
:101D9000356103A80770007804281BD80398401CFD
:101DA00003A908700878042814D80398401C03A9D4
:101DB0000870087804280DD80398401C03A90870FF
:101DC0000878042806D80398401C03A908700878EE
:101DD0000528E3D3346104A80770007804281BD8D1
:101DE0000498401C04A908700878042814D80498A2
:101DF000401C04A90870087804280DD80498401CD9
:101E000004A908700878042806D80498401C04A97E
:101E1000087008780528E3D3782000F0D5FD40202D
:101E200000F0D2FD009800F0CFFD25480199016037
:101E300035643561346005A80770007804281BD824
:101E40000598401C05A908700878042814D805983E
:101E5000401C05A90870087804280DD80598401C76
:101E600005A908700878042806D80598401C05A91B
:101E7000087008780528E3D3356006A80770007855
:101E800004281BD80698401C06A908700878042866
:101E900014D80698401C06A90870087804280DD8A4
:101EA0000698401C06A908700878042806D80698E9
:101EB000401C06A9087008780528E3D307B0F0BDD8
:101EC0009880424090120A40F0B52A4985258D64D9
:101ED00001200302284A1360CD6443021360274C9B
:101EE00065624604264B1E60A562264D2E46813E45
:101EF0001E6082268E636F1CCF630E654F658E65F4
:101F0000CF6581262664E660666626656663A66000
:101F10004E636665A66126618E60CE602660A5640C
:101F2000A565E562E563184FA76667610F610D64FB
:101F30004D64A5630D63CD624D678D67CD674E60BF
:101F40000E6011463039114C0C601460194630395E
:101F50008005086018600E4801680E4A0A43026056
:101F60006520C0040C490A6A02430A620A680243F7
:101F70000A60F0BD04804240D0120A40888042408E
:101F8000D0320A40810004008100060083D045372A
:101F9000A0330A404004050028300A40F0B581B063
:101FA000FA4C1C492046FEF7C1FE1B492046FEF7AD
:101FB0008FFD1A480168564A0A40026000250095C4
:101FC000204629462A462B46FEF79CFE20462946F7
:101FD0002A46FEF789FE7D200602204631462A4623
:101FE000FEF79CFE01270097204629462A462B46ED
:101FF000FEF788FE204629463A46FEF775FE204643
:1020000031463A46FEF78AFE0548876003210160A3
:1020100001B0F0BDBE3A0000C43A0000041886408A
:102020000011864070B51448002404600F2000029F
:10203000124D296881430126700208182860032088
:10204000C043291F0A6802400A600D48FEF7A2FC3F
:10205000286810210143202081432960300329682A
:10206000014329602046FEF70BFDFF2000020549D1
:102070000A6882430A6070BD08030B4004010B40EC
:10208000CC3A000000E400E0F0B581B01C4C1D49E2
:102090002046FEF74BFE1C492046FEF719FD1B4863
:1020A00001681B4A0A400260002500951026204660
:1020B000294632462B46FEF725FE204629462A466B
:1020C000FEF712FE134920462A46FEF727FE012797
:1020D00000972046294632462B46FEF713FE20463F
:1020E00029463A46FEF700FE20460A493A46FEF7E0
:1020F00015FE094887600321016001B0F0BDC046AC
:1021000000208640F43A0000F83A00000438864087
:102110007F00FFFF204E00000031864010B5084CC4
:1021200008492046FEF702FE07492046FEF768FDF3
:10213000064801680122114301600548026010BD94
:1021400000808640003B0000043B00002890864051
:102150000891864010B5164C16492046FEF718FE29
:1021600015492046FEF7F0FD0321CA031348036812
:10217000934303600269484B1340412292009A182E
:10218000026142691B231343242293434361426843
:1021900001231A4044689C43A21842608902084AFD
:1021A00014680C43146001681943016010BDC046F7
:1021B00000801040183B00001A3B000000911040C6
:1021C0002890104010B5154C15492046FEF7E0FD4B
:1021D00014492046FEF7B8FD0321CA0312480368DC
:1021E0009343036002692C4B13409A1C02614269BD
:1021F0000B231343342293434361426801231A4063
:1022000044689C43A21842608902084A14680C433F
:10221000146001681943016010BDC0460000104001
:10222000243B0000263B0000001110402810104005
:1022300010B5154C15492046FEF7AAFD1449204655
:10224000FEF782FD0321CA0312480368934303602B
:102250000269114B13402B33036142691A23134364
:10226000252293434361426801231A4044689C43FA
:10227000A21842608902094A14680C43146001687C
:102280001943016010BDC04600005040303B0000C3
:10229000323B0000001150400000FFFF281050406A
:1022A00080B500F025F8FFF70FFEFFF7BBFEFFF744
:1022B00075FEFFF7E9FEFFF731FFFFF7B9FFFFF704
:1022C00049FFFFF77FFFB820054900220A5405495E
:1022D0000A54742004490A542C2004490A5480BD2D
:1022E000380120207C002020F40120206C022020D6
:1022F000F0B581B010481149416011484160114B5F
:102300005960114C6160114D6960114E7160114F3F
:102310007960114841601149074A1160084A11600B
:102320001960216029603160396001601020FEF77A
:102330002BFB01B0F0BDC04600080A40030000B10D
:1023400000280A4000088640002886400088864011
:10235000000850400088104000081040010000268E
:1023600010B501290DD80C460649FDF716FF0649A0
:10237000FDF7BAFEFEF72DF9014604482246FEF7A6
:10238000CDFC10BD0000A0C30000FA46000086404E
:1023900003480168002902D00168491E01607047A6
:1023A00070002020F0B581B02E480068C0B201282E
:1023B00055D12D4D28687F21CC052146FDF794FE8F
:1023C000286028682949FEF7B5F8002805D0FEF7EF
:1023D00079FA00F0CDF80020286045480068454EA5
:1023E0003168FEF78BF801210A0300924F0700289D
:1023F0000BD1A24D009828612F601D48006821462E
:10240000FDF772FE1A4908602F6139480068FEF72F
:10241000F4F804460D463068FEF7EFF8154A164BFF
:10242000FDF736FF22462B46FEF792F800280AD128
:10243000924D009828602F600D4C20680F49FDF7E1
:1024400053FE20602F610A480068FEF7D6F80C4A58
:102450000C4BFDF7CFFFFEF7E4F82549086001B00B
:10246000F0BDC04620908640100020200000A04013
:1024700014002020333333333333D33F000080BF85
:10248000CDCCCCCCCCCCCC3F80B5744900200870EE
:102490007B490880744908600E4908600E4908604D
:1024A0000E4908600E4908600E4908600E49086030
:1024B0000E4908600E4909680E4A11606C490860AF
:1024C00000F094F9FEF7FAFE012040060A49086080
:1024D00080BDC0463C00202030002020400020204D
:1024E000440020202C002020340020203800202010
:1024F000B002202060002020A0120A40B0B5574C46
:10250000207800280FD0207802282ED1D8480078D3
:1025100000282AD0D4480088594908800888FEF746
:1025200038F8032509E0D248017801250F48002931
:1025300003D0CD490988524A11804B4900220A60D4
:102540004A49086046490968464A11604849086096
:10255000FEF76AFE48480068FEF710F8FEF794FEA2
:1025600001204006454908602570B0BD0000B44315
:10257000F0B581B039490878012802D008780328DD
:1025800069D13748006837490968FDF7FEFD012623
:10259000F107884334490860344800680968FDF74A
:1025A000F4FD334F386038683249FDF7A7FF054620
:1025B00031480068FDF7E2FF0446002D18D1C12024
:1025C00001062046FDF790FD3968FDF7E6FD294933
:1025D000FDF720FE41210D062946FDF785FD044645
:1025E0002946FDF78BFF00281C4F02D12C4600E046
:1025F0001A4F2046FEF748FEFEF778FCFEF7A4FCD3
:1026000075061E4E35609A4C2078002806D01C486E
:102610000188002902D19449098801801348006883
:102620001849FDF761FD01460F480068FDF758FFA6
:10263000002810D1FEF742FE35613878012808D114
:1026400021780220002905D0874909880C4A118089
:1026500000E00420387001B0F0BDC046EE0220203A
:1026600048002020E4022020F0022020E802202060
:10267000E00220200000F0410000202090120A40DB
:10268000EC022020000040C00B480068C0B20B28BC
:1026900011D10A48C1690A4A117011780268D2073B
:1026A00008D00268D20705D00268D20702D00268BB
:1026B000D207F3D1816170472090104008911040FB
:1026C000F9022020F0B582B047480068C0B20B285C
:1026D00000D086E06D48007801906B48007800904B
:1026E000684801786A4C2068400700D579E01026D8
:1026F000634F6048E3693B7005686D1C0560CDB2AF
:102700000021052D57D8C0467D442D796D00AF447A
:1027100002070E171C21D9B2AA2949D101214AE08A
:10272000DBB2552B46D0AA2B45D1012145E0DAB2C8
:102730001346AA3B59425941012A3CD103213AE0B0
:1027400051490B700421009335E050490B7005216D
:10275000019330E00199090621D10099491EC9B2BF
:1027600003291CD8019A009D5219DDB2D2B2AA42A7
:1027700015D1414D2A68521C2A603D4A1278002A20
:1027800011D15A254D435A35364A1188A9421BD1D9
:10279000364A117800291BD11178491C17E0374AB5
:1027A0001168491C1160DAB2AA3A5142514102E063
:1027B000002102E00221334A11702268520710D42E
:1027C000761E320696D10CE015800121274A117041
:1027D00011780029E7D024490D800121244A117085
:1027E000E1E702B0F0BDC046201050401C4908206F
:1027F0000860BFF34F8FBFF36F8F1A4A002111801B
:10280000194A1180194A1170194A1170194A116038
:10281000194A1160194A1160194A1170194A117048
:10282000194A1170194A117019490A6852070DD4D2
:10283000CA690A68520709D4CA690A68520705D4E6
:10284000CA690A68520701D4CA69EEE70121890200
:10285000104A116022490860224908607047C0464A
:1028600080E100E0FC022020000320200D03202056
:102870000E03202008032020100320200403202022
:10288000FE0220200C032020FB022020FA02202040
:10289000081150404810504010B50120C1020D4AA7
:1028A00013688B4313600C490B6870241C430C6045
:1028B00080021168014311601062FF200006074981
:1028C0000A6882430A6006480821016005480160E1
:1028D00010BDC046281050400C11504000E400E0EC
:1028E00080E200E000E100E010B582B0354C204607
:1028F000FEF74AF82046FEF747F82046FEF744F870
:102900002046FEF741F82046FEF73EF82046FEF747
:102910003BF82046FEF738F82046FEF735F820460B
:10292000FEF732F82046FEF72FF89C48812101601F
:10293000012210049A4908640861D2030A606B46B8
:1029400000221A701B78042B18D8009B5B1C6C4665
:1029500023702378042B11D8009B5B1C23702378F1
:10296000042B0BD8009B5B1C23702378042B05D809
:10297000009B5B1C23702378052BE6D3086001A81D
:102980000270007804281BD80198401C01A9087027
:102990000878042814D80198401C01A90870087808
:1029A00004280DD80198401C01A908700878042853
:1029B00006D80198401C01A9087008780528E3D3BF
:1029C00002B010BD80380100F0B586B0734A812195
:1029D00011600122150472490D64D2030A610027B7
:1029E00003E04000771C072E6BD23E4643B2002B1B
:1029F00001D40D6100E00D606F4600233B703F780D
:102A0000042F19D8009F7F1C6C4627702478042C53
:102A100012D8009C641C6F463C703C78042C0BD888
:102A2000009C641C3C703C78042C05D8009C641C01
:102A30003C703C78052CE5D30A6001AC2370247807
:102A4000042C1BD8019C641C01AF3C703C78042C06
:102A500014D8019C641C01AF3C703C78042C0DD848
:102A6000019C641C01AF3C703C78042C06D8019C8E
:102A7000641C01AF3C703C78052CE3D30A6102ACC6
:102A800023702478042CACD8029C641C02AF3C70E8
:102A90003C78042CA5D8029C641C02AF3C703C78A6
:102AA000042C9ED8029C641C02AF3C703C78042C21
:102AB00097D8029C641C02AF3C703C78052CE3D391
:102AC0008FE70D603748354C206003A8037000780D
:102AD00004281BD80398401C03AC207020780428DD
:102AE00014D80398401C03AC2070207804280DD81B
:102AF0000398401C03AC20702078042806D8039863
:102B0000401C03AC207020780528E3D30A6004A899
:102B10000370007804281BD80498401C04AC207073
:102B20002078042814D80498401C04AC2070207825
:102B300004280DD80498401C04AC20702078042888
:102B400006D80498401C04AC207020780528E3D3F4
:102B5000444800680A6105A80370007804281BD85F
:102B60000598401C05A908700878042814D8059811
:102B7000401C05A90870087804280DD80598401C49
:102B800005A908700878042806D80598401C05A9EE
:102B9000087008780528E3D306B0F0BD988042405D
:102BA00090120A4081000600F0B581B0D94900209A
:102BB000086001272B4D2868800318D47E04012467
:102BC000204600F051F82868304210D1D148046006
:102BD0002868304208D12868304205D12868304240
:102BE00002D128683042F3D0012000F03DF8286877
:102BF000000118D4FC06012000F036F828682042B5
:102C000011D10220C34908602868204208D12868F1
:102C1000204205D12868204202D128682042F3D002
:102C2000012000F021F82868400018D4BC070120DA
:102C300000F01AF82868204211D10320B549086035
:102C40002868204208D12868204205D128682042FF
:102C500002D128682042F3D0012000F005F801B02D
:102C6000F0BDC04680130A4082B000210091009957
:102C700081421DD20F4905E0009A521C0092009A31
:102C8000824215D20191019A531E0193002AF3D07A
:102C9000019A531E0193002AEED0019A531E01930C
:102CA000002AE9D0019A531E0193002AEBD1E3E7F1
:102CB00002B07047204E000081B0142141430091C2
:102CC0000098411E009100280ED00098411E0091EE
:102CD000002809D00098411E0091002804D00098D7
:102CE000411E00910028EBD101B0704780B500F083
:102CF00033FA80BD80B5FEF72FFB80BD82B0FFF7B1
:102D0000CFFAFFF7C9FDFFF771FD00F069F9FEF793
:102D1000B1FB4B208000FFF7A7FF0027704D764ED8
:102D20003C467048009001956F487049704A714B5D
:102D3000FEF758FBE85F3168081830600820FFF79D
:102D4000BBFF601C632C0446EBD33068FF252906CB
:102D50006A4C22688A4322606421FDF79DFC684921
:102D6000088028022169814301208203891821619A
:102D7000644902220A6042040A6082040A60C204B2
:102D80000A6061490A6802430A6060490A680243AE
:102D90000A605F490A6802430A60FFF775FB5E4DEF
:102DA00003E001200721FFF7A5FFFFF7FDFE5948CB
:102DB0000068032804D1FFF7A1FB002055490860F3
:102DC00000202856042803D880005AA10A5800E0A1
:102DD00052A2012600213046FFF78CFF30463146D3
:102DE000594AFFF787FF59480068FDF7C7FB0246BD
:102DF00014203146FFF77AFF55480078FDF7C9FBEC
:102E0000024664203146FFF771FF02243046214616
:102E1000504AFFF76FFF50480088FDF7BAFB0246A3
:102E2000462738462146FFF761FF032430462146F6
:102E30004AA2FFF75FFF4F480088FDF7AAFB024652
:102E400038462146FFF752FF0424304621464AA265
:102E5000FFF750FF4E480088FDF79BFB02463846BF
:102E60002146FFF743FF05243046214649A2FFF7DC
:102E700041FF4E480068FDF793FBFDF77FFB0246DC
:102E800038462146FFF732FF06273046394648A22A
:102E9000FFF730FF4C480068FDF770FB02463A2010
:102EA0003946FFF723FF49480068FDF767FB0246F4
:102EB0005E203946FFF71AFF2878022805D14448DA
:102EC00000780028434A00D16BE728780028424A5E
:102ED00000D166E72878022800D162E73F4A60E720
:102EE0001C0020201A002020080020200A0020209A
:102EF0000C00202018002020A002202000E400E088
:102F00009C02202000E100E00418864004988640DE
:102F10000438864028002020EE02202053544154DB
:102F200045204552524F5220202020202020202092
:102F300000000000903B0000CF3B0000A53B0000DC
:102F40007B3B0000663B0000BA3B000008032020EA
:102F5000FE022020513B0000FC0220204C4F434B3E
:102F600045443A20202020202020202020202020FE
:102F700000000000000320205341564544203A2021
:102F800020202020202020202020202000000000C1
:102F9000EC02202054524156454C3A20202020205B
:102FA000202020202020202000000000F0022020EF
:102FB000474F4F442F4241443A20202020202020D8
:102FC00020202020000000001003202004032020E7
:102FD0000E032020E43B0000F93B00003C3B0000D6
:102FE000B0B5FFF781FC64250B4C2046FDF7CCFC07
:102FF0006D1E2804F9D1022000F010F8FDF7D2FE72
:103000007D2085002046FDF7BFFC6D1E2804F9D108
:103010000020FEF739FDB0BD80380100F0B581B069
:1030200004464048002606803F4804703F4806801A
:103030003F48012101703F4801703F4806703F48FA
:1030400001703F48802707803E4801703E48402578
:1030500005803E480670F0433D4908803D490880A0
:10306000AE20FEF79DFDD520FEF79AFD3846FEF70F
:1030700097FDA820FEF794FD3F20FEF791FDD32099
:10308000FEF78EFD3046FEF78BFD2846FEF788FDE5
:103090008D20FEF785FD012C01D0142000E01020CA
:1030A000FEF77EFD2020FEF77BFD3046FEF778FD23
:1030B000A1263046FEF774FDC8273846FEF770FD9E
:1030C000DA20FEF76DFD1220FEF76AFD8120FEF783
:1030D00067FD012C01D0CF2000E09F20FEF760FDAE
:1030E000D920FEF75DFD012C01D0F12000E0222067
:1030F000FEF756FDDB20FEF753FD2846FEF750FD98
:10310000A420FEF74DFDA620FEF74AFD3046FEF74F
:1031100047FD3846FEF744FDAF20FEF741FD01B004
:10312000F0BDC0466A0020205C0020206C002020FA
:10313000F8022020140320205800202050002020D6
:103140005E0020201E0020205A002020BC022020EB
:10315000F4022020F6022020F0B589B017460C4674
:103160000546002110460491FDF7C8F90028039494
:103170000AD105A82D22027028462146FEF7BCF888
:103180000120C0074740AD1D02953846FDF708FAFB
:103190000446FDF7F3F901463846FCF7F6FF0190C7
:1031A0009648984A9849994D994FBC4203DAAC42E7
:1031B0001DDD049F0DE096492046FDF74EFA3021B3
:1031C00002460A4305AB1A704743E41BAC4215D9CB
:1031D000012791492046FDF740FA05A9C919024681
:1031E00030320A70691C4143641A7D1C09E08C422C
:1031F00000DCE2E00F460025019E06E005A84170D4
:103200000225019E804FBC420CD984492046FDF71F
:1032100024FA05A94919024630320A70791C414343
:10322000641A03E005A8401930210170754837463B
:103230006E1C84420DD9054679492046FDF70DFAEA
:103240000146303105AA9155691C4143641A751C29
:1032500003E005A830218155AD1C694EB4420BD95D
:1032600070492046FDF7F9F90146303105AA51555C
:10327000711C4143641A02E005A8302141555F48A2
:103280006E1C84420DD9054667492046FDF7E5F9D5
:103290000146303105AA9155691C4143641A701CDE
:1032A00003E005A830218155A81CE1087C290ED92E
:1032B000A1B2C9085D4A4A43110D0A46303205AB36
:1032C0001A547D22D2004A43A11A8CB202E005A909
:1032D00030220A54411C632C10D9A0B28008544AF1
:1032E0004243500C0246303205AB5A5464224243EA
:1032F000A01A84B24E1C092C06D812E005AA30236D
:103300005354861C092C0CD9E0B2CD214143C80A84
:103310000146303105AA91550A214143601AC4B2D1
:1033200002E005A830218155761CF5B2303405A89D
:10333000445540493846FDF7D3F8002803D03046BD
:103340000399029D2FE005A82D182E2068703A4998
:103350003846FCF722FFFDF723F904466427394677
:10336000FDF79AF947433030A870E11BF01C0129A2
:1033700010DBCAB2CD235343DA0A13463033C0B24E
:1033800005AC23540A205043081A302404430399FF
:10339000029D04E000290399029D04D43024301DCD
:1033A000C2B205AB9C54C0B205AA8018049B4370FE
:1033B000E8B2FDF7D1FF09B0F0BD944203DD154638
:1033C0000026019F38E70E4EB44202DD0025019F22
:1033D00046E7844203DD05460026019F54E70D4879
:1033E000844202DD0020019F62E7642C019F01DB23
:1033F000002172E700260A2C86DA96E70F270000E4
:103400009F8601003F420F007F969800FFE0F50580
:1034100000CA9A3BE703000000E1F505809698009A
:1034200040420F00A086010010270000C5200000C8
:103430007B14000017B7D13800007A442021020C19
:1034400001D010211046020A01D0104608390209A5
:1034500001D01046091F820801D01046891E42087B
:1034600001D0881E7047081A704700000000000055
:1034700002E008C8121F08C1002AFAD170470000F4
:103480007047000000000000002001E001C1121F91
:10349000002AFBD170470000000000000000002F50
:1034A000000000000700070000147F147F140024B0
:1034B0002A7F2A12006264081323003649552250DD
:1034C00000000503000000001C2241000000412212
:1034D0001C000014083E08140008083E08080000FC
:1034E00000A06000000808080808000060600000F4
:1034F000002010080402003E5149453E0000427F72
:103500004000004261514946002141454B310018BD
:1035100014127F10002745454539003C4A4949307F
:103520000001710905030036494949360006494939
:10353000291E000036360000000056360000000844
:103540001422410000141414141400004122140821
:1035500000020151090600324959513E007C121106
:10356000127C007F49494936003E41414122007F9B
:103570004141221C007F49494941007F0909090155
:10358000003E4149497A007F0808087F0000417FDA
:103590004100002040413F01007F08142241007F8C
:1035A00040404040007F020C027F007F0408107FF3
:1035B000003E4141413E007F09090906003E41515C
:1035C000215E007F09192946004649494931000119
:1035D000017F0101003F4040403F001F2040201F6D
:1035E000003F4038403F0063140814630007087030
:1035F000080700615149454300007F4141000055E3
:103600002A552A55000041417F00000402010204AE
:10361000004040404040000001020400002054549B
:103620005478007F484444380038444444200038EB
:103630004444487F00385454541800087E0901025D
:103640000018A4A4A47C007F080404780000447D32
:103650004000004080847D00007F1028440000006E
:10366000417F4000007C04180478007C0804047842
:1036700000384444443800FC24242418001824242E
:1036800018FC007C0804040800485454542000042A
:103690003F444020003C4040207C001C2040201C37
:1036A000003C4030403C004428102844001CA0A0AE
:1036B000A07C004464544C441414141414140000EA
:1036C00000000000000000000000000000000000FA
:1036D00000000000000000000000000000000000EA
:1036E00000000000000000000000008080C0E0E05A
:1036F000F0F0F0F878783C3C3C3C1C1C1C1C1C1C7A
:103700001C1C1C181818303030606040C08000004D
:1037100000000000000000000000000000000000A9
:103720000000000000000000000000000000000099
:103730000000000000000000000000000000000089
:103740000000000000000000000000000000000079
:103750000000000000000000000000000000000069
:1037600000000080C0E0F8FCFEFE3F1F0F070703CB
:103770000101000000000000000000000000000047
:103780000000000000000000000000000000193CE4
:103790007E7E3C18000000000000000000000000D9
:1037A0000000000000000000000000000000000019
:1037B0000000000000000000000000000000000009
:1037C00000000000000000000000000000000000F9
:1037D0000000000000000000000000000000008069
:1037E000E0FCFEFFFF3F0F03010000000103071F85
:1037F0003F7F7F7F7F7F7F7F7F7F7F3F7F7F7EFEDB
:10380000FCFCF8F0000000000000C0F8FFFFFFFF24
:10381000FFFFFF1F07000000000000000000000085
:103820000000000000000000000000000000000098
:103830000000000000000000000000000000000088
:103840000000000000000000000000000000000078
:103850000000000000000000000000000000F0FF79
:10386000FFFFFF1F0100000000000000000000003B
:103870000080E0F8FEFFFFFFFF7F1F0F7EFCF0805F
:1038800001070F1F000080E0F8FFFFFFFFFFFFFFB1
:103890003F07000000000000F000000000000000F2
:1038A0000000000000000000000000000000000018
:1038B0000000000000000000000000000000000008
:1038C00000000000000000000000000000000000F8
:1038D00000000000000000000000000000001FFFCA
:1038E000FFFFFFC0FFF88000000000000000E0F8CC
:1038F000FEFFFFFFFFFF1F070100000000031FFF87
:10390000F8C000C0F0FCFFFFFFFFFFFFFF1F070034
:10391000000000000000E0FF3F0000000000000089
:103920000000000000000000000000000000000097
:103930000000000000000000000000000000000087
:103940000000000000000000000000000000000077
:103950000000000000000000000000000000000166
:103960000F3FFFFFFCEFBFFEF8F0C09034F7FFFF02
:10397000FFFFFFFFFF7C7C7C7C7C7C7C7C7C7C7CF8
:103980007D7F7F7FFFFFFFFFFFFFF3F1F0F0E0E0BF
:10399000E0C0E0F0FC7F1F0300000000000000001A
:1039A0000000000000000000000000000000000017
:1039B0000000000000000000000000000000000007
:1039C00000000000000000000000000000000000F7
:1039D000000000000000000020301018080C0E0647
:1039E00007070703070F1F3E7DF7EFDFBF7EFCF8D9
:1039F000F0F0E0C0C0808080000000000000000007
:103A0000008080C0C0C0E0E0E0707078B9BDDFDF4A
:103A10006F37170B0303070706040C081810000084
:103A20000000000000000000000000000000000096
:103A30000000000000000000000000000000000086
:103A40000000000000000000000000000000000076
:103A50000000000000000000000000000000000066
:103A60000000000000000000000001010307060F35
:103A70000D1B1B17373F2F2F3F1F1F1E1E1E1E1E05
:103A80001E1E1E1E1E1E0E0E0F0707030301010041
:103A90000000000000000000000000000000000026
:103AA0000000000000000000000000000000000016
:103AB00000000000000000000000000000000800FE
:103AC00000000000007D0000000100000300000075
:103AD00000000000000000004000000000000000A6
:103AE00000000000020000000900000001000000CA
:103AF0002C00C44104030000204E0000000001001F
:103B00000800FF0002000000700200000100000039
:103B10000000000000000000080000001800000085
:103B20000030000004000000180000000030000019
:103B300008000000180000000030000020202020B5
:103B40002020202020202020202020202020202075
:103B500000564953494F4E3A202020202020202053
:103B60002020202020005441534B2046494E4953E9
:103B700048454420202020202020005345434F4E1C
:103B8000442052554E4E494E4720202020202000F0
:103B900057414954204649525354204B45593320EC
:103BA000202020200057414954205345434F4E4484
:103BB000204B455933202020200052583A20202005
:103BC00020202020204C4153543A20202020004621
:103BD00049525354204C41502052554E4E494E4765
:103BE000202020004E4F2044415441202D20574199
:103BF0004954204B32333020005052455353204B10
:103C000045593320544F2053544152542000000052
:103C1000303C00000000202008000000703400004C
:103C2000383C0000080020201013000088340000F9
:083C30000E00000000006041DD
:04000005000000C136
:00000001FF
