:020000040000FA
:1000000020132020D5000000D9000000DB000000F4
:1000100000000000000000000000000000000000E0
:10002000000000000000000000000000DD000000F3
:100030000000000000000000DF000000F9230000C5
:10004000E3000000090F0000E3000000612500004C
:10005000E3000000E3000000E3000000E300000014
:1000600000000000E3000000E300000000000000CA
:1000700000000000E3000000E30000002525000070
:10008000E30000000D240000E3000000E300000096
:10009000E3000000E300000000000000000000009A
:1000A000E3000000E300000000000000000000008A
:1000B000E300000000000000E3000000E300000097
:1000C0000348854600F0E4FB00480047AD2A0000E5
:1000D0002013202003480047FEE7FEE7FEE7FEE787
:1000E000FEE7FEE7C1000000F8B502464A40D40F23
:1000F00042004B0052085B089A4202D20246084670
:1001000011464A0023D0C30D4A00DDB2120EAD1ACB
:10011000202D35DA49020126490AF6058A19002CF4
:1001200000D0524220214F1B1146B9402A411018DD
:10013000C20D9A4221D0002C17D0012D08DCDA051F
:10014000801AD20F8019D207DBB200F006FBF8BD8F
:10015000DA05801A012340001B06C01880185A4295
:100160008018CA0F1043490007E04908C20711432D
:10017000DA05801A80194008801800F0E6FAF8BD08
:1001800061000122511A001BF7E70122D2075140FA
:10019000AAE70122D2075040A6E7024670B54A40BE
:1001A000D30FDB0740002DD04A002AD0010E140ED9
:1001B000000212020919400A520A8418E501044695
:1001C0005443000A120A2E045043A4194219200C69
:1001D000C543AA18120C0125AD03521C5219120472
:1001E0007F39240400D0521C104301D44000491E22
:1001F000C2B20C06C0092018401C4008802A02D058
:1002000003E0002070BD40084000002900DA002013
:10021000184370BD70B502464A40D50F40004A00F1
:10022000ED0740085208002814D0002A12D0C40D4F
:10023000D30D41020120C0055202490A520AE41AB4
:10024000091812187D34914201D3641C00E0490062
:10025000002C01DA002070BD0023914201D3891ADD
:100260000343400849000028F7D100290AD09142F1
:1002700002D10121C90705E0914201D2012101E02B
:100280000121C943E005C018401900F05EFA70BDB5
:10029000F0B507460846584087B0C00F04904800A4
:1002A0000E46590040084908BC1A884105D2384614
:1002B00031461E4617460B4602465800400810437A
:1002C0004CD0300D039040055900400D490D05906C
:1002D000401A0290402872DA18030121000B090528
:1002E0000843019004980092002805D001995242D9
:1002F0000020884100920190029840210A1A019939
:10030000009800F0FFF905460C466B4607CB00F05D
:1003100009FAC0197141039A0E0D0023D7175640F0
:100320001A467A40164344D0049A002A2DD0029AE5
:10033000012A039A15DC1205C01A914101263605DF
:10034000001C7141D20F059ED207009301920296C4
:100350002A46234600F047FA07B0F0BD384631463A
:10036000FAE71605224A0F46B218C01AB741012112
:100370000905001C4F4100187F41114618187941AA
:10038000E20F10436D19644113E0E2076D08154355
:100390006408C2071443039A01261205C01A91414A
:1003A0003605001C7141CE07400830434908C0188B
:1003B00051412A46234600F009FACDE7FFE70498A9
:1003C00001224000C117121A00238B4104983146C4
:1003D000C417381AA141EEE730B40124E4076340A2
:1003E00030BC55E730B40124E407614030BC4FE72E
:1003F0000000E0FFF0B51FB488B00B990998002405
:1004000048400999C00F490049080991C0070B9954
:100410000090490049080B9109990898A64608439D
:100420001CD00B990A98084318D009980124400061
:10043000420D4800410D099824050003000B20439C
:1004400009900B980003000B20430B9050181C4997
:100450004018002201901446104605E00020014695
:100460000DB0F0BD032801DA034600E003239C46EB
:10047000C11A0AAE0AE05F0008ADED5B4F00F75B02
:100480007D430027AA187C41491C5B1E6145F2DDB3
:10049000410004AB5A522104120C0A43240C401CA4
:1004A0000828DFDB019802900099704601910090C6
:1004B000059B049A0799069800F095F9D0E700008B
:1004C0000DFCFFFF0122D207002800DB101A0029D3
:1004D00000DB511A814201D801207047002070478B
:1004E0000122D207002800DB101A002900DB511A74
:1004F000814201D201207047002070470122D207BB
:10050000002800DB101A002900DB511A814201D3B8
:1005100001207047002070470122D207002800DB2D
:10052000101A002900DB511A814201D901207047BD
:10053000002070470122D207002800DB101A002992
:1005400000DB511A814201D1012070470020704721
:1005500010B5002904DB0C460121C9074042A14126
:10056000002B04DB1C460123DB075242A341101A77
:100570008B4101D3012010BD002010BDC217C10F57
:10058000504010B54018CA079623002100F0E5F846
:1005900010BD00000EB5C217C10F5040CA07401869
:1005A0000021054B0293019200910A460B4600F090
:1005B0001AF903B000BD000033040000C20F41006F
:1005C00040020123400ADB05D207090EC0187F292B
:1005D00001DA00207047962903DC9623591AC84097
:1005E00001E096398840002AF4D04042704741002B
:1005F00040020122400AD205090E80187F2901DA43
:1006000000207047962903DC9622511AC840704793
:10061000963988407047C20FD207400040080BD07F
:10062000C10D0723DB01C91840020905400A114327
:10063000C208400711437047002001467047CB0FA6
:10064000DB07490010B5490802460A4307D00A0DE6
:1006500007240903E401090B121B002A01DC002016
:1006600010BDC900440F0C43C100E018D20580182A
:1006700000F06BF810BD70B50446002903D00020CF
:100680002022012310E0002801D00020C043C046F2
:10069000C0460DE02546D5408D4205D30D46954018
:1006A000641B1D46954040191546521E002DF1DC75
:1006B000214670BD70B5002504462E46002911D094
:1006C000002C01DA01254442002901DA01264942C1
:1006D0002046FFF7D0FFB54200D04042002D00D0A9
:1006E000494270BD002C02DA0121C90702E0002C4A
:1006F00000DD03490846C046C046214670BD0000E3
:10070000FFFFFF7F10B5202A04DB0146203A91400D
:10071000002010BD914020239C1A0346E34019435A
:10072000904010BD10B5202A06DBCB170846203AB2
:100730001041C1170B4306E00B461341D040202463
:10074000A21A91400843194610BD002904DA401C42
:10075000490001D140084000704770B40024050CE6
:1007600005D11024000402D1002921D01124050E46
:1007700001D100020834050F01D10001241D850FAD
:1007800001D18000A41C002801DB4000641C00296A
:1007900008D020252E1B0D46F540A14000D0012198
:1007A0002943084301061B1B000ADB1D02D500205C
:1007B00070BC7047DB05181880180029F8DA401C57
:1007C0004900F5D170BC40084000704710B5002BBF
:1007D00008DA0024401C614192185B411A4301D1A0
:1007E0004008400010BDF0B51FB482B005460C00B3
:1007F00003D0084603F09AF802E003F097F820309F
:100800000246009021462846FFF77CFF049B059A8C
:1008100004460F4618431143084314D018461043AA
:100820001BD0009840210A1A1846059900F048F894
:1008300005460E46009A05990498FFF763FF0843A2
:1008400005D0012004E02046394607B0F0BD002065
:10085000C11705430E432C43374300990E98630597
:10086000401A7905E40A00220C43FD0A0A3002D539
:1008700000200146E9E70105101969410C9C0D9D16
:1008800000196941FFF7A2FFDFE700000000000048
:100890001CB5094800900948019005460126009CB6
:1008A00005E0E36807CC33430C3C98471034AC4276
:1008B000F7D3FFF709FC0000304100005041000071
:1008C00010B5202A04DB0846203AD040002110BD94
:1008D0000B46D340D0402024A21A91400843194629
:1008E00010BD0000B0B582B01F4C01941F480090AD
:1008F0001F482049204A214B00F0A8FD0020204934
:10090000095E205E401AC11702464A40511A1D4D29
:100910002C680B290CD3FFF731FE1B49FFF77AFC3B
:100920001A49FFF73AFC2146FFF7DEFB0446286030
:10093000174800682146FFF728FC0446154D28603B
:100940001549FFF7E9FD002801D0144906E01449D4
:100950002046FFF7D3FD002804D112492046FFF7B7
:10096000C3FB286002B0B0BD24002020220020205C
:100970001000202012002020140020202000202021
:10098000C002202050002020333383410AD7233C6B
:100990006800202074002020000034430000B4C30D
:1009A000000034C30000B443811E091F00BFFCD205
:1009B00070470000F0B585B001221402344B19686D
:1009C0000494A1431960950348490E682E4208D14A
:1009D0000E682E4205D10E682E4202D10E682E42BC
:1009E000F3D0457E15409E69964375199D6120257B
:1009F000455D03263540DF69B7437D19DD61254D2F
:100A00002E6805272F60476A3C681C627C685C6220
:100A1000072434402C60C4697F252D02DE69AE4373
:100A20006406640C3419DC6150C805680095476899
:100A300085680195C568029503929A69164D15401F
:100A40002207120B3403A4B2A2183A43009C2407D5
:100A5000240D1443019A1443029A1443007C20434A
:100A60000E4A0240501998611868049A10431860A1
:100A7000039840020A68024208D10A68024205D17E
:100A80000A68024202D10A680242F3D005B0F0BD02
:100A900008010B40001340408D00F0FF72FF0F0073
:100AA00010B51149886001225305104804681C42A2
:100AB00008D104681C4205D104681C4202D10468B4
:100AC0001C42F3D012040B6813430B600168C90683
:100AD00008D40168C90605D40168C90602D40168B2
:100AE000C906F3D510BDC04604010B4004020B40FB
:100AF00070B582B00B794A79002A24D0174A212494
:100B00002401202B00D070348218002B00D18824BF
:100B1000156C3F4E35402D191564556C35402C1918
:100B200054641468774D2C40146054682C40546011
:100B30000024146254628F24E443156D254015652A
:100B4000556D254055656A4613718B795371096857
:100B50000091114600F004F802B070BD3818000092
:100B6000F0B5664A8218294BC318087920280DD0A1
:100B700000281DD10C68641E5460D56E244C25409D
:100B80008835D5661646703688251DE00C68641ECB
:100B90005460D46E1E4D2C401E4EA419D466146FA2
:100BA0002C40A4191467012465071B4C16460BE062
:100BB0000C6864085460D66E154C26400525ED017E
:100BC0007619D66616467036376827402F43376049
:100BD000D46A4C4D2C40D462146B2C401463002416
:100BE000D46414658F24E443D56F2540D5671D6810
:100BF00025401D6049790143BD2008401168074B1D
:100C00000B40C018801C1060F0BDC0468418000066
:100C100024493E0001040000FFFFFFCF4000FFCF4A
:100C2000B0B5364A80184A6842600A78222A57D8F6
:100C3000930001A4E3589F46D70C0000E10C00008C
:100C4000D70C0000E10C0000E10C0000E10C0000FA
:100C5000E10C0000E10C0000E10C0000E10C0000E0
:100C6000E10C0000E10C0000E10C0000E10C0000D0
:100C7000E10C0000E10C0000C50C0000E10C0000DC
:100C8000C50C0000E10C0000E10C0000E10C0000CC
:100C9000E10C0000E10C0000E10C0000E10C0000A0
:100CA000E10C0000E10C0000E10C0000E10C000090
:100CB000E10C0000E10C0000C50C0000E10C00009C
:100CC000C50C000003231B0704689C4301235B073A
:100CD000E318036004E003231B0704689C430460DB
:100CE0000B8AC360CB68064C1C40C36A054D1D408F
:100CF0002B19C362097A11430160B0BD04180000CA
:100D0000777702008888FDFF10B507239B04194000
:100D100092008018024A84589C436118815010BD8B
:100D20003018000010B5029CA400001911431943AB
:100D3000014A815010BDC046501800009200801832
:100D4000014A81507047C0461018000010B50122BA
:100D5000120383180C789C604B7883508978014A81
:100D6000815010BD0C110000B0B511221202835841
:100D70000124A34383508B780C881C438B88234326
:100D8000094C1C408358094D1D402B1983508B7909
:100D9000CC791C43097A21437E231940801842688C
:100DA0009A4351184160B0BD18670000E798FDFFF5
:100DB00010B50122120383180C789C604978815089
:100DC00010BD000070B5B02000F01EFF102000F034
:100DD0001BFF012000F018FF0025484C605D00F06B
:100DE000DBFF6D1C802DF9D1B12000F00DFF10202C
:100DF00000F00AFF012000F007FF8025605D00F091
:100E0000CBFF6D1C2806F9D1B22000F0FDFE1020AA
:100E100000F0FAFE012000F0F7FEFF2502352E4615
:100E2000A019401E007800F0B7FF701CF1B28029B5
:100E30000646F5D1B32000F0E7FE102000F0E4FEF6
:100E4000012000F0E1FE80356019401E007800F0BE
:100E5000A3FF681C29060546F6D1B42000F0D4FE95
:100E6000102000F0D1FE012000F0CEFE244D2E46D1
:100E7000A019401E007800F08FFF701CF1B280298D
:100E80000646F5D1B52000F0BFFE102000F0BCFEF4
:100E9000012000F0B9FE80356019401E007800F096
:100EA0007BFF681C29060546F6D1B62000F0ACFE93
:100EB000102000F0A9FE012000F0A6FE114D2E46E4
:100EC000A019401E007800F067FF701CF1B2802965
:100ED0000646F5D1B72000F097FE102000F094FEF2
:100EE000012000F091FE80356019401E007800F06E
:100EF00053FF681C29060546F6D170BDAE3B0000C5
:100F000001020000010300007047000010B5154900
:100F100008680209012003469343C04A13600B6826
:100F20005B0904469C4354600B681B0D04469C43BC
:100F300094600B685B0804469C43D4600B680446CD
:100F40009C4314610B685B0B04469C4354610B6823
:100F50009B0B04469C4394610968C90B8843D0618C
:100F600010BDC04680330A40F0B581B0AB4802687E
:100F700041684B1E9941002A00D0491C8268002A12
:100F800000D0491CC268002A00D0491C0269002A0E
:100F900000D0491C4269002A00D0491C8269002AFD
:100FA00000D0491CC9B2C269002A00D0FF22914278
:100FB00029D1B44800240460B3480460B9480460EF
:100FC000B4480470B2480470B348047094480126D1
:100FD00006609B480460B1480188491C0180AB4809
:100FE000046088B2CA4D0F2818D3C7480460C748A8
:100FF00004600520000628602046214601F0E4F93F
:10100000C4482860DDE0864900230B60A3490B80BB
:1010100001680029009317D003251AE02F46103FDE
:101020003006386041200006B7490860B7490860BB
:10103000B0062860834C0021204601F0C5F9B005B8
:101040003860B0032860BCE0C169002900D1BEE06F
:1010500004258F4805708F4805708F480021017066
:101060009D4804689A4F20463946FFF739FA002810
:1010700000D12746974C38462146FFF731FA002821
:1010800000D12746681E032808D8664D78440079A9
:10109000400087441201050C664D0EE0664D0CE0E1
:1010A00061493846FFF720F80746614D05E05E4983
:1010B0003846FFF719F807465C4D724C25602068EA
:1010C000724E3168FFF761F86F4908605B49284646
:1010D000FFF763F8FFF772FA59490860206830603B
:1010E000704805607A4E38463146FFF7F9F9002816
:1010F00000D13E46774C30462146FFF7F1F90028F3
:1011000000D1264628463146FEF7EEFF0746009CF2
:101110002146FFF7E5F9002800D13C4620466D4FF7
:101120003946FFF7DDF9002800D13C4677480460D6
:1011300030462946FFF729F80646009F3946FFF753
:10114000CFF900283D4600D135462846614E31464C
:10115000FFF7C6F9002800D135466B4805602046E8
:101160003946FFF7AFF96A4E00280CD130461038E7
:1011700001210A060260880630607F20C1052046F2
:10118000FEF7B2FF03E005200006306000200024D7
:10119000214601F019F928462146FFF793F9002866
:1011A0000DD13046103801218A0502608803306075
:1011B0007F20C1052846FEF797FF044601E0554809
:1011C00030600121204601F0FFF801B0F0BD416818
:1011D0000125002909D18168002906D1416902252C
:1011E000002902D18069002815D0294801788D4254
:1011F0000AD129490878012803D8421C0A7001281D
:1012000006D1244805702BE7234901220A70057096
:101210002048057824E700251BE7C046F00220207F
:1012200028002020CDCC2C40000080BF0000A0C0B2
:101230000000A040CDCC2CC09A9999BF000020415D
:101240002C0020200000104110B50E48002404603E
:101250000D4804600D4804600D4804700D4804708A
:101260000D4804700D480480284804602648046036
:101270000B480068FFF782F91749086009480460C5
:1012800010BDC0469800202094002020CC022020D1
:10129000E102202088002020E0022020D40220202B
:1012A0000000202084002020B0B50546084C2146CF
:1012B000FFF716F9002800D12C46064D2046294696
:1012C000FFF70EF9002800D12C4603480460B0BD9A
:1012D0000000E0400000F04108002020B0B50A48BE
:1012E000002404600948046005200006084D2860B9
:1012F0002046214601F068F8064828600121204672
:1013000001F062F8B0BDC046E8022020D0022020E3
:10131000A0120A4000404000B0B5144605467E28A1
:1013200000D9491C5039C8B200F06EFC7E2D00D99E
:1013300000252809103000F067FC0E202840401CD2
:1013400000F062FC203CE0B2062444432C4D285DB2
:1013500000F022FD2C19607800F01EFDA07800F04E
:101360001BFDE07800F018FD207900F015FD607994
:1013700000F012FDB0BDC046F0B583B00192147804
:10138000002C3AD00646002729E0F0B200091030C0
:1013900000F03AFC0E203040401C00F035FC203CB0
:1013A000E0B206244443164D285D00F0F5FC2C19EC
:1013B000607800F0F1FCA07800F0EEFCE07800F03E
:1013C000EBFC207900F0E8FC607900F0E5FCB61D4C
:1013D0007F1CF8B201990C5C002C02990DD0F5B27B
:1013E0007E2D00D9491C029108465038C0B200F049
:1013F0000BFC7E2DC9D90026C7E703B0F0BDC0465F
:1014000086390000B0B504465039CDB2284600F008
:10141000FBFB012000F0F8FB102000F0F5FB284654
:1014200000F0F2FB2009103000F0EEFB0E2020400F
:10143000401C00F0E9FB60B2002806D4002000F058
:10144000ABFC601C44B2002CF8D5B0BDF0B581B047
:10145000009315460E4607463B2000F05DF8044613
:101460003C2000F059F82102081838803D2000F097
:1014700053F804463E2000F04FF82102081830804F
:101480003F2000F049F80446402000F045F82102D2
:1014900008182880432000F03FF80446442000F05C
:1014A0003BF82102081800990880452000F034F824
:1014B0000446462000F030F82102081806990880FA
:1014C000472000F029F80446482000F025F82102C2
:1014D00008180799088001B0F0BD000010B5A448B5
:1014E000032101606B20012100F044F96C200021F0
:1014F00000F040F91920092100F03CF91A200621DA
:1015000000F038F91B201824214600F033F91C2084
:10151000214600F02FF910BDF0B583B0009093483C
:1015200081260660924F02253D603D6406603D6065
:101530003D643D600124204601F006FA3C602046EF
:1015400001F002FA894806603D603D643D61204635
:1015500001F0FAF93C61204601F0F6F90296834861
:1015600006603D603D6400260EE03D61204601F0CE
:10157000EBF93C60204601F0E7F93C61204601F0C0
:10158000E3F9761C082E0CD0F648029901603D6004
:101590003D6480200190F040D0210842E5D03D60BC
:1015A000E4E7F048029E06603D603D6406603D60F1
:1015B0003D643D60204601F0C7F93C60204601F0E3
:1015C000C3F9E948E74908600860E8480068204630
:1015D00001F0BAF93C61204601F0B6F9E148066035
:1015E0003D603D6400260EE03D61204601F0ACF90F
:1015F0003C60204601F0A8F93C61204601F0A4F9C6
:10160000761C082E0BD0D748029901603D603D64DE
:101610000198F04000990842E6D03D60E5E7D148E6
:10162000029E06603D603D6406603D603D643D6035
:10163000204601F089F93C60204601F085F9CA484E
:10164000C84908600860C9480068204601F07CF974
:101650003C61204601F078F9C24806603D603D6477
:1016600006603D603D643D60204601F06DF93C60E0
:10167000204601F069F9BB4806603D603D643D616C
:10168000204601F061F93C61204601F05DF9B54862
:1016900006603D603D6400260EE03D61204601F09D
:1016A00053F93C60204601F04FF93C61204601F0BF
:1016B0004BF9761C082E0BD0AA48029901603D60B8
:1016C0003D640198F040D1210842E6D03D60E5E755
:1016D000A448029E06603D603D6406603D603D6436
:1016E0003D60204601F030F93C60204601F02CF9C5
:1016F0009D48FB49086008609C480068204601F04E
:1017000023F93C61204601F01FF900F031F9019006
:10171000F34806603D603D6406603D603D643D60A9
:10172000204601F011F93C60204601F00DF93C61C2
:10173000204601F009F9EA4806603D603D64066014
:101740003D603D643D61204601F0FEF83C6020466E
:1017500001F0FAF8E24806603D603D643D602046D5
:1017600001F0F2F8019803B0F0BDC0460880424095
:1017700090120A40F0B585B002910190D8488126B8
:101780000660D84D02272F602F6406602F602F64FB
:101790002F600124204601F0D7F82C60204601F08C
:1017A000D3F8CF4806602F602F642F61204601F0E8
:1017B000CBF82C61204601F0C7F80496C8480660B3
:1017C0002F602F6400260EE02F61204601F0BCF848
:1017D0002C60204601F0B8F82C61204601F0B4F8E6
:1017E000761C082E0CD0BE48049901602F602F642F
:1017F00080200390F040D0210842E5D02F60E4E73C
:10180000B748049E06602F602F6406602F602F6427
:101810002F60204601F098F82C60204601F094F8E3
:10182000B148AF4908600860B0480068204601F040
:101830008BF82C61204601F087F8A94806602F60DC
:101840002F6400260EE02F61204601F07DF82C6009
:10185000204601F079F82C61204601F075F8761CDD
:10186000082E0BD09E48049901602F602F640398C6
:10187000F04001990842E6D02F60E5E79848049EC1
:1018800006602F602F6406602F602F642F60204653
:1018900001F05AF82C60204601F056F89248904921
:1018A0000860086091480068204601F04DF82C61FE
:1018B000204601F049F88A4806602F602F64002610
:1018C0000EE02F61204601F03FF82C60204601F029
:1018D0003BF82C61204601F037F8761C082E0BD01F
:1018E0007F48049901602F602F640398F0400299AB
:1018F0000842E6D02F60E5E77948049E06602F6035
:101900002F6406602F602F642F60204601F01CF8C2
:101910002C60204601F018F873487149086008608F
:1019200072480068204601F00FF82C61204601F053
:101930000BF86B4806602F602F6406602F602F64E1
:101940002F61204601F000F82C60204600F0FCFFDB
:10195000634806602F602F642F60204600F0F4FF7C
:1019600005B0F0BD088042408100060080130A40A7
:10197000F0B589B05A4F812038605A4E0221089143
:101980003160316438603160316431600124204657
:1019900000F0DAFF544D3D603460204600F0D4FF83
:1019A0003D60524800680790204600F0CDFF34614A
:1019B000204600F0C9FF3D603460204600F0C4FFBF
:1019C0003D604A4800680690204600F0BDFF346143
:1019D000204600F0B9FF3D603460204600F0B4FFBF
:1019E0003D60424800680590204600F0ADFF34613C
:1019F000204600F0A9FF3D603460204600F0A4FFBF
:101A00003D603A4800680490204600F09DFF346134
:101A1000204600F099FF3D603460204600F094FFBE
:101A20003D60324800680390204600F08DFF34612D
:101A3000204600F089FF3D603460204600F084FFBE
:101A40003D602A4800680290204600F07DFF346126
:101A5000204600F079FF3D603460204600F074FFBE
:101A60003D60224801680191204600F06DFF34611D
:101A7000204600F069FF3D603460204600F064FFBE
:101A80003D601A480568204600F05EFF346120463C
:101A900000F05AFF06984001402101400798400895
:101AA000C00108180599090120220A40101804995C
:101AB000C90010220A4010180399890008220A4020
:101AC00010180299490004220A4010180899019A36
:101AD0000A401018A907C90F0143C8B209B0F0BDE8
:101AE0000880424090120A408100060080130A409C
:101AF000B0B50446B02000F087F8012000F084F86B
:101B0000102000F081F80025204600F045F9681CFF
:101B100045B2002DF8D5B12000F076F8012000F094
:101B200073F8102000F070F80025204600F034F91A
:101B3000681C45B2002DF8D5B22000F065F80120F0
:101B400000F062F8102000F05FF80025204600F059
:101B500023F9681C45B2002DF8D5B32000F054F8E5
:101B6000012000F051F8102000F04EF8002520462A
:101B700000F012F9681C45B2002DF8D5B42000F031
:101B800043F8012000F040F8102000F03DF8002557
:101B9000204600F001F9681C45B2002DF8D5B520AB
:101BA00000F032F8012000F02FF8102000F02CF89F
:101BB0000025204600F0F0F8681C45B2002DF8D54D
:101BC000B62000F021F8012000F01EF8102000F0EF
:101BD0001BF80025204600F0DFF8681C45B2002DF8
:101BE000F8D5B72000F010F8012000F00DF8102013
:101BF00000F00AF80025204600F0CEF8681C45B237
:101C0000002DF8D5B0BD0000F0B587B00090C648F3
:101C100081210191016001200604C44F3E643E60B1
:101C2000C5033D6002A800240470007804281BD876
:101C30000298401C02A908700878042814D8029859
:101C4000401C02A90870087804280DD80298401C8E
:101C500002A908700878042806D80298401C02A936
:101C6000087008780528E3D33E6103A80470007863
:101C700004281BD80398401C03A90870087804287E
:101C800014D80398401C03A90870087804280DD8BC
:101C90000398401C03A908700878042806D8039804
:101CA000401C03A9087008780528E3D33D6104A807
:101CB0000470007804281BD80498401C04A90870FC
:101CC0000878042814D80498401C04A908700878DF
:101CD00004280DD80498401C04A90870087804282A
:101CE00006D80498401C04A9087008780528E3D396
:101CF000782000F0AFFC204600F0ACFC009800F02B
:101D0000A9FC8948019901603E643E613D6005A8D7
:101D10000470007804281BD80598401C05A9087099
:101D20000878042814D80598401C05A9087008787C
:101D300004280DD80598401C05A9087008780428C7
:101D400006D80598401C05A9087008780528E3D333
:101D50003E6006A80470007804281BD80698401C32
:101D600006A908700878042814D80698401C06A90B
:101D70000870087804280DD80698401C06A9087039
:101D80000878042806D80698401C06A90870087828
:101D90000528E3D307B0F0BDF0B587B000906248E6
:101DA00081210191016001200504604E3564356098
:101DB000C403346002A800270770007804281BD8E9
:101DC0000298401C02A908700878042814D80298C8
:101DD000401C02A90870087804280DD80298401CFD
:101DE00002A908700878042806D80298401C02A9A5
:101DF000087008780528E3D3356103A807700078D8
:101E000004281BD80398401C03A9087008780428EC
:101E100014D80398401C03A90870087804280DD82A
:101E20000398401C03A908700878042806D8039872
:101E3000401C03A9087008780528E3D3346104A87E
:101E40000770007804281BD80498401C04A9087067
:101E50000878042814D80498401C04A9087008784D
:101E600004280DD80498401C04A908700878042898
:101E700006D80498401C04A9087008780528E3D304
:101E8000782000F0E7FB402000F0E4FB009800F031
:101E9000E1FB25480199016035643561346005A88E
:101EA0000770007804281BD80598401C05A9087005
:101EB0000878042814D80598401C05A908700878EB
:101EC00004280DD80598401C05A908700878042836
:101ED00006D80598401C05A9087008780528E3D3A2
:101EE000356006A80770007804281BD80698401CA7
:101EF00006A908700878042814D80698401C06A97A
:101F00000870087804280DD80698401C06A90870A7
:101F10000878042806D80698401C06A90870087896
:101F20000528E3D307B0F0BD9880424090120A40E4
:101F3000F0B52A4985258D6401200302284A1360E3
:101F4000CD6443021360274C65624604264B1E6035
:101F5000A562264D2E46813E1E6082268E636F1C32
:101F6000CF630E654F658E65CF6581262664E6607A
:101F7000666626656663A6604E636665A661266131
:101F80008E60CE602660A564A565E562E563184FA6
:101F9000A76667610F610D644D64A5630D63CD6233
:101FA0004D678D67CD674E600E6011463039114C1C
:101FB0000C601460194630398005086018600E48BE
:101FC00001680E4A0A4302606520C0040C490A6A8F
:101FD00002430A620A6802430A60F0BD048042407C
:101FE000D0120A4088804240D0320A40810004006A
:101FF0008100060083D04537A0330A404004050025
:1020000028300A40F0B581B0FA4C1C492046FEF752
:102010009DFE1B492046FEF76BFD1A480168564A93
:102020000A40026000250095204629462A462B4694
:10203000FEF778FE204629462A46FEF765FE7D20FB
:102040000602204631462A46FEF778FE0127009711
:10205000204629462A462B46FEF764FE204629469E
:102060003A46FEF751FE204631463A46FEF766FEF6
:10207000054887600321016001B0F0BDAE3F00005C
:10208000B43F0000041886400011864070B5144823
:10209000002404600F200002124D296881430126AC
:1020A0007002081828600320C043291F0A680240F4
:1020B0000A600D48FEF77EFC2868102101432020AD
:1020C0008143296030032968014329602046FEF7D7
:1020D000E7FCFF20000205490A6882430A6070BDE0
:1020E00008030B4004010B40BC3F000000E400E08B
:1020F000F0B581B01C4C1D492046FEF727FE1C4957
:102100002046FEF7F5FC1B4801681B4A0A400260A6
:102110000025009510262046294632462B46FEF71C
:1021200001FE204629462A46FEF7EEFD13492046C9
:102130002A46FEF703FE012700972046294632462D
:102140002B46FEF7EFFD204629463A46FEF7DCFD1A
:1021500020460A493A46FEF7F1FD09488760032107
:10216000016001B0F0BDC04600208640E43F0000A1
:10217000E83F0000043886407F00FFFF204E00004B
:102180000031864010B5084C08492046FEF7DEFDB8
:1021900007492046FEF744FD064801680122114325
:1021A00001600548026010BD00808640F03F0000DD
:1021B000F43F0000289086400891864010B5164CE8
:1021C00016492046FEF7F4FD15492046FEF7CCFDE2
:1021D0000321CA0313480368934303600269484B11
:1021E0001340412292009A18026142691B23134353
:1021F000242293434361426801231A4044689C436C
:10220000A21842608902084A14680C4314600168ED
:102210001943016010BDC046008010400840000016
:102220000A400000009110402890104010B5154C55
:1022300015492046FEF7BCFD14492046FEF794FDE3
:102240000321CA03124803689343036002692C4BBD
:1022500013409A1C026142690B23134334229343B7
:102260004361426801231A4044689C43A2184260BB
:102270008902084A14680C4314600168194301601C
:1022800010BDC04600001040144000001640000081
:10229000001110402810104010B5154C154920466B
:1022A000FEF786FD14492046FEF75EFD0321CA03B2
:1022B00012480368934303600269114B13402B33A8
:1022C000036142691A231343252293434361426801
:1022D00001231A4044689C43A21842608902094ABB
:1022E00014680C43146001681943016010BDC046B6
:1022F00000005040204000002240000000115040EB
:102300000000FFFF2810504080B500F025F8FFF7CF
:102310000FFEFFF7BBFEFFF775FEFFF7E9FEFFF7C5
:1023200031FFFFF7B9FFFFF749FFFFF77FFFB82045
:10233000054900220A5405490A54742004490A54E4
:102340002C2004490A5480BD5C012020A0002020DC
:102350001802202090022020F0B581B010481149C9
:10236000416011484160114B5960114C6160114D41
:102370006960114E7160114F7960114841601149D7
:10238000074A1160084A11601960216029603160B4
:10239000396001601020FEF707FB01B0F0BDC046B8
:1023A00000080A40030000B100280A4000088640E7
:1023B0000028864000888640000850400088104071
:1023C000000810400100002610B501290DD80C4668
:1023D0000649FDF7E2FE0649FDF786FEFEF707F91E
:1023E000014604482246FEF7A9FC10BD0000A0C328
:1023F0000000FA460000864003480168002902D028
:102400000168491E0160704790002020F0B581B03E
:1024100036480068C0B2012866D1354D28687F2152
:10242000CC052146FDF760FE286028683149FEF79B
:1024300081F8002815D0FEF755FA2F4800680128CA
:1024400001D100F06DFE2D480068012801D100F097
:10245000D9FE2B480068012801D100F02BFF002095
:102460002860284E3068284F3968FEF747F8002862
:102470000ED101200103ED4D296146072E6023484E
:1024800000682146FDF730FE204908602E611D4E90
:102490003068FEF7C0F804460D463868FEF7BBF812
:1024A0001B4A1C4BFDF7F4FE22462B46FEF750F864
:1024B00000280ED101200103DC4C21604507256076
:1024C0003746124E30681449FDF70EFE30603E4626
:1024D00025610E480068FEF79EF8104A104BFDF784
:1024E00089FFFEF7ACF8306001B0F0BD2090864067
:1024F000180020200000A0403800202044002020A8
:1025000048002020DC022020800020201C00202009
:10251000333333333333D33F000080BFCDCCCCCC07
:10252000CCCCCC3F0B480068C0B20B2811D10A4874
:10253000C1690A4A117011780268D20708D002688E
:10254000D20705D00268D20702D00268D207F3D1C1
:10255000816170472090104008911040190320209D
:1025600080B503480068C0B200F020FA80BDC046C4
:102570002411504010B582B0354C2046FEF714FAB5
:102580002046FEF711FA2046FEF70EFA2046FEF727
:102590000BFA2046FEF708FA2046FEF705FA204619
:1025A000FEF702FA2046FEF7FFF92046FEF7FCF997
:1025B0002046FEF7F9F99C488121016001221004B0
:1025C0009A4908640861D2030A606B4600221A70B7
:1025D0001B78042B18D8009B5B1C6C462370237857
:1025E000042B11D8009B5B1C23702378042B0BD881
:1025F000009B5B1C23702378042B05D8009B5B1C7D
:1026000023702378052BE6D3086001A802700078B8
:1026100004281BD80198401C01A9087008780428D8
:1026200014D80198401C01A90870087804280DD816
:102630000198401C01A908700878042806D8019860
:10264000401C01A9087008780528E3D302B010BD2A
:1026500080380100F0B586B0734A812111600122F3
:10266000150472490D64D2030A61002703E040009B
:10267000771C072E6BD23E4643B2002B01D40D616E
:1026800000E00D606F4600233B703F78042F19D89F
:10269000009F7F1C6C4627702478042C12D8009C65
:1026A000641C6F463C703C78042C0BD8009C641C66
:1026B0003C703C78042C05D8009C641C3C703C7831
:1026C000052CE5D30A6001AC23702478042C1BD8B8
:1026D000019C641C01AF3C703C78042C14D8019C14
:1026E000641C01AF3C703C78042C0DD8019C641C28
:1026F00001AF3C703C78042C06D8019C641C01AFEF
:102700003C703C78052CE3D30A6102AC237024783A
:10271000042CACD8029C641C02AF3C703C78042CA6
:10272000A5D8029C641C02AF3C703C78042C9ED857
:10273000029C641C02AF3C703C78042C97D8029C2D
:10274000641C02AF3C703C78052CE3D38FE70D602E
:102750003748354C206003A80370007804281BD844
:102760000398401C03AC20702078042814D80398E8
:10277000401C03AC2070207804280DD80398401C1E
:1027800003AC20702078042806D80398401C03ACC2
:10279000207020780528E3D30A6004A8037000782D
:1027A00004281BD80498401C04AC2070207804280E
:1027B00014D80498401C04AC2070207804280DD84C
:1027C0000498401C04AC20702078042806D8049893
:1027D000401C04AC207020780528E3D345480068ED
:1027E0000A6105A80370007804281BD80598401CCE
:1027F00005A908700878042814D80598401C05A974
:102800000870087804280DD80598401C05A90870A0
:102810000878042806D80598401C05A9087008788F
:102820000528E3D306B0F0BD9880424090120A40DC
:1028300081000600F0B581B02D4900200860012715
:102840002C4D2868800318D47E040124204600F013
:1028500053F82868304210D1254804602868304277
:1028600008D12868304205D12868304202D1286852
:102870003042F3D0012000F03FF82868000118D45E
:10288000FC06012000F038F82868204211D102200F
:10289000174908602868204208D12868204205D1DD
:1028A0002868204202D128682042F3D0012000F09D
:1028B00023F82868400018D4BC07012000F01CF859
:1028C0002868204211D10320094908602868204265
:1028D00008D12868204205D12868204202D1286802
:1028E0002042F3D0012000F007F801B0F0BDC0464F
:1028F0003000202080130A4082B00021009100990E
:1029000081421DD20F4905E0009A521C0092009AA4
:10291000824215D20191019A531E0193002AF3D0ED
:10292000019A531E0193002AEED0019A531E01937F
:10293000002AE9D0019A531E0193002AEBD1E3E764
:1029400002B07047204E000081B014214143009135
:102950000098411E009100280ED00098411E009161
:10296000002809D00098411E0091002804D000984A
:10297000411E00910028EBD101B0704780B500F0F6
:1029800063FE80BD80B5FEF7F7FC80BD04480821DA
:10299000016004480160012080020349086070471B
:1029A00080E200E000E100E048105040F0B583B064
:1029B000374E317800290BD03178012914D15328B2
:1029C00063D134480078344953220A54022707E07F
:1029D00055285AD12F4800782F4955220A540127EB
:1029E0002C480770377050E0317802294DD1294AC0
:1029F00013782949C854581C1070C0B20B2844D110
:102A000008784A7810188D782818CC782218087918
:102A100083184A79D3188F790297FB18CF790197D9
:102A2000FB180F7AFB184F7AFB18DBB2897A002764
:102A30008B42D5D111020818FDF7A0FD0721C90668
:102A40000091FDF7AAFB1549FDF7A7FB14490860A3
:102A500020024019FDF792FD009C2146FDF79DFBE9
:102A60000E4D2946FDF799FB0E49086001980002BA
:102A700002994018FDF782FD2146FDF78EFB29469D
:102A8000FDF78BFB08490860AAE703B0F0BDC0461C
:102A900064002020630020205800202000003443E0
:102AA0004C002020540020207000202088B0FFF728
:102AB0002BFC00F00DFDFEF711FD4B208000FFF711
:102AC0001BFF0027CA4DCB4E3C46CB4800900195DA
:102AD000CA48CB49CB4ACC4BFEF7B8FCE85F31681B
:102AE000081830600820FFF72FFF601C632C044695
:102AF000EBD330686421FDF7DDFDC4490880FFF7A2
:102B000045FFC34802210160012251040160910484
:102B10000160D1040160BF48016811430160BE48F3
:102B2000016811430160BD4801681143016000263E
:102B3000BB4F3446354604960796059249E0012579
:102B4000B84805600793FEF7E1F9B74C2068FDF738
:102B500015FD0246002738463946FFF70FFF60682B
:102B6000FDF70CFD024601213846FFF707FFA0687C
:102B7000FDF704FD024602213846FFF7FFFEE0683C
:102B8000FDF7FCFC024603213846FFF7F7FE2069FB
:102B9000FDF7F4FC024604213846FFF7EFFE6069BA
:102BA000FDF7ECFC024605213846FFF7E7FEA06979
:102BB000FDF7E4FC024606213846FFF7DFFEE06938
:102BC000FDF7DCFC024607213846FFF7D7FE944F9D
:102BD000069C2E46012C049D00DC651CFFF72AFE96
:102BE0002A46924800680146059B594035463143C4
:102BF00000D022460029079B00D10B46012C00DCA7
:102C0000079B022A06923ED0012A74D0002A99D14D
:102C1000002D00D180E1691E4E424E41012813D1A2
:102C2000012D11D11C4638680B2800DC0B20401EFA
:102C30003860FDF7A3FC02465A2001263146FFF713
:102C40009DFE7A4800682346022812D1002E10D03B
:102C50001C463868182800DB1820401C3860FDF737
:102C60008DFC02465A200121FFF788FEF5480068D6
:102C70002346C01E414241413140012900D061E755
:102C8000EE48059D5DE7002D00D1D1E0012812D16D
:102C9000012D10D11C4638680B2800DC0B20401E8B
:102CA0003860FDF76BFC024650200121FFF766FEFD
:102CB000E44800682346022800D0A7E1012D2C46F5
:102CC00011D11E463868182800DB1820401C3860D7
:102CD000FDF754FC0246502001242146FFF74EFE2A
:102CE000D84800683346032802D1012D00D126E7D9
:102CF0000793254627E7002B20D1002420462146B4
:102D0000FEF780FB01212046FEF77CFB02212046D6
:102D1000FEF778FB03212046FEF774FB04212046D2
:102D2000FEF770FB05212046FEF76CFB06212046CE
:102D3000FEF768FB07212046FEF764FB01273846B3
:102D40003946E34AFFF71EFE022538462946E14A86
:102D5000FFF718FED04802685A24204603952946FA
:102D6000FFF70CFE032538462946DBA2FFF70AFED3
:102D7000D048026820462946FFF700FE0721079742
:102D80003846DBA2FFF7FEFDAE4800680328354653
:102D90000FD1002D0DD18020A94908600125042103
:102DA0002846DB4AFFF7EEFD0020A649086007959C
:102DB000C9E602280CD1012D0AD1B7480268D248D1
:102DC000026050200421FFF7D9FD9E4800680225CB
:102DD000032800D0B7E6022D00D0B4E60121CB488D
:102DE00007910160802096490861039DABE6C046CB
:102DF00024002020C40220202200202010002020B7
:102E0000120020201400202020002020C0022020BA
:102E100000E100E0041886400498864004388640AB
:102E20000000202048002020F00220203000202038
:102E300007930C20386001273846394683A2FFF7F4
:102E4000A1FD02253846294686A2FFF79BFD8B4E41
:102E50003068FDF793FB02465A2420462946FFF7C7
:102E60008DFD03253846294685A2FFF78BFD8A484C
:102E7000026820462946FFF781FD04253846294689
:102E800086A2FFF77FFD8B48026820462946FFF7A0
:102E900075FD06213846884AFFF774FD072138463C
:102EA000864AFFF76FFD674800680025022800D1B9
:102EB000B1E0032800D046E6002630463146FEF752
:102EC000A1FA30463946FEF79DFA02213046FEF758
:102ED00099FA032103913046FEF794FA042530460F
:102EE0002946FEF78FFA05213046FEF78BFA0621B8
:102EF0003046FEF787FA072430462146FEF782FA6D
:102F0000384639466E4AFFF73DFD4F480068FDF7E9
:102F100035FB0246502063E00793012738463946C7
:102F20007C4AFFF72FFD0224384621467A4AFFF7F4
:102F300029FD524E3068FDF721FB02465A252846EE
:102F40002146FFF71BFD032438462146734AFFF74D
:102F500019FD5148026828462146FFF70FFD06215A
:102F60003846554AFFF70EFD07213846534AFFF70A
:102F700009FD344800680025022852D0032800D0FB
:102F8000E1E5002630463146FEF73CFA3046394648
:102F9000FEF738FA02213046FEF734FA0321039196
:102FA0003046FEF72FFA042530462946FEF72AFA66
:102FB00005213046FEF726FA06213046FEF722FAB2
:102FC000072430462146FEF71DFA384639463C4A6A
:102FD000FFF7D8FC1C480068FDF7D0FA02465A20DB
:102FE0003946FFF7CBFC38460399364AFFF7CAFC4F
:102FF00038462946344AFFF7C5FC38462146334A4D
:10300000FFF7C0FC0F4806603D469CE52C460328B0
:1030100000D16AE66CE63068012808DC401C07999C
:1030200009E030680428079904DC401C03E0012013
:10303000079900E001203060079184E538002020E6
:1030400090120A4030002020000020204D4F4445BF
:103050005F3420202020202020202020202020201D
:10306000200000004379636C65732020202020201D
:1030700020203A20202020202020000004002020B2
:103080004E6F775F416E676C6520202020203A20CC
:103090002020202020200000500020204E4F575F8D
:1030A000506963747572652020203A20202020200A
:1030B00020200000540020201C4100000841000096
:1030C000424000006E40000084400000C640000006
:1030D000584000009A4000004E4F575F506963749B
:1030E000757265203A20202020202020200000003A
:1030F0004B45593320544F20456E74657220202073
:1031000020202020200000006800202044002020F3
:10311000B04000002C400000DC400000F240000005
:10312000F0B583B0324C2068002807D18D48006884
:1031300030490860FEF788F801202060894800685F
:103140002C490968FDF721F804468A480068FDF714
:1031500015FA2949FDF721F801210191C9078C438E
:1031600002902146FDF711F806462449FDF7C6F9FD
:10317000054678480068FDF701FA0746002D18D18A
:10318000C12001063846FCF7AFFF3146FDF705F8D0
:103190001A49FDF73FF841210E063146FCF7A4FF1E
:1031A00007463146FDF7AAF90028019D02D13746AE
:1031B00000E0019D3846FEF777F8FDF7A7FEFDF722
:1031C000D3FE6D06644E35600D490298FCF78CFF06
:1031D00001462046FDF784F9002807D1FEF77EF866
:1031E00000200349086065490860356103B0F0BDFF
:1031F00034002020D80220200000B4430000F04119
:10320000000040C0F0B581B0264C2068022819D0DB
:1032100001280DD0002843D1234800685449086094
:1032200008682249FDF76AF9002839D10120206099
:103230001F4801684A1C02601E2931DB0021016021
:103240000220206045480068FDF798F94449096864
:1032500000F096F8164801680091491C01609648F4
:103260000068FDF797F904460D460F480068FDF722
:10327000D2F906460F463C4A3C4B20462946FDF70C
:10328000B9F832463B46FDF703F8FDF7D8F938495F
:1032900008600098462803DB012080042E4908605E
:1032A00001B0F0BD3C00202074002020000020412F
:1032B00040002020F0B583B026480068FDF75EF995
:1032C000FDF7F2FFFDF722FEFDF74EFE012042065C
:1032D000214902920A608004019008601F4800683A
:1032E000FDF74CF91E49096800F04AF87248006879
:1032F000FDF750F904460D461A480068FDF78BF9B2
:1033000006460F46184A194B20462946FDF772F823
:1033100032463B46FDF760F8FDF791F91449086025
:103320002D20C1001348006848435030FDF726F9AE
:10333000014611480068FDF7C5F8002807D10F487D
:10334000002101600448029901610199016103B003
:10335000F0BDC0460000202090120A400C00202042
:1033600054002020500020209A9999999999B93FAA
:103370008000202004002020680020203800202029
:10338000F0B581B0FCF701FF04460120C1072046DB
:1033900088433F49FDF7B2F8002806D13D48002197
:1033A00001603D48016001B0F0BD3A4801680091FC
:1033B0000460394D29682046FCF796FE0746374ED3
:1033C0003146FDF7A9F8002800D13E46344F30467B
:1033D0003946FDF785F8002800D137462F6031497E
:1033E0003846FCF7DAFE06462F492046FCF7D5FEA4
:1033F0003146FCF779FE064620460099FCF7C5FEEB
:103400002A49FCF7CAFE3146FCF76EFE0546284CF9
:103410002146FDF781F8002800D12C46254D204695
:103420002946FDF75DF8002800D125462846FDF71E
:10343000C5F8214909680D182048854200DB05467A
:103440001F48854200DC05462846FDF797F80446EC
:103450001C4F3E68002D054600D135460021304600
:10346000FDF768F8002800D1354617492846FCF7D3
:1034700094FE054615492046FCF78FFE2946FCF7C9
:1034800033FE3860FDF79AF80B49086001B0F0BDD3
:1034900000004040E4022020C80220200000A0409C
:1034A0000000A0C0CDCCCC3D8FC2F53DAE47613E03
:1034B00000007041000070C11003202018150000AA
:1034C000E8EAFFFF9C0020209A99193FCDCCCC3E22
:1034D000B0B5FFF74FF864250B4C2046FDF764FAB2
:1034E0006D1E2804F9D1022000F010F8FDF76AFCE7
:1034F0007D2085002046FDF757FA6D1E2804F9D17E
:103500000020FEF7F5FAB0BD80380100F0B581B0BB
:1035100004464048002606803F4804703F48068025
:103520003F48012101703F4801703F4806703F4805
:1035300001703F48802707803E4801703E48402583
:1035400005803E480670F0433D4908803D490880AB
:10355000AE20FEF759FBD520FEF756FB3846FEF7A6
:1035600053FBA820FEF750FB3F20FEF74DFBD32076
:10357000FEF74AFB3046FEF747FB2846FEF744FBC2
:103580008D20FEF741FB012C01D0142000E010201B
:10359000FEF73AFB2020FEF737FB3046FEF734FB00
:1035A000A1263046FEF730FBC8273846FEF72CFB35
:1035B000DA20FEF729FB1220FEF726FB8120FEF71A
:1035C00023FB012C01D0CF2000E09F20FEF71CFB45
:1035D000D920FEF719FB012C01D0F12000E02220B8
:1035E000FEF712FBDB20FEF70FFB2846FEF70CFB75
:1035F000A420FEF709FBA620FEF706FB3046FEF7E7
:1036000003FB3846FEF700FBAF20FEF7FDFA01B0E2
:10361000F0BDC0468A0020207C0020208C002020A5
:10362000180320201A032020780020206C0020207E
:103630007E002020260020207A002020EC0220207E
:103640001403202016032020F0B589B017460C463D
:103650000546002110460491FCF750FF0028039412
:103660000AD105A82D22027028462146FDF754FEF6
:103670000120C0074740AD1D02953846FCF79EFF6C
:103680000446FCF77BFF01463846FCF77EFD0190BF
:103690009648984A9849994D994FBC4203DAAC42F2
:1036A0001DDD049F0DE096492046FCF7E4FF302124
:1036B00002460A4305AB1A704743E41BAC4215D9D6
:1036C000012791492046FCF7D6FF05A9C9190246F2
:1036D00030320A70691C4143641A7D1C09E08C4237
:1036E00000DCE2E00F460025019E06E005A84170DF
:1036F0000225019E804FBC420CD984492046FCF72C
:10370000BAFF05A94919024630320A70791C4143B3
:10371000641A03E005A84019302101707548374646
:103720006E1C84420DD9054679492046FCF7A3FF5B
:103730000146303105AA9155691C4143641A751C34
:1037400003E005A830218155AD1C694EB4420BD968
:1037500070492046FCF78FFF0146303105AA5155CC
:10376000711C4143641A02E005A8302141555F48AD
:103770006E1C84420DD9054667492046FCF77BFF45
:103780000146303105AA9155691C4143641A701CE9
:1037900003E005A830218155A81CE1087C290ED939
:1037A000A1B2C9085D4A4A43110D0A46303205AB41
:1037B0001A547D22D2004A43A11A8CB202E005A914
:1037C00030220A54411C632C10D9A0B28008544AFC
:1037D0004243500C0246303205AB5A5464224243F5
:1037E000A01A84B24E1C092C06D812E005AA302378
:1037F0005354861C092C0CD9E0B2CD214143C80A90
:103800000146303105AA91550A214143601AC4B2DC
:1038100002E005A830218155761CF5B2303405A8A8
:10382000445540493846FCF75BFE002803D030463B
:103830000399029D2FE005A82D182E2068703A49A3
:103840003846FCF7AAFCFCF7B9FE04466427394663
:10385000FCF730FF47433030A870E11BF01C012912
:1038600010DBCAB2CD235343DA0A13463033C0B259
:1038700005AC23540A205043081A3024044303990A
:10388000029D04E000290399029D04D43024301DD8
:10389000C2B205AB9C54C0B205AA8018049B437009
:1038A000E8B2FDF769FD09B0F0BD944203DD1546AD
:1038B0000026019F38E70E4EB44202DD0025019F2D
:1038C00046E7844203DD05460026019F54E70D4884
:1038D000844202DD0020019F62E7642C019F01DB2E
:1038E000002172E700260A2C86DA96E70F270000EF
:1038F0009F8601003F420F007F969800FFE0F5058C
:1039000000CA9A3BE703000000E1F50580969800A5
:1039100040420F00A086010010270000C5200000D3
:103920007B14000017B7D13800007A442021020C24
:1039300001D010211046020A01D0104608390209B0
:1039400001D01046091F820801D01046891E420886
:1039500001D0881E7047081A704700000000000060
:1039600002E008C8121F08C1002AFAD170470000FF
:103970007047000000000000002001E001C1121F9C
:10398000002AFBD170470000000000000000002F5B
:10399000000000000700070000147F147F140024BB
:1039A0002A7F2A12006264081323003649552250E8
:1039B00000000503000000001C224100000041221D
:1039C0001C000014083E08140008083E0808000007
:1039D00000A06000000808080808000060600000FF
:1039E000002010080402003E5149453E0000427F7D
:1039F0004000004261514946002141454B310018C9
:103A000014127F10002745454539003C4A4949308A
:103A10000001710905030036494949360006494944
:103A2000291E00003636000000005636000000084F
:103A3000142241000014141414140000412214082C
:103A400000020151090600324959513E007C121111
:103A5000127C007F49494936003E41414122007FA6
:103A60004141221C007F49494941007F0909090160
:103A7000003E4149497A007F0808087F0000417FE5
:103A80004100002040413F01007F08142241007F97
:103A900040404040007F020C027F007F0408107FFE
:103AA000003E4141413E007F09090906003E415167
:103AB000215E007F09192946004649494931000124
:103AC000017F0101003F4040403F001F2040201F78
:103AD000003F4038403F006314081463000708703B
:103AE000080700615149454300007F4141000055EE
:103AF0002A552A55000041417F00000402010204BA
:103B000000404040404000000102040000205454A6
:103B10005478007F484444380038444444200038F6
:103B20004444487F00385454541800087E09010268
:103B30000018A4A4A47C007F080404780000447D3D
:103B40004000004080847D00007F10284400000079
:103B5000417F4000007C04180478007C080404784D
:103B600000384444443800FC242424180018242439
:103B700018FC007C08040408004854545420000435
:103B80003F444020003C4040207C001C2040201C42
:103B9000003C4030403C004428102844001CA0A0B9
:103BA000A07C004464544C441414141414140000F5
:103BB0000000000000000000000000000000000005
:103BC00000000000000000000000000000000000F5
:103BD00000000000000000000000008080C0E0E065
:103BE000F0F0F0F878783C3C3C3C1C1C1C1C1C1C85
:103BF0001C1C1C181818303030606040C080000059
:103C000000000000000000000000000000000000B4
:103C100000000000000000000000000000000000A4
:103C20000000000000000000000000000000000094
:103C30000000000000000000000000000000000084
:103C40000000000000000000000000000000000074
:103C500000000080C0E0F8FCFEFE3F1F0F070703D6
:103C60000101000000000000000000000000000052
:103C70000000000000000000000000000000193CEF
:103C80007E7E3C18000000000000000000000000E4
:103C90000000000000000000000000000000000024
:103CA0000000000000000000000000000000000014
:103CB0000000000000000000000000000000000004
:103CC0000000000000000000000000000000008074
:103CD000E0FCFEFFFF3F0F03010000000103071F90
:103CE0003F7F7F7F7F7F7F7F7F7F7F3F7F7F7EFEE6
:103CF000FCFCF8F0000000000000C0F8FFFFFFFF30
:103D0000FFFFFF1F07000000000000000000000090
:103D100000000000000000000000000000000000A3
:103D20000000000000000000000000000000000093
:103D30000000000000000000000000000000000083
:103D40000000000000000000000000000000F0FF84
:103D5000FFFFFF1F01000000000000000000000046
:103D60000080E0F8FEFFFFFFFF7F1F0F7EFCF0806A
:103D700001070F1F000080E0F8FFFFFFFFFFFFFFBC
:103D80003F07000000000000F000000000000000FD
:103D90000000000000000000000000000000000023
:103DA0000000000000000000000000000000000013
:103DB0000000000000000000000000000000000003
:103DC00000000000000000000000000000001FFFD5
:103DD000FFFFFFC0FFF88000000000000000E0F8D7
:103DE000FEFFFFFFFFFF1F070100000000031FFF92
:103DF000F8C000C0F0FCFFFFFFFFFFFFFF1F070040
:103E0000000000000000E0FF3F0000000000000094
:103E100000000000000000000000000000000000A2
:103E20000000000000000000000000000000000092
:103E30000000000000000000000000000000000082
:103E40000000000000000000000000000000000171
:103E50000F3FFFFFFCEFBFFEF8F0C09034F7FFFF0D
:103E6000FFFFFFFFFF7C7C7C7C7C7C7C7C7C7C7C03
:103E70007D7F7F7FFFFFFFFFFFFFF3F1F0F0E0E0CA
:103E8000E0C0E0F0FC7F1F03000000000000000025
:103E90000000000000000000000000000000000022
:103EA0000000000000000000000000000000000012
:103EB0000000000000000000000000000000000002
:103EC000000000000000000020301018080C0E0652
:103ED00007070703070F1F3E7DF7EFDFBF7EFCF8E4
:103EE000F0F0E0C0C0808080000000000000000012
:103EF000008080C0C0C0E0E0E0707078B9BDDFDF56
:103F00006F37170B0303070706040C08181000008F
:103F100000000000000000000000000000000000A1
:103F20000000000000000000000000000000000091
:103F30000000000000000000000000000000000081
:103F40000000000000000000000000000000000071
:103F50000000000000000000000001010307060F40
:103F60000D1B1B17373F2F2F3F1F1F1E1E1E1E1E10
:103F70001E1E1E1E1E1E0E0E0F070703030101004C
:103F80000000000000000000000000000000000031
:103F90000000000000000000000000000000000021
:103FA0000000000000000000000000000000080009
:103FB00000000000007D0000000100000300000080
:103FC00000000000000000004000000000000000B1
:103FD00000000000020000000900000001000000D5
:103FE0002C00C44104030000204E0000000001002A
:103FF0000800FF0002000000700200000100000045
:104000000000000000000000080000001800000090
:104010000030000004000000180000000030000024
:104020000800000018000000003000004D4F44451B
:104030005F31202020202020202020202020202030
:1040400020005350454544203A20202020202020A5
:1040500020202020202020004D4F44455F325F3338
:1040600020202020202020202020202020004B4520
:10407000595F315F544F5F5355422020202020204C
:10408000202020004B45595F325F544F5F4144442C
:10409000202020202020202020004E4F575F416EFE
:1040A000676C652020203A2020202020202020003E
:1040B0004B4559325F5265636F7264203A2020206D
:1040C0002020202020004B45595F335F544F5F5321
:1040D0005441525420202020202020004379636C3A
:1040E000657320202020202020203A20202020201E
:1040F00020004E6F775F416E676C65202020202086
:104100003A202020202020004B455933205345548D
:104110002053504545442021212120004B45593250
:10412000205345542054494D45532021212120003E
:104130005041000000002020100000006039000005
:1041400060410000100020201013000078390000AA
:104150000E00000001000000000060415E01000050
:04000005000000C136
:00000001FF
