:020000040000FA
:10000000280320208D0100009101000093010000D1
:1000100000000000000000000000000000000000E0
:10002000000000000000000000000000950100003A
:10003000000000000000000097010000990100008E
:100040009B010000091400009B0100003922000000
:100050009B0100009B0100009B0100009B01000030
:10006000000000009B0100009B0100000000000058
:10007000000000009B0100009B0100009B010000AC
:100080009B010000212200009B0100009B01000059
:100090009B0100009B010000000000000000000028
:1000A0009B0100009B010000000000000000000018
:1000B0009B010000000000009B0100009B0100006C
:1000C00000F002F800F052F812A030C808382418E6
:1000D0002D18AC4201D100F049F80FCCA246AB4636
:1000E0000CA730CF2D1B083F3F197C427F1E544484
:1000F0002D090426F441641EAC4201D300F036F809
:100100000126334200D0FB1A3343984754465D46DC
:10011000DFE70000CC450000EC45000000000000D7
:10012000103A02D378C878C1FAD8520701D330C840
:1001300030C101D504680C60704700000000000069
:100140007047000000000000002300240025002666
:10015000103A01D378C1FBD8520700D330C100D583
:100160000B6070471FB51FBD10B510BD00F0F6FE47
:100170001146FFF7F7FF02F069FB00F00EFF03B432
:10018000FFF7F2FF03BC00F05FFF000006480047E6
:10019000FEE7FEE7FEE7FEE7FEE7FEE70348044969
:1001A000024A044B70470000C100000028022020D2
:1001B0002803202028022020704770477047000045
:1001C0000246C80FC00781434B0030B54B405B006F
:1001D0009B0D20D01923DB06C91801231B0599426A
:1001E00020DB0324A40704251346AB400BD3002BCC
:1001F00004D1EB0613409B00E34204D401246407BE
:10020000002312195941FF231B0599420BD2C90043
:100210000143500F09E0CB0204D501430803024318
:1002200005D0054830BDFF21C905084330BD08464B
:1002300007210905884330BD0000C07FF0B50C469A
:10024000871A9C410D46861A9D4103D2C01BA141CD
:10025000D21963410D0D1F0DC94EEC1BAE435CD08E
:100260007F057F0D0026002F51D02D05AC46A943F8
:10027000DD020123ED0A1B051D4320231B1B24D493
:100280001746E740381871412F46E740CC199D408A
:100290002818314661410C0D27D161449A4013D58D
:1002A0000023401C594152000ED140084000012259
:1002B0004B005205D34207D305204007C14201D568
:1002C000B04900E0B0493046F0BD6B00002A00D0D4
:1002D00001229A181F23203C1B1B01D5002302E09A
:1002E000E540281871410C0DD7D0012424050919C7
:1002F000C407CD0740084908E40F28436144002C97
:10030000D5D00024401C61419A40D0D1CDE76A0588
:10031000520DD9D1C90FC907D5E79C4D4E00002811
:1003200001D0012400E0002434195F00002A01D02C
:10033000012600E00026BE19954FAC420CD8AE4213
:100340000AD8B44206D001256D05EC42BCD0104657
:100350001946F0BD9942FCD000203946F0BDF0B5F9
:100360001FB40C460F46811A9F412546861A9D41AF
:1003700006D20125ED076F40401ABC4152187B415F
:10038000210D1E0D8D1BAC467D4D8D437ED0750518
:100390006D0D7CD00D05AE46AC431B031B0B794D98
:1003A00052429D41202366469B1B14D31746F740BB
:1003B000381800260090744160462F460741E41922
:1003C00000989D402818664116D4714671189A40CD
:1003D00025D5012320E093182A466A415200002BBC
:1003E00000D0521C1E23203E9B1B002B61DD35419B
:1003F000EE1728186641E8D5001876415B1C9A4034
:1004000000D3401C4B05F3181524E34010D3002BF8
:1004100052D071467118D30FC01802D3491C05B0D1
:10042000F0BD0123DB079A42F9D140084000F6E70E
:1004300001225205B21801D1002853D00123CC0A61
:10044000DB029943891E002A08D1020C03D0020C5A
:100450000004103902E00246002020390023550B29
:1004600005D112020823550B01D152010D23550C61
:1004700001D112011B1DD50C01D192009B1C150D41
:1004800001D152005B1C2025EE1A01E02CE022E095
:100490000546F54015439840CA1AE1076918130547
:1004A000C918002ABBDA032040070818C10FC90782
:1004B0000FE071466118B2E7F10740080843711078
:1004C00071444A000CD001235B059A42A7D2C90FA0
:1004D000C9070020A3E74905490D26D1002001E006
:1004E0000028F4D100219AE7284D6600002801D0A9
:1004F000012100E0002171185F00002A01D00126CF
:1005000000E00026BE19224FA94210D8AE420ED8F4
:10051000B14208D001256D05E94206D01946A8026E
:10052000414010467BE79C4201D0214677E70020FE
:10053000394674E710B50C465C4005D50124E40744
:100540006340FFF70CFF10BDFFF778FE10BD30B41D
:100550000C465C4004D50124E407634030BC6DE6E2
:1005600030BCFCE670B50124E40761400D465D40F7
:1005700002D4FFF763FE70BD6340FFF7F0FE70BD6D
:10058000FF0700000000F0FF0000F07F0000E0FF28
:100590000000F87FF0B58B4C0F09254689B0BD43AC
:1005A0007BD01D092646AE43FAD00E465E4027405A
:1005B000F60F3E43254071D024012142FBD0FF2499
:1005C000AD19A4042D1B039501252D05DB02DB0AC3
:1005D000C9022B43C90A29431E010901040F130F45
:1005E000050121431701880B820391432D098C4695
:1005F000A90B1E438A039543B30B9A0396433F0905
:10060000BA0B9403A74302962E467E430497B64640
:100610004E19D7190C460196544305977E43371B54
:100620007646BF1B3601B646BE0B36190096764697
:10063000BC043719009C01D3641C00946400002F93
:1006400001D001263443029E049F754366467E43D3
:100650000496760034196E0034190094029C019EB1
:100660001C196643751BAE46069465464519059CE4
:1006700005956C43594375460891691A0191049E8A
:1006800001465143A41B0491611A009C0791E106A5
:1006900005D061090122114302E072E06EE06109B8
:1006A000089D00272C0A2D066918049D7C412A0A02
:1006B0002D066918019D6241AC0DAD026D185441C3
:1006C000079A910D920255196141029A6446584366
:1006D0005443069B059A5A43121A131B9A0E9B0108
:1006E0005B187A41010B0005C3185141220A20060C
:1006F00044195A419A4200D2491C012040028142C9
:1007000003D315230226F64302E014230326F643FF
:100710002020C51AA9401746AF40DA400A432046B8
:100720000399D8400914731819055118039A3843CE
:10073000D2075140AC4009D00122944006D3002298
:10074000401C5141002C01D1400840001E4A9342F8
:1007500012D3012203989206904207DB052040073E
:1007600009181A480143C012414004E00320400721
:100770000818C10FC907002009B0F0BD0020F1071B
:10078000FAE705180C464C4111486D42A04115D3BB
:1007900094181A465A410E48644290410ED30120E3
:1007A0004A004005824209D35A00824206D359408A
:1007B000C90F084AC90700201143DDE70020064998
:1007C000DAE700000000FF07FE070000FFFFFF7FE1
:1007D0000000E0FF0000F07F0000F87F0121C90564
:1007E0000123411842001B06D3185B0E0AD0C1102A
:1007F0000722D206891840075242D14201D5520041
:1008000089187047090208D50146002A03D0C10F94
:10081000C9070020704710467047420202D00020EE
:1008200002497047072109050143F4E70000F87FFA
:1008300010B501469E240002CA15A307002A02D063
:100840001843002A04DBA21A002A0CDDD04010BD98
:100850001206120E01D140004008A21A03D4D04063
:1008600040420028F3DDFF2248001206904201D9E1
:10087000002010BDC817C043584010BD0102C2156A
:1008800004D00123DB071943002A0ADB9E239A1AAE
:1008900002D40846D0407047FF2241001206914220
:1008A00001D900207047C017C04370471F22030CB6
:1008B00002D10F2200041CD0030E01D10002083A1D
:1008C000030F01D10001121F830F01D18000921E7E
:1008D000002801DB4000521ED205511802125118A7
:1008E0001922904004D3491C002801D1490849002D
:1008F00008467047C10FC90700D040420122920745
:100900001143D3E701218907D0E710B500F0C8F8FB
:10091000006810BD10B5044600F0C2F8046010BDB8
:10092000F0B55B4E0C093546A54377D01D09374617
:10093000AF4373D0354034402F46002901DA0526F5
:100940003543002F6BD0534E314269D0DE02012374
:10095000C9021B05C90AF60A19431E431B11AC46FE
:10096000EB1A9C4246DD01273F04E51B801AAC468A
:10097000B14105D50D4600214042A94101256B40FA
:10098000CD022D0F05D0CD02EBD400184941E41B58
:10099000F9E749004908050B0D4303D1052500057A
:1009A000AD04641B002904D1010B05250005AD042D
:1009B000641B00254F0901D1090410254F0B01D1FB
:1009C000090208354F0C01D109012D1DCF0C01D1B1
:1009D0008900AD1C0F0D01D149006D1C2F04E41BD3
:1009E0000746AF40BE4620277D1BE8400143AC468A
:1009F0007046B6E74D00054329D025141F14BD42AB
:100A000016DB05460F46554077403D4309D00D465D
:100A1000871AB5410CD392187641A4E719E034E067
:100A20002FE06246120C250C954201D10122534061
:100A300001252D04621B12018918DA075140AC42CE
:100A400022DA032040070818C10FC9071BE0580726
:100A5000FAE706180D464D410F4C7642AC4114D3CF
:100A600094185B410C4A64429A410ED30A0DD2435A
:100A700052050AD001235B05DA4205D34A0002433E
:100A800002D0C90FC9070020F0BD00200349F0BD06
:100A90000000FF070000F07F0000E0FF0000F87F8B
:100AA0000048704740002020F0B5F94D0C091E09A0
:100AB0002C402E402F468BB0A7437DD0B543FCD0B1
:100AC000002E7AD0002CFCD00D465D40ED0F254362
:100AD000AC1BFF25AD0464190894C502440DC9027E
:100AE0002143500DDC0204430120C00701430443AD
:100AF000D2020191200C110C00958C460104234672
:100B00008B430A9161460904E24D8A430991010A27
:100B10007D4449198039097805464D4301266D18F1
:100B2000F605751B6943C90C640B891C4C4364189A
:100B3000B5012C1B250C2E04B4434C434D43210C12
:100B4000691889090591009DE90701D00121C907AC
:100B500004912C4601996708CD072F434C08059D49
:100B6000E10B4D432D0C29466646754302950D4613
:100B700045432E46029D7D1BB44100950D465D43C5
:100B800001942C0C2F040D465543AE462D0C3D43CD
:100B9000029503947546049C2D04641B049406D2AC
:100BA000029C039D641C002675410395029401ACD0
:100BB00070CC009F7D1B01E03EE162E1B44109047D
:100BC0000095079101940599A4086143090C0C460E
:100BD0004443650BE7040C4666467443A646640B23
:100BE0003C43039502947446049DE4042C1B049436
:100BF00006D2029C039D641C002675410395029455
:100C000001AC70CC009F7D1BB44101940C465C4349
:100C10000095650FE7000C465443A646640F3C431D
:100C2000039502947446049DE4002C1B049406D2A0
:100C3000029C039D641C002675410395029401AC3F
:100C400070CC009F7D1BB441AE09AF06049DC90066
:100C5000AD092F43049DA406AD060495079D3443BA
:100C600069180791059DE10B4D432D0C29466646F9
:100C7000754302950D4645432E46029D7D1BB441AA
:100C800000950D465D4301942C0C2F040D465543F1
:100C9000AE462D0C3D43029503947546049C2D04ED
:100CA000641B049406D2029C039D641C00267541BB
:100CB0000395029401AC70CC009F7D1BB44101945C
:100CC0008C050694079C890A611800950791019C80
:100CD0000599A4086143090C0D464543680BEF04D0
:100CE0000D46644665436C0B3C43049FED047D1B3D
:100CF000AC4602D20025641C6841009E019D371B52
:100D000085410846584301950C46460FC50054439B
:100D1000600F28436546E4002C1B02D20025401CCE
:100D20006E41019D3F1AB5412846BD098006284302
:100D30008446A009BF064E020699A406761807430A
:100D4000079D002068410A99079019430020099BDC
:100D500000906046FF1913434041E20F64003A439C
:100D6000A4460446D71A8C41A04203D90120009022
:100D700020463A46C70F941840416246D20F22439C
:100D8000644664000494009CBE466400D71AA446DE
:100D9000044602978C417746002F01D1A04204D926
:100DA0006046401C8446029A2046C40FA64694180A
:100DB0004041049A0546D20F224364466400D31A88
:100DC0008D417146002901D1A84202D928461A4610
:100DD000641C10430122002800D016436102002049
:100DE000079B891904465C410223002C02DB491849
:100DF00013466441089DCE0A2D145D194B05670505
:100E0000E10A2C050D1908993E43C9076940002BDA
:100E100008D0934006D30022761C5141002B01D10B
:100E2000760876001C4A002D43DB154241D0AA43C8
:100E30003FD030460BB0F0BD06180D464D41174C63
:100E40007642AC411AD395181C465C41134A6D4258
:100E5000A24113D3012252054C00D4420AD15C00B6
:100E6000D4420BD04B4002D592021143E2E7490035
:100E70004908DFE75940C90FC90718E000200849B1
:100E8000D8E7054801420DD10342F7D0F2E7000050
:100E90000000FF07F03400000000F07F0000E0FFDA
:100EA0000000F87F114859400143C0124140002022
:100EB000C0E70123089A9B069A4205DC03225207E9
:100EC0008918C90FC907B5E7052252078918074ACB
:100ED0001143D2125140ADE770B515461C4602468B
:100EE0000B4628462146FFF7DFFD70BDFFFFFF7F61
:100EF00010B5FF231B0644009C421DD84C009C42A9
:100F00001AD80346124A0B4307D4401A02D3EFF310
:100F1000008010BDEFF3008010BD081A03D3EFF37B
:100F20000080904305E0EFF3008001219043C90762
:100F3000084380F3008810BD0D231B041A4204D01F
:100F40001146002000F031F810BD00F045F810BD4A
:100F50000000009000487047400020207546FFF7D1
:100F6000F9FFAE46050069465346C008C0008546F5
:100F700018B020B5FFF712F960BCB646002600276E
:100F8000C0C5C0C5C0C5C0C5C0C5C0C5C0C5C0C539
:100F9000403D490849008D46704710B50446C0469B
:100FA000C0462046FFF7EBF810BDC80212D5480333
:100FB000400F002804D0C803C04301218840704777
:100FC000EFF300800001000903210907084380F3C3
:100FD000008870470020704710B5024800F004F800
:100FE00010BD00000000C07F10B50C461107090FAE
:100FF000092904D00A290AD008290CD104E0114695
:101000000820FFF7D2FF06E0510606D501E05106A1
:1010100001D50120C007214610BDD10607D5010129
:101020000909CC084907000E0006044309E0410FF6
:1010300020024907000A0143200E00061D22D1416B
:1010400001430846E7E7000001491820ABBEFEE770
:10105000260002007047811E091F00BFFCD27047A6
:10106000F0B5664A8218294BC318087920280DD09C
:1010700000281DD10C68641E5460D56E244C254098
:101080008835D5661646703688251DE00C68641EC6
:101090005460D46E1E4D2C401E4EA419D466146F9D
:1010A0002C40A4191467012465071B4C16460BE05D
:1010B0000C6864085460D66E154C26400525ED0179
:1010C0007619D66616467036376827402F43376044
:1010D000D46A4C4D2C40D462146B2C401463002411
:1010E000D46414658F24E443D56F2540D5671D680B
:1010F00025401D6049790143BD2008401168074B18
:101100000B40C018801C1060F0BDC0468418000061
:1011100024493E0001040000FFFFFFCF4000FFCF45
:10112000B0B5364A80184A6842600A78222A57D8F1
:10113000930001A4E3589F46D7110000E11100007D
:10114000D7110000E1110000E1110000E1110000E1
:10115000E1110000E1110000E1110000E1110000C7
:10116000E1110000E1110000E1110000E1110000B7
:10117000E1110000E1110000C5110000E1110000C3
:10118000C5110000E1110000E1110000E1110000B3
:10119000E1110000E1110000E1110000E111000087
:1011A000E1110000E1110000E1110000E111000077
:1011B000E1110000E1110000C5110000E111000083
:1011C000C511000003231B0704689C4301235B0730
:1011D000E318036004E003231B0704689C430460D6
:1011E0000B8AC360CB68064C1C40C36A054D1D408A
:1011F0002B19C362097A11430160B0BD04180000C5
:10120000777702008888FDFF10B507239B041940FB
:1012100092008018024A84589C436118815010BD86
:101220003018000010B5029CA400001911431943A6
:10123000014A815010BDC04650180000920080182D
:10124000014A81507047C0461018000010B50122B5
:10125000120383180C789C604B7883508978014A7C
:10126000815010BD0C110000B0B51122120283583C
:101270000124A34383508B780C881C438B88234321
:10128000094C1C408358094D1D402B1983508B7904
:10129000CC791C43097A21437E2319408018426887
:1012A0009A4351184160B0BD18670000E798FDFFF0
:1012B00010B50122120383180C789C604978815084
:1012C00010BD000070B5B02000F0AAFC102000F0A6
:1012D000A7FC012000F0A4FC0025484C605D00F054
:1012E0006BFD6D1C802DF9D1B12000F099FC102010
:1012F00000F096FC012000F093FC8025605D00F07A
:101300005BFD6D1C2806F9D1B22000F089FC10208D
:1013100000F086FC012000F083FCFF2502352E46FC
:10132000A019401E007800F047FD701CF1B2802922
:101330000646F5D1B32000F073FC102000F070FCDD
:10134000012000F06DFC80356019401E007800F02F
:1013500033FD681C29060546F6D1B42000F060FC78
:10136000102000F05DFC012000F05AFC244D2E46B8
:10137000A019401E007800F01FFD701CF1B28029FA
:101380000646F5D1B52000F04BFC102000F048FCDB
:10139000012000F045FC80356019401E007800F007
:1013A0000BFD681C29060546F6D1B62000F038FC76
:1013B000102000F035FC012000F032FC114D2E46CB
:1013C000A019401E007800F0F7FC701CF1B28029D3
:1013D0000646F5D1B72000F023FC102000F020FCD9
:1013E000012000F01DFC80356019401E007800F0DF
:1013F000E3FC681C29060546F6D170BDAC4200002E
:101400000102000001030000F0B522480146103936
:101410000A68214915460D40204B1D600124D30167
:101420001F4B0BD46D0E15D026061F681D4D2D6861
:10143000374208D06D1E0024E44305E01E68194DB4
:101440002D68B601F6D56D1C164E3560164D2E680A
:1014500034192C600124D5030BD4520215D5250470
:101460001B68124A12682B4208D0521E0023DC432C
:1014700005E01B680D4A12685B02F6D5521C0B4B47
:101480001A600B4A13681B19136002680A43026052
:10149000F0BDC04648100A4000004103040220206D
:1014A00080130A404C0120205401202050012020AC
:1014B00058012020114801688906CA0FBA490A60FC
:1014C00002685206D20F4A6002681206D20F8A6082
:1014D0000268D205D20FCA6002689205D20F0A6173
:1014E00002685205D20F4A6102681205D20F8A6162
:1014F0000068C004C00FC8617047C04680330A400E
:10150000F0B581B0A848C169002903D17F21C90580
:101510004B4A11608169002906D1C169002903D1B4
:101520007F21C905464A11608169002903D13F2105
:101530000906434A11604169002906D181690029E1
:1015400003D13F2109063E4A11604169002902D1B9
:101550003B4900220A600169002905D1416900293F
:1015600002D13749924A0A600169002902D13449FF
:101570008F4A0A60C168002906D10169002903D198
:10158000032189072E4A1160C168002903D1032174
:1015900089072B4A11608168002906D1C16800299A
:1015A00003D103218907264A11608168002902D1ED
:1015B0002349244A0A604168002905D1816800292D
:1015C00002D11F49204A0A604168002902D11C4902
:1015D0001E4A0A600168002905D14168002902D12C
:1015E00017491B4A0A600068002802D114481949AB
:1015F0000160134C2068184D296802F09BFC174EBF
:101600003060206821682960FFF7E8F804460D463D
:1016100030686E4902F036FCFFF7E0F806460F46E8
:101620006B4A6C4B20462946FEF7B4FF32463B46D8
:10163000FEF780FFFEF7C4FD0949086001B0F0BD68
:1016400044012020000040C0000080C00000A0C075
:101650000000C0C00000E0C0080220203C012020A3
:1016600030012020F0B581B04F480168002902D137
:101670004E494F4A0A600168002905D14168002996
:1016800002D14A494A4A0A604168002903D1BF2170
:101690000906464A11604168002906D1816800297F
:1016A00003D1BF210906414A11608168002902D196
:1016B0003E4900220A608168002906D1C1680029DC
:1016C00003D17F21C905394A1160C168002903D1BE
:1016D0007F21C905354A1160C168002906D1016919
:1016E000002903D101218907304A116001690029CD
:1016F00003D1012189072D4A11600169002906D112
:101700004169002903D101218907284A11604169F3
:10171000002902D12549274A0A604169002906D1DA
:101720008169002903D18121C905204A116081699D
:10173000002902D11D49204A0A608169002905D18A
:10174000C169002902D119491C4A0A60C0690028F0
:1017500002D116481A490160144C2068194D2968B5
:1017600002F0E8FB184E3060206821682960FFF71E
:1017700035F804460D463068144902F083FBFFF744
:101780002DF806460F46124A124B20462946FEF710
:1017900001FF32463B46FEF7CDFEFEF711FD0E4936
:1017A000086001B0F0BDC0461C0020204801202088
:1017B000000080BF000040400000A0400000C0408A
:1017C0000000E0400C022020400120200000A04248
:1017D000CDCCCCCCCCCC044034012020B0B51446C8
:1017E00005467E2800D9491C5039C8B200F018FAC5
:1017F0007E2D00D900252809103000F011FA0E20A6
:101800002840401C00F00CFA203CE0B2062444437F
:101810002C4D285D00F0D0FA2C19607800F0CCFA3D
:10182000A07800F0C9FAE07800F0C6FA207900F05C
:10183000C3FA607900F0C0FAB0BDC046F0B583B01D
:1018400001921478002C3AD00646002729E0F0B225
:101850000009103000F0E4F90E203040401C00F088
:10186000DFF9203CE0B206244443164D285D00F029
:10187000A3FA2C19607800F09FFAA07800F09CFA87
:10188000E07800F099FA207900F096FA607900F09B
:1018900093FAB61D7F1CF8B201990C5C002C0299DA
:1018A0000DD0F5B27E2D00D9491C02910846503862
:1018B000C0B200F0B5F97E2DC9D90026C7E703B044
:1018C000F0BDC04684400000F0B583B0774D784845
:1018D00028607D20C005774908607749774808600F
:1018E00077480068FFF706F8764908607648006890
:1018F000096802F01FFB754F3C6838603868744E09
:10190000316802F0FBF93060724804602C683D6871
:1019100068480068316802F0B5FA06462046294654
:1019200002F0B0FA314602F0E9F90446624805686F
:1019300038686849096802F0FDFA0146284602F055
:10194000A1FA214602F0DAF9634D28602868634C59
:10195000214602F07EF9002800D12C602868604CF6
:10196000214602F053F9002800D12C605D48006840
:10197000FEF7C0FF5C4908605C480068096802F037
:10198000D9FA5B4F3C68386038685A4E316802F0CB
:10199000B5F9306058480460444804683D684548DB
:1019A0000068316802F06EFA06462046294602F0C9
:1019B00069FA314602F0A2F904463F4805683868E2
:1019C0004D49096802F0B6FA0146284602F05AFA73
:1019D000214602F093F9494E306030683F4C214671
:1019E00002F037F9002800D1346030683C4C2146C1
:1019F00002F00CF90028384D00D134602E68002424
:101A00003046214602F00DF901210291CA072968EA
:101A10000028019200D151403948016030462146EA
:101A200002F0FFF8102708250028384600D1284684
:101A3000E04908603046214602F0F3F8002800D162
:101A40003D46DC4805612D4D2E683046214602F0AA
:101A5000E8F82968002801D101984140294801602F
:101A60003046214602F0DDF8202740250028384680
:101A700000D12846CF4908603046214602F0D1F80F
:101A8000002800D13D46CB4805611D48006821462D
:101A900000F0AEFB1B480068029900F0A9FB084863
:101AA00004601048046003B0F0BDC046D800202098
:101AB000CDCC4C3ED4002020D0002020CDCC4C3DBD
:101AC0004C012020A00020200C012020AC00202070
:101AD000C4002020B4002020080020200000C842BC
:101AE0000000C8C250012020A400202010012020A6
:101AF000BC002020C8002020C00020200C00202096
:101B0000FC00202000012020B0B50446B02000F0E9
:101B100087F8012000F084F8102000F081F80025FB
:101B2000204600F049F9681C45B2002DF8D5B120D7
:101B300000F076F8012000F073F8102000F070F843
:101B40000025204600F038F9681C45B2002DF8D574
:101B5000B22000F065F8012000F062F8102000F0DB
:101B60005FF80025204600F027F9681C45B2002DDB
:101B7000F8D5B32000F054F8012000F051F81020FF
:101B800000F04EF80025204600F016F9681C45B21A
:101B9000002DF8D5B42000F043F8012000F040F803
:101BA000102000F03DF80025204600F005F9681CE3
:101BB00045B2002DF8D5B52000F032F8012000F034
:101BC0002FF8102000F02CF80025204600F0F4F843
:101BD000681C45B2002DF8D5B62000F021F8012090
:101BE00000F01EF8102000F01BF80025204600F041
:101BF000E3F8681C45B2002DF8D5B72000F010F8C6
:101C0000012000F00DF8102000F00AF80025204611
:101C100000F0D2F8681C45B2002DF8D5B0BD000028
:101C2000F0B587B00090C948812101910160012081
:101C3000C603C74F3E64C74A166045043D6002A80C
:101C400000240470007804281BD80298401C02A9C4
:101C500008700878042814D80298401C02A908705B
:101C6000087804280DD80298401C02A9087008784A
:101C7000042806D80298401C02A908700878052894
:101C8000E3D3166103A80470007804281BD80398D6
:101C9000401C03A908700878042814D80398401C35
:101CA00003A90870087804280DD80398401C03A9DC
:101CB00008700878042806D80398401C03A9087007
:101CC00008780528E3D33D6104A80470007804284F
:101CD0001BD80498401C04A908700878042814D85C
:101CE0000498401C04A90870087804280DD80498AA
:101CF000401C04A908700878042806D80498401CE1
:101D000004A9087008780528E3D3782000F068FB60
:101D1000204600F065FB009800F062FB8B480199BB
:101D200001603E648B4A16613D6005A8047000782E
:101D300004281BD80598401C05A9087008780428B9
:101D400014D80598401C05A90870087804280DD8F7
:101D50000598401C05A908700878042806D805983D
:101D6000401C05A9087008780528E3D3166006A86A
:101D70000470007804281BD80698401C06A9087037
:101D80000878042814D80698401C06A9087008781A
:101D900004280DD80698401C06A908700878042865
:101DA00006D80698401C06A9087008780528E3D3D1
:101DB00007B0F0BD90120A40F0B587B000906348BC
:101DC0008121019101600120C503614E3564614AA2
:101DD00015604404346002A80027077000780428C6
:101DE0001BD80298401C02A908700878042814D84F
:101DF0000298401C02A90870087804280DD802989F
:101E0000401C02A908700878042806D80298401CD3
:101E100002A9087008780528E3D3156103A80770A4
:101E2000007804281BD80398401C03A90870087880
:101E3000042814D80398401C03A9087008780428C3
:101E40000DD80398401C03A908700878042806D808
:101E50000398401C03A9087008780528E3D334616F
:101E600004A80770007804281BD80498401C04A913
:101E700008700878042814D80498401C04A9087035
:101E8000087804280DD80498401C04A90870087824
:101E9000042806D80498401C04A90870087805286E
:101EA000E3D3782000F09CFA402000F099FA0098E3
:101EB00000F096FA2548019901603564254A1561BC
:101EC000346005A80770007804281BD80598401CCA
:101ED00005A908700878042814D80598401C05A99D
:101EE0000870087804280DD80598401C05A90870CA
:101EF0000878042806D80598401C05A908700878B9
:101F00000528E3D3156006A80770007804281BD8BD
:101F10000698401C06A908700878042814D806986A
:101F2000401C06A90870087804280DD80698401CA3
:101F300006A908700878042806D80698401C06A947
:101F4000087008780528E3D307B0F0BD80804240D0
:101F500090120A4090320A4010B522488421016054
:101F60000122130320490B608523436052030A605A
:101F70001E4A822393631E4B5C1CD46381245467E6
:101F8000136084614461D461146254629462846613
:101F9000D467C46503654365036143635364936514
:101FA000D365136653669366D3661367114AC2639B
:101FB00042648264084630380F4A02600A600F4863
:101FC00001680F4A0A4302600E48016A0E4A114333
:101FD00001620168114301600C480D490160016311
:101FE00010BDC04688804240D0120A400480424062
:101FF000810004008100060078000608A0130A4052
:102000000110050028100A4000004103A0320A40D8
:1020100000A00004F0B581B0804C1C492046FFF7B9
:1020200015F91B492046FFF71BF81A4801681A4AA0
:102030000A40026000250095204629462A462B4684
:10204000FFF7F0F8204629462A46FFF7DDF87D2005
:102050000602204631462A46FFF7F0F8012700978E
:10206000204629462A462B46FFF7DCF8204629461B
:102070003A46FFF7C9F8204631463A46FFF7DEF800
:10208000064887600321016001B0F0BDAC46000046
:10209000B0460000045808407F00FFFF0051084090
:1020A000074800210160074801680322914301604D
:1020B000FF20000204490A6882430A607047C04654
:1020C00008030B4000010B4000E400E010B5084C91
:1020D00008492046FFF7BAF807492046FFF720F8DD
:1020E000064801680122114301600548026010BDE5
:1020F00000808640B8460000BC460000289086401C
:102100000891864010B5154C15492046FFF7D0F8C8
:1021100014492046FFF7A8F80321CA0312480368B0
:10212000934303600269114B134011330361426909
:1021300017231343282293434361426801231A4023
:1021400044689C43A21842608902094A14680C43FF
:10215000146001681943016010BDC0460000504082
:10216000D0460000D2460000001150400000FFFFA2
:102170002810504080B500F017F8FFF7EDFEFFF78C
:102180008FFFFFF747FFFFF7A1FFFFF7BBFF2C20F3
:10219000034900220A54742002490A5480BDC046F3
:1021A000D40120205C012020B0B50A480A494160D2
:1021B0000A4A51600A4B59600A4C61600A4D6960D5
:1021C0000A49016011601960216029601020FEF742
:1021D00042FFB0BD00080A40030000B100280A40D9
:1021E0000048084000888640000850400100002652
:1021F00010B501290DD80C46064901F043FE0649E9
:1022000001F07CFDFEF73AFB014604482246FFF749
:1022100015F810BD0000A0C30000FA4600400840B9
:1022200080B504480068C0B2012801D1FFF74CFB1B
:1022300080BDC0462090864080B503480068C0B28B
:1022400000F036FA80BDC04624115040F0B581B090
:1022500024490968244A1160FEF7C0FA0024234B80
:10226000224601F001FDFDF7ABFF0546214601F0D6
:10227000F0FC07461E49284601F040FD0646002FA7
:1022800000D12E4618480068FEF7A8FA2246174BE0
:1022900001F0EAFCFDF794FF0546214601F0D9FC68
:1022A00004462846124901F029FD0146002C00D1C0
:1022B0002946304601F03EFE04460E4901F0BCFCC2
:1022C000002801D10D4906E00B49204601F09EFC93
:1022D000002804D10649204601F010FD044620469E
:1022E00001B0F0BD20012020A80020200080764011
:1022F0000000B44300003443000034C30000B4C302
:1023000010B582B07D2004022046FEF7A4FE2046D0
:10231000FEF7A1FE2046FEF79EFE2046FEF79BFE3E
:102320002046FEF798FE2046FEF795FE2046FEF773
:1023300092FE2046FEF78FFE2046FEF78CFE2046DA
:10234000FEF789FE9E48812101600122D003A74B40
:102350001864A749086152041A606B4600221A707B
:102360001B78042B18D8009B5B1C6C4623702378C9
:10237000042B11D8009B5B1C23702378042B0BD8F3
:10238000009B5B1C23702378042B05D8009B5B1CEF
:1023900023702378052BE6D3086001A8027000782B
:1023A00004281BD80198401C01A90870087804284B
:1023B00014D80198401C01A90870087804280DD889
:1023C0000198401C01A908700878042806D80198D3
:1023D000401C01A9087008780528E3D302B010BD9D
:1023E000F0B586B0764A812111600121CD03754B8D
:1023F0001D634A041A60002703E04000771C072E83
:102400006FD23E4641B2002902D479490D6101E004
:1024100077490D60694600230B700978042918D8A4
:102420000099491C6F4639703978042911D80099F0
:10243000491C3970397804290BD80099491C397026
:102440003978042905D80099491C3970397805294B
:10245000E6D35C4910390A6001AF3B703F78042F26
:102460001BD8019F7F1C01AC27702478042C14D842
:10247000019C641C01AF3C703C78042C0DD8019C7D
:10248000641C01AF3C703C78042C06D8019C641C91
:1024900001AF3C703C78052CE3D34A4C226002AC7F
:1024A00023702478042CA8D8029C641C02AF3C70D2
:1024B0003C78042CA1D8029C641C02AF3C703C7890
:1024C000042C9AD8029C641C02AF3C703C78042C0B
:1024D00093D8029C641C02AF3C703C78052CE3D37B
:1024E0008BE7434805603848354C206003A80370EB
:1024F000007804281BD80398401C03AC2070207877
:10250000042814D80398401C03AC207020780428B9
:102510000DD80398401C03AC20702078042806D8FE
:102520000398401C03AC207020780528E3D30A6090
:1025300004A80370007804281BD80498401C04A940
:1025400008700878042814D80498401C04A908705E
:10255000087804280DD80498401C04A9087008784D
:10256000042806D80498401C04A908700878052897
:10257000E3D3314800681348026005A8037000786F
:1025800004281BD80598401C05A908700878042861
:1025900014D80598401C05A90870087804280DD89F
:1025A0000598401C05A908700878042806D80598E5
:1025B000401C05A9087008780528E3D306B0F0BDD3
:1025C00080804240A0120A4081000600F0B581B030
:1025D0000120C406D04D2C608606054F3E600A20BF
:1025E00000F02CF82C613E6101B0F0BD90120A4061
:1025F00090320A4070B501240F4D286880020DD436
:102600006605142000F01AF82868304206D1C34845
:102610000268032A214600DC511C01602868000280
:1026200009D4E6050A24204600F008F8286830425C
:1026300001D1BB48046070BD80330A4082B00021E4
:102640000091009981421DD20F4905E0009A521C69
:102650000092009A824215D20191019A531E019371
:10266000002AF3D0019A531E0193002AEED0019A5A
:10267000531E0193002AE9D0019A531E0193002AA8
:10268000EBD1E3E702B07047204E000080B501F0C7
:102690003DF880BD0448082101609C48016001208C
:1026A000800202490860704780E200E04810504014
:1026B000F0B583B0374E317800290BD0317801293D
:1026C00014D1532863D134480078344953220A5432
:1026D000022707E055285AD12F4800782F49552264
:1026E0000A5401272C480770377050E031780229CE
:1026F0004DD1294A13782949C854581C1070C0B2CA
:102700000B2844D108784A7810188D782818CC788E
:102710002218087983184A79D3188F790297FB1801
:10272000CF790197FB180F7AFB184F7AFB18DBB2B1
:10273000897A00278B42D5D111020818FEF7DAF802
:102740000721C906009101F09DFB154901F09AFB94
:102750001449086020024019FEF7CCF8009C21467D
:1027600001F090FB0E4D294601F08CFB0E490860EC
:102770000198000202994018FEF7BCF8214601F0CA
:1027800081FB294601F07EFB08490860AAE703B0F7
:10279000F0BDC046F8002020F7002020EC002020EB
:1027A00000003443E0002020E80020202001202009
:1027B000F0B581B0AB480068FFF748FD1B4E3060B4
:1027C0003068FEF70BF804460D4630681849096872
:1027D00001F0B0FBFEF702F8164A174BFDF7DAFEE0
:1027E00006460F46154A164B20462946FDF7D2FEEF
:1027F00032463B46FDF79EFEFDF7E2FC9A4D28600F
:102800002868104C214601F024FA002800D12C60E1
:1028100028680D4C214601F0F9F9002800D12C6000
:10282000024800680249086001B0F0BDB0002020F5
:10283000B8002020333333333333EB3FC3F5285C08
:102840008FC2B53F0000C8410000C8C182B0FFF789
:1028500091FC00F085FEFFF71DFF2C48022101606E
:1028600001225104016011040160294801681143EB
:102870000160284801681143016001929504264EC9
:10288000264F274CFFF7B6FE396820680A464243B8
:102890000A2A04D100F04EF83560206839680A46EB
:1028A0004243142A06D1FEF705FE00F0F7F8356022
:1028B000206839680A4642431E2A0DD119481A4930
:1028C00001600198800719490860FEF7F3FD00F0E8
:1028D000D3FA356020683968414328290BD1FEF7C7
:1028E000E9FD1248124901600E480F49016000F0ED
:1028F000C3FA356020680128C4D13868FDF7FAFFB3
:10290000024601200146FFF7C1FEBBE700E100E0FF
:10291000045808400498864090120A400000202085
:10292000040020202C01202000004041180020201D
:102930000000A040F0B581B0464D2C687F20C10555
:10294000204601F058F900280FD0012080072860A8
:1029500041480068414909680818C10F40184010F3
:10296000FDF7C8FF3E49086006E0012081072046C8
:1029700001F041F9002837D03A4800240460FFF7FD
:1029800017FF394E3068FDF729FF384A384BFDF7FD
:1029900001FE02460B46374D20462946FDF7D7FD7E
:1029A000FDF70EFC0746344807603068FDF716FF58
:1029B0002E4A2F4BFDF7EEFD22462B46FDF7BAFDC2
:1029C000FDF7FEFB04462D4804602D4D3846294690
:1029D00001F058FA2B490860204629461D4D01F0A8
:1029E00051FA294908602C6801208107204601F02E
:1029F00002F9002817D01848006818490968081813
:102A0000C10F40184010FDF775FF1549096801F026
:102A100091FA1E4901F010F9002811D11C482860D4
:102A2000FFF7D4FD2C681A49204601F0E4F800288D
:102A300006D0FF4900200860FC490860014603E019
:102A4000FB480068F9490968124A11601249086098
:102A500001B0F0BD1000202054012020580120209A
:102A6000E400202014012020DC0020209A9999996C
:102A70009999B93F0000F03F04012020080120206F
:102A800000006041100220201402202000C04145B7
:102A9000000040400C01202010012020F0B581B042
:102AA00000F018FE0446D74804607F20C105D64FC9
:102AB0003D682846009101F09EF8002839D0D3489F
:102AC00000250560FFF774FED14F3868FDF786FEDC
:102AD000D04AD14BFDF75EFD02460B46CF4E28464D
:102AE0003146FDF734FDFDF76BFB0446CC4804602E
:102AF0003868C54FFDF772FEC64AC74BFDF74AFD61
:102B00002A463346FDF716FDFDF75AFB0546C54834
:102B10000560C54E2046314601F0B4F9C34908604E
:102B20002846314601F0AEF9C1490860B54804684D
:102B30003D682846009901F05EF8002817D0002172
:102B4000204601F058F8002811D001208007386095
:102B5000B8480068B84909680818C10F4018401003
:102B6000FDF7C8FEB5490860FFF730FD3D6801205C
:102B700086072846314601F03EF8002826D0FEF7A9
:102B800071FDAF4C2068FDF729FEAE4DAE4F2A46D1
:102B90003B46FDF7FFFCAD4AAD4BFDF7CBFCFDF727
:102BA0000FFBA24908602068FDF718FE2A463B4645
:102BB000954FFDF7EFFC02460B460020A549FDF7B7
:102BC000C6FCFDF7FDFA9A4908603D682846314683
:102BD00001F011F8002829D0964C2068964D2968FC
:102BE0000818C10F40184010FDF784FE934E31685D
:102BF00001F0A0F9984901F01FF8002800D0F6E094
:102C000080480068009900F0F6FF002800D1EEE04F
:102C100092483860206829680818C10F4018401091
:102C2000FDF768FE3060FFF7D1FC3D688B49284610
:102C300000F0E1FF002838D0744889490160FFF7AF
:102C4000B7FD734E3068FDF7C9FD724A724BFDF750
:102C5000A1FC02460B460027704D38462946FDF779
:102C600076FCFDF7ADFA04466D4804603068FDF768
:102C7000B5FD684A684BFDF78DFC3A46624F2B461E
:102C8000FDF758FCFDF79CFA054666480560664E60
:102C90002046314601F0F6F864490860284631467E
:102CA00001F0F0F8624908603D686C49284600F080
:102CB000A2FF002817D05F4800685F49096808181C
:102CC000C10F40184010FDF715FE5C49096801F07E
:102CD00031F9644900F0B0FF002804D18120C0051B
:102CE0003860484A07E08120C105284600F083FF8C
:102CF0000028444A1BD04E484B4901604B480160B4
:102D00001068002100F077FF002870D05648386026
:102D100048480068484909680818C10F4018401021
:102D2000FDF7E8FD45490860FFF750FC3D684E4956
:102D3000284600F060FF002825D0FEF793FC404CA9
:102D40002068FDF74BFD3F4D3F4E2A463346FDF7C9
:102D500021FC3E4A3E4BFDF7EDFBFDF731FA3349CE
:102D600008602068FDF73AFD2A463346FDF712FC5D
:102D700002460B4600203749FDF7E9FBFDF720FA34
:102D80002B4908603D683849284600F034FF002888
:102D90001FD028480068284909680818C10F401842
:102DA0004010FDF7A7FD2549096801F0C3F82F4938
:102DB00000F042FF00281AD112480068009900F084
:102DC0001AFF002813D0412000063860FFF7FEFBF1
:102DD0003D6841200106284600F00DFF002806D07E
:102DE00013490020086011490860014603E01048BB
:102DF00000680E4909681E4A11601E49086001B04A
:102E0000F0BDC0461C01202010002020140120200D
:102E1000DC0020209A9999999999B93F0000F03FD8
:102E20000401202008012020000060411002202021
:102E3000140220205401202058012020E4002020EA
:102E400034012020333333333333D33FCECCCCCC97
:102E5000CCCC2E4000002C4000007A4500004040C1
:102E60003333354300803B450000A0400060864579
:102E70000C01202010012020F0B583B000F02AFCC6
:102E80000546FE4805607F20C105FD4C266830469A
:102E9000029100F0B0FE002825D0FA48FA490160FE
:102EA000FFF786FCF9480768F9490D68016828466C
:102EB00000F024FFF74908602846FDF78FFC05461F
:102EC0000E463846FDF78AFCF34AF44BFDF762FBE9
:102ED0002A463346FDF72EFBFDF772F9F0490860EC
:102EE000E648056826683046029900F084FE00280E
:102EF00017D00021284600F07EFE002811D00120C6
:102F000080072060E7480068E74909680818C10F92
:102F100040184010FDF7EEFCE4490860FFF756FB4F
:102F200026680120019085073046294600F063FE9F
:102F300000282AD0FEF7E4FAD5480068FDF74EFCD9
:102F400006460F46DA4C2068FDF748FCD94ADA4BB2
:102F5000FDF720FB32463B46FDF7ECFAFDF730F972
:102F6000CF4908602068C64CFDF738FCD34AD44BE3
:102F7000FDF710FB02460B4630463946FDF7DAFAFC
:102F8000FDF71EF9C34908602668304600952946BA
:102F900000F031FE002834D0C24C2068C24E3168A7
:102FA0000818C10F40184010FDF7A4FCBF4F396846
:102FB00000F0C0FFC34900F03FFE002800D073E2DC
:102FC000C1480568AD480068029900F014FE002869
:102FD00000D169E2BD49284600F02EFE002800D04D
:102FE00062E2BB48A649086020680C4631680818B0
:102FF000C10F40184010FDF77DFC3860FFF7E6FA7E
:103000002668B349304600F0F6FD002823D09D48DD
:10301000B0490160FFF7CCFB9D4805689B4C2168D7
:10302000284600F087FF9E4908602846FDF7D6FB3A
:1030300006460F462068924CFDF7D0FB964AA64BF9
:10304000FDF7A8FA32463B46FDF774FAFDF7B8F8EB
:103050009049086026689E49304600F0CCFD002863
:1030600017D090480068904909680818C10F4018A7
:103070004010FDF73FFC8D490F68394600F05AFFBC
:10308000964900F0D9FD002803D18120C0052060B9
:1030900008E08120C105304600F0ADFD002844D095
:1030A000824807687F4800687F4909680818C10F8F
:1030B00040184010FDF71EFC394600F03BFF8849E0
:1030C00000F0BAFD874C2568002820D10021284651
:1030D00000F091FD00281AD0029820606C4800682A
:1030E000FDF77CFB06460F466B4A7B4BFDF752FA19
:1030F000FDF766F8FD490860F34AF44B304639465F
:10310000FDF748FAFDF75CF8F649086006E0284646
:10311000029900F070FD002800D1CFE1FFF756FAC8
:10312000019880072060EB4C26688120C10530465D
:1031300000F061FD002822D0E548006800273946EC
:1031400000F059FD00281AD0E9480068E9490968EB
:103150000818C10F40184010FDF7CCFBE649086085
:10316000EC4C20680199890700F045FD002801D149
:10317000FFF72CFA2760EA48D649086005E0E849DD
:10318000304600F038FD00282AD0FEF76BFAD4480C
:103190000068FDF723FB06460F46E24C2068FDF76A
:1031A0001DFBD74AE04BFDF7F5F932463B46FDF7EC
:1031B000C1F9FDF705F8CD4908602068C54CFDF759
:1031C0000DFBCE4AD94BFDF7E5F902460B463046DA
:1031D0003946FDF7AFF9FCF7F3FFC24908602668EE
:1031E000CF49304600F007FD00287DD0C048006878
:1031F000C04909680818C10F40184010FDF77AFB54
:10320000BD4D296800F096FEC94900F015FD002863
:103210006AD1AF480068029900F0EDFC002863D045
:10322000B84807680021384600F013FD002805D192
:10323000C049384600F000FD00280BD1BE49384691
:1032400000F007FD00284FD1BC49384600F0E9FCEA
:10325000002849D1BA4C2068029900F04FFD06467B
:1032600020609C4CA2480068A24909680818C10F58
:1032700040184010FDF73EFB28603EE01C01202076
:1032800010002020140120200040A143DC00202059
:103290002C01202014022020CDCCCCCCCCCCECBFF7
:1032A000100220205401202058012020E40020207A
:1032B00030012020EC51B81E85EBD13F7B14AE4786
:1032C000E17AD4BF0000E144200120200000144333
:1032D0000000404033B35B43CCCCF43F0000484592
:1032E00000308945200220208320C105304600F0AF
:1032F00082FC002810D09248066892480168304647
:1033000000F079FC002801D18F4801E0412000063F
:103310002060FFF75BF926688B49304600F06BFCB4
:10332000002823D06C4889490160FFF741FA6B48B7
:1033300005686B490E680168304600F0DFFC69499A
:1033400008603046FDF74AFA06460F462846FDF764
:1033500045FA654A7E4BFDF71DF932463B46FDF7BF
:10336000E9F8FCF72DFF6149086026687649304688
:1033700000F041FC002816D05D4800685D490968EE
:103380000818C10F40184010FDF7B4FA5A490F68E9
:10339000394600F0CFFD5D4900F04EFC002802D117
:1033A0006C48206007E06B49304600F024FC0028A0
:1033B00043D0514807684E4800684E4909680818CC
:1033C000C10F40184010FDF795FA394600F0B2FDE4
:1033D0004F4900F031FC4F4F3D68002821D10021BA
:1033E000284600F008FC00281BD0029838603C48B2
:1033F0000068FDF7F3F904460E46474A474BFDF7D0
:10340000C9F8FCF7DDFE39490860374A3E4B2046D3
:10341000304C3146FDF7BEF8FCF7D2FE314908606A
:1034200005E02846029900F0E6FB00284AD0FFF7A5
:10343000CDF801988007386026684649304600F08C
:10344000DAFB002822D0224800680024214600F040
:10345000D2FB00281AD01F4E009F37602448006816
:10346000244909680818C10F40184010FDF742FAB6
:1034700021490860274D2868394600F0BCFB002828
:1034800002D1FFF7A3F837682C603E4641200106C1
:10349000304600F0B0FB002806D01249002008603A
:1034A00012490860014603E00E4800680F490968A8
:1034B000294A11602949086003B0F0BD8120C60582
:1034C000044C32E6234EB8E79A9999999999E93FC5
:1034D0001C0120201000202014012020DC002020CE
:1034E0002C01202014022020CDCCCCCC1002202096
:1034F0005401202058012020E4002020EC51B81E67
:103500007B14AE4720012020CCCCF43F000048457E
:1035100000308945200220209A9999999999E93F8C
:103520000000A04034012020E17AD43F85EBD1BFD8
:103530000000FA4400000C42000096430000B4432F
:1035400014002020180020200000C0406666A1431F
:10355000CCCCF4BF0000E0400C0120201001202062
:1035600070B5FEF7CDFE7D252C0264262046FDF7C2
:1035700072FD761E3004F9D1022000F00DF8FDF73F
:10358000A1FEAD002046FDF766FD6D1E2804F9D1B1
:103590000020FEF7B9FA70BDF0B581B0044640488E
:1035A000002606803F4804703F4806803F480121BE
:1035B00001703F4801703F4806703F4801703F4826
:1035C000802707803E4801703E48402505803E48E0
:1035D0000670F0433D4908803D490880AE20FEF763
:1035E0001FFBD520FEF71CFB3846FEF719FBA82071
:1035F000FEF716FB3F20FEF713FBD320FEF710FB70
:103600003046FEF70DFB2846FEF70AFB8D20FEF73D
:1036100007FB012C01D0142000E01020FEF700FB76
:103620002020FEF7FDFA3046FEF7FAFAA1263046D2
:10363000FEF7F6FAC8273846FEF7F2FADA20FEF768
:10364000EFFA1220FEF7ECFA8120FEF7E9FA012CDE
:1036500001D0CF2000E09F20FEF7E2FAD920FEF74C
:10366000DFFA012C01D0F12000E02220FEF7D8FA89
:10367000DB20FEF7D5FA2846FEF7D2FAA420FEF7A3
:10368000CFFAA620FEF7CCFA3046FEF7C9FA384644
:10369000FEF7C6FAAF20FEF7C3FA01B0F0BDC04690
:1036A00038012020280120203A0120201E0220205D
:1036B0002402202024012020180120202A0120207B
:1036C000CC00202026012020180220201A022020D1
:1036D0001C0220200C490A680020002A13D04A68E6
:1036E000002A10D08A68002A0DD0CA68002A0AD0A1
:1036F0000A69002A07D04A69002A04D0886900288C
:1037000001D07F20C00570471C002020F0B589B093
:1037100017460C46054600211046049100F076FA43
:10372000002803940AD105A82D22027028462146BC
:10373000FEF754F80120C0074740AD1D02953846FA
:10374000FDF776F80446FDF7D5F80146384600F057
:10375000F1FB01909648984A9849994D994FBC427F
:1037600003DAAC421DDD049F0DE09649204600F0CF
:103770003FF9302102460A4305AB1A704743E41B68
:10378000AC4215D901279149204600F031F905A92D
:10379000C919024630320A70691C4143641A7D1C03
:1037A00009E08C4200DCE2E00F460025019E06E0C5
:1037B00005A841700225019E804FBC420CD9844966
:1037C000204600F015F905A94919024630320A7061
:1037D000791C4143641A03E005A8401930210170A7
:1037E000754837466E1C84420DD9054679492046F6
:1037F00000F0FEF80146303105AA9155691C41439D
:10380000641A751C03E005A830218155AD1C694E72
:10381000B4420BD97049204600F0EAF80146303135
:1038200005AA5155711C4143641A02E005A83021D4
:1038300041555F486E1C84420DD9054667492046B4
:1038400000F0D6F80146303105AA9155691C414374
:10385000641A701C03E005A830218155A81CE108FA
:103860007C290ED9A1B2C9085D4A4A43110D0A4606
:10387000303205AB1A547D22D2004A43A11A8CB2D1
:1038800002E005A930220A54411C632C10D9A0B2D1
:103890008008544A4243500C0246303205AB5A5419
:1038A00064224243A01A84B24E1C092C06D812E0AE
:1038B00005AA30235354861C092C0CD9E0B2CD2123
:1038C0004143C80A0146303105AA91550A214143B6
:1038D000601AC4B202E005A830218155761CF5B209
:1038E000303405A844554049384600F0B2F9002864
:1038F00003D030460399029D2FE005A82D182E20F5
:1039000068703A49384600F0BDFAFCF791FF04466A
:103910006427394600F08EF847433030A870E11B29
:10392000F01C012910DBCAB2CD235343DA0A134637
:103930003033C0B205AC23540A205043081A302457
:1039400004430399029D04E000290399029D04D4D5
:103950003024301DC2B205AB9C54C0B205AA8018F9
:10396000049B4370E8B2FDF769FF09B0F0BD9442D3
:1039700003DD15460026019F38E70E4EB44202DDF6
:103980000025019F46E7844203DD05460026019F8E
:1039900054E70D48844202DD0020019F62E7642C59
:1039A000019F01DB002172E700260A2C86DA96E7E8
:1039B0000F2700009F8601003F420F007F9698006E
:1039C000FFE0F50500CA9A3BE703000000E1F505BA
:1039D0008096980040420F00A0860100102700004A
:1039E000C52000007B14000017B7D13800007A44CE
:1039F00043088B421AD3002203098B4279D3030A6E
:103A00008B425ED3030B8B4242D3030C8B4227D3F2
:103A10000902FF2212BA030C8B4202D312120902CE
:103A200003D0030B8B4233D31AE0D3E0411A804119
:103A3000401C704703460B4371D443088B42F5D3B7
:103A4000002203098B4254D3030A8B4239D3030B60
:103A50008B421DD3030C8B4202D394466EE0090ABD
:103A6000C30B8B4201D3CB03C01A5241830B8B4251
:103A700001D38B03C01A5241430B8B4201D34B033A
:103A8000C01A5241030B8B4201D30B03C01A52419F
:103A9000C30A8B4201D3CB02C01A5241830A8B4224
:103AA00001D38B02C01A5241430A8B4201D34B020D
:103AB000C01A5241030A8B4201D30B02C01A524171
:103AC000CDD2C3098B4201D3CB01C01A5241830925
:103AD0008B4201D38B01C01A524143098B4201D35F
:103AE0004B01C01A524103098B4201D30B01C01A8A
:103AF0005241C3088B4201D3CB00C01A5241830804
:103B00008B4201D38B00C01A524143088B4201D330
:103B10004B00C01A5241411A524110007047CA0F5F
:103B200000D04942031000D34042534000229C463B
:103B300003098B422DD3030A8B4212D38901FC2245
:103B400012BA030A8B420CD3890192118B4208D31B
:103B5000890192118B4204D3890137D0921100E080
:103B60008909C3098B4201D3CB01C01A5241830991
:103B70008B4201D38B01C01A524143098B4201D3BE
:103B80004B01C01A524103098B4201D30B01C01AE9
:103B90005241C3088B4201D3CB00C01A5241830863
:103BA0008B4201D38B00C01A5241D9D243088B42B9
:103BB00001D34B00C01A5241411A00D20146524172
:103BC000104663465B1000D34042704763465B106B
:103BD00000D3404201B50021004201D0C94308464C
:103BE000C046C04602BD002210B51346104611461D
:103BF000FCF75AFF10BD10B500F0C6F8EFF30080D7
:103C0000400001D5012010BD002010BD10B500F00E
:103C1000E5F8EFF30080800001D5012010BD002001
:103C200010BD10B500F0DAF8EFF300804000800F0F
:103C3000012800D0002010BD10B500F0F9F8EFF316
:103C400000804000800F012801D0012010BD00201D
:103C500010BD10B500F0ECF8EFF30080800001D447
:103C6000012010BD002010BD70B514461D460E4643
:103C7000002801D0012100E0002131434A001E4903
:103C800052088A1AD20F15D1002C01D0012200E06F
:103C900000222A4352005208891AC90F0AD1012270
:103CA00071005205D14201D100281FD0690001D115
:103CB000002C1BD022463146FCF732FE0246080D8E
:103CC000C043400510D0F00FCB0FC007DB07984270
:103CD0000AD06D00CB0F6D08DB071D430B46204655
:103CE0002946FCF73FFC0246104670BD0120FCF758
:103CF00011FEFFF778FF70BD0000F07F70B5012561
:103D0000ED0704004C4020D4441A01D2001B0919CD
:103D1000C60D4B00F2B2FF2A29D01B0E2CD0000298
:103D20000C0228432C43D31ADC40051910D2280A70
:103D300002D3401C6D0611D0761EF6058019FF2AAD
:103D400000DA70BDC00DC00570BD694000F0F8F824
:103D500001200543C541521C761CE8E764089C40DD
:103D6000C90161408900E7D10124A043E4E71B0EAB
:103D7000440200D0034870BD002AFCD1C00FC00728
:103D800070BD00BF0000C07F0123DB0502000A43B5
:103D90000DD4DA4203D49A4207D488427047D842FD
:103DA00014D4D94212D48842704780427047DA4214
:103DB00003D59A42F9D5814270475B004200DA424E
:103DC00004D24A00DA4201D28142704710B5024A59
:103DD000FDF78EF810BD00BF090012040123DB05BA
:103DE00002000A430DD4DA4203D49A4207D488422F
:103DF0007047D84214D4D94212D4884270478042C6
:103E00007047DA4203D59A42F9D5814270475B0088
:103E10004200DA4204D24A00DA4201D281427047BB
:103E200010B5024AFDF764F810BD00BF0900130485
:103E30000123DB0502000A430DD4DA4203D49A427F
:103E400007D488427047D84214D4D94212D4884249
:103E5000704780427047DA4203D59A42F9D58142D1
:103E600070475B004200DA4204D24A00DA4201D2D3
:103E70008142704710B5024AFDF73AF810BD00BF05
:103E80000900160470B5420064414B005C41120EFB
:103E900039D01B0E38D0FF2A3CD0FF2B3AD0D21895
:103EA0007F3A40024902400A490A4518ED010600DE
:103EB0004E43000A090A48430104731A4019190CB9
:103EC0004318990F04D05B08012149075B1A521C63
:103ED000D80904D3401CF50301D19D0607D0FF2A61
:103EE00008D2D50506D0E4072043401970BD01254E
:103EF000A843F4E7002A01DCE00770BD2402FF209C
:103F00002043C00570BD1B0EFF2A03D0FF2B01D03C
:103F1000E00770BDFF2636064500B54206D84D00C5
:103F2000B54203D8D218FF2A00D0E7E7004870BD99
:103F30000000C07F70B50125ED0704004C4022D47D
:103F4000441A02D26C40001B0919C60D4B00F2B294
:103F5000FF2A4BD01B0E50D000020C02A8432C436A
:103F6000D31ADC40051B05D5AD0019D36D08761EAC
:103F7000521E37D0F605280A01D2801970BD704153
:103F80006D0603D070BD6940FFF7BEFE9C4009027C
:103F90006140490001D0401E70BD0124A04370BDA6
:103FA0006D081DD001202B0C01D12D0410302B0EDB
:103FB00001D12D0208302B0F01D12D01001DAB0FB7
:103FC00001D1AD00801CEB0F01D16D00401C361AF1
:103FD000121A6D00680AF5054019012A02DB70BD4E
:103FE000002070BDC036300AC00770BD1B0E4402F1
:103FF00001D1FF2B00D1024870BD002AF0D070BD66
:104000000000C07F80807F7E7D7C7B7A79787776A8
:1040100076757473727171706F6E6E6D6C6C6B6AA5
:104020006A69686867666665646463636261616043
:10403000605F5F5E5E5D5D5C5C5B5B5A5A595958C0
:10404000585757565655555554545353525252512A
:10405000515050504F4F4F4E4E4D4D4D4C4C4C4B80
:104060004B4B4A4A4A4949494848484747474746C7
:104070004646454545444444444343434342424203
:10408000424141410000000000000000002F0000FC
:1040900000000700070000147F147F1400242A7F0B
:1040A0002A1200626408132300364955225000008A
:1040B0000503000000001C224100000041221C00FA
:1040C0000014083E08140008083E0808000000A07C
:1040D0006000000808080808000060600000002078
:1040E00010080402003E5149453E0000427F400056
:1040F000004261514946002141454B3100181412DC
:104100007F10002745454539003C4A4949300001A8
:104110007109050300364949493600064949291EF7
:104120000000363600000000563600000008142259
:104130004100001414141414000041221408000259
:104140000151090600324959513E007C1211127C7E
:10415000007F49494936003E41414122007F4141AB
:10416000221C007F49494941007F09090901003E9D
:104170004149497A007F0808087F0000417F4100DB
:10418000002040413F01007F08142241007F404051
:104190004040007F020C027F007F0408107F003E39
:1041A0004141413E007F09090906003E4151215E1F
:1041B000007F091929460046494949310001017F1C
:1041C0000101003F4040403F001F2040201F003FB2
:1041D0004038403F00631408146300070870080764
:1041E00000615149454300007F41410000552A5577
:1041F0002A55000041417F000004020102040040F2
:104200004040404000000102040000205454547813
:10421000007F484444380038444444200038444433
:10422000487F00385454541800087E0901020018D1
:10423000A4A4A47C007F080404780000447D40000E
:10424000004080847D00007F102844000000417FF2
:104250004000007C04180478007C080404780038CE
:104260004444443800FC242424180018242418FC56
:10427000007C0804040800485454542000043F44BF
:104280004020003C4040207C001C2040201C003C82
:104290004030403C004428102844001CA0A0A07CD2
:1042A000004464544C44141414141414000000000A
:1042B00000000000000000000000000000000000FE
:1042C00000000000000000000000000000000000EE
:1042D0000000000000000000008080C0E0E0F0F07E
:1042E000F0F878783C3C3C3C1C1C1C1C1C1C1C1C26
:1042F0001C181818303030606040C080000000008A
:1043000000000000000000000000000000000000AD
:10431000000000000000000000000000000000009D
:10432000000000000000000000000000000000008D
:10433000000000000000000000000000000000007D
:10434000000000000000000000000000000000006D
:104350000080C0E0F8FCFEFE3F1F0F0707030101CD
:10436000000000000000000000000000000000004D
:10437000000000000000000000000000193C7E7EEC
:104380003C180000000000000000000000000000D9
:10439000000000000000000000000000000000001D
:1043A000000000000000000000000000000000000D
:1043B00000000000000000000000000000000000FD
:1043C0000000000000000000000000000080E0FC91
:1043D000FEFFFF3F0F03010000000103071F3F7FA7
:1043E0007F7F7F7F7F7F7F7F7F3F7F7F7EFEFCFCA5
:1043F000F8F0000000000000C0F8FFFFFFFFFFFF23
:10440000FF1F070000000000000000000000000087
:10441000000000000000000000000000000000009C
:10442000000000000000000000000000000000008C
:10443000000000000000000000000000000000007C
:10444000000000000000000000000000F0FFFFFF7F
:10445000FF1F0100000000000000000000000080BD
:10446000E0F8FEFFFFFFFF7F1F0F7EFCF0800107DB
:104470000F1F000080E0F8FFFFFFFFFFFFFF3F0777
:10448000000000000000F00000000000000000003C
:10449000000000000000000000000000000000001C
:1044A000000000000000000000000000000000000C
:1044B00000000000000000000000000000000000FC
:1044C0000000000000000000000000001FFFFFFFD0
:1044D000FFC0FFF88000000000000000E0F8FEFFD1
:1044E000FFFFFFFF1F070100000000031FFFF8C0D0
:1044F00000C0F0FCFFFFFFFFFFFFFF1F07000000F1
:1045000000000000E0FF3F0000000000000000008D
:10451000000000000000000000000000000000009B
:10452000000000000000000000000000000000008B
:10453000000000000000000000000000000000007B
:1045400000000000000000000000000000010F3F1C
:10455000FFFFFCEFBFFEF8F0C09034F7FFFFFFFF56
:10456000FFFFFF7C7C7C7C7C7C7C7C7C7C7C7D7FFE
:104570007F7FFFFFFFFFFFFFF3F1F0F0E0E0E0C01F
:10458000E0F0FC7F1F0300000000000000000000BE
:10459000000000000000000000000000000000001B
:1045A000000000000000000000000000000000000B
:1045B00000000000000000000000000000000000FB
:1045C00000000000000020301018080C0E0607073D
:1045D0000703070F1F3E7DF7EFDFBF7EFCF8F0F00B
:1045E000E0C0C0808080000000000000000000806B
:1045F00080C0C0C0E0E0E0707078B9BDDFDF6F3729
:10460000170B0303070706040C081810000000002E
:10461000000000000000000000000000000000009A
:10462000000000000000000000000000000000008A
:10463000000000000000000000000000000000007A
:10464000000000000000000000000000000000006A
:10465000000000000000000001010307060F0D1B11
:104660001B17373F2F2F3F1F1F1E1E1E1E1E1E1EF5
:104670001E1E1E1E0E0E0F07070303010100000081
:10468000000000000000000000000000000000002A
:10469000000000000000000000000000000000001A
:1046A0000000000000000000000000000800000002
:1046B000007D0000000000000800FF000200000074
:1046C0007002000001000000000000000000000077
:1046D000080000001800000000300000000000008A
:1046E00000470000000020204000000020010000E2
:1046F0004047000040002020E80200004801000080
:1047000001000000010000000000803F0000803F29
:104710000000803F0000803F0000803F000000005C
:10472000010000000200000003000000040000007F
:104730000500000006000000070000000000000067
:04000005000000C136
:00000001FF
