:020000040800F2
:1000000020070020B5010008392100088D1F0008D5
:10001000352100087102000871220008000000006C
:100020000000000000000000000000004121000866
:1000300075020008000000003D210008452100086D
:10004000CF010008CF010008CF010008CF01000850
:10005000CF010008CF010008CF010008CF01000840
:10006000CF010008CF010008CF010008CF01000830
:10007000CF010008CF010008CF010008CF01000820
:10008000CF010008CF010008CF010008CF01000810
:10009000CF010008CF010008CF010008CF01000800
:1000A000CF010008CF010008CF010008CF010008F0
:1000B000CF0100084D210008CF010008CF01000842
:1000C000CF010008CF010008CF010008CF010008D0
:1000D000CF010008CF01000865220008CF01000809
:1000E000CF010008CF010008CF01000800F002F89E
:1000F00000F050F814A696E8000CB244B344DA4578
:1001000001D100F047F8BAE80F000FA696E83000DA
:10011000A5EB040504EB0607AAEB0704A7F101070A
:100120004FEA15154FEA3414A4F10104AC4201D38F
:1001300000F030F813F0010F18BFFB1A43F0010371
:1001400000F001F8DBE71847F82200001823000050
:10015000103A24BF78C878C1FAD8520724BF30C8F3
:1001600030C144BF04680C60704700007047000055
:100170000023002400250026103A28BF78C1FBD8B0
:10018000520728BF30C148BF0B6070471FB51FBD65
:1001900010B510BD00F031F81146FFF7F7FF02F07F
:1001A00069F800F04FF803B4FFF7F2FF03BC00F06A
:1001B00057F800000948804709480047FEE7FEE776
:1001C000FEE7FEE7FEE7FEE7FEE7FEE7FEE7FEE707
:1001D00004480549054A064B7047000049210008BC
:1001E000ED0000082001002020070020200300204F
:1001F00020030020704770477047754600F02CF8C8
:10020000AE4605006946534620F00700854618B003
:1002100020B5FFF7DDFFBDE820404FF000064FF0AE
:1002200000074FF000084FF0000BAC46ACE8C009E7
:10023000ACE8C009ACE8C009ACE8C00921F007018E
:100240008D46704710B50446AFF300802046BDE8E8
:100250001040FFF7A8BF00000048704710000020C2
:1002600001491820ABBEFEE72600020070470000DF
:10027000FEE7000070470000EFF3108072B600BF89
:10028000FEE70000014690F82100022816D1086818
:10029000D1E90FC3026822F00E020260026822F068
:1002A00001020260012000FA03F2CCF8042081F878
:1002B00021000020002281F820207047042088635C
:1002C0000120002281F820207047000090F82110C2
:1002D000022923D10268116821F00E0111602F213B
:1002E0001368C4F202018A4240F20401C4F202011E
:1002F00023F00103136015DD3023C4F202039A4298
:100300001CD04423C4F202039A421BD05823C4F2E7
:1003100002039A421CD14FF4803321E0042181630F
:10032000012070470823C4F202039A420ED01C2316
:10033000C4F202039A420BD1102311E04FF48073F0
:100340000EE000BF4FF480530AE000BF012307E036
:1003500001F1680C4FF08073624508BF4FF48013C1
:100360000B60012180F82110426B002180F82010E1
:1003700022B180B590470021BDE880400846704713
:10038000B0B5044600F01EF9054640F20000C2F286
:1003900000000078611C18BF044400BF00F012F98F
:1003A000401BA042FAD3B0BD2DE9F04F82B00E68D9
:1003B000002E00F0FD8041F20042C4F2010204234D
:1003C00040F2004E904208BF03234FF6FF7CC4F278
:1003D000010E009300240123C1F2100C4FF0000A1B
:1003E0004FF0000944E000BF012704F00C030F2286
:1003F0009A402BEA020207FA03F34FEA9A051A43DE
:1004000046F825204E6840F20C45F202DEF808203E
:1004100054BF22EA080242EA0802C4F20105CEF8FB
:1004200008202A68B30254BF22EA080242EA0802FE
:100430002A60B303DEF8042054BF22EA080242EA2D
:100440000802F303CEF80420DEF800204FF0010389
:1004500054BF22EA080242EA0802CEF800200E68E1
:100460000AF1010A36FA0AF204F1040400F0A0804D
:1004700003FA0AFB16EA0B08F1D04E68664511DC58
:10048000122E55D8DFE806F0340A44485454545428
:100490005454545454545454544C5000D1F80C9067
:1004A00046E000BF4FF6FF72C1F2210296420FDC18
:1004B0000022C1F2110296421AD00022C1F21202A9
:1004C000964215D00022C1F22102964210D02FE0B0
:1004D0000022C1F2220296420AD00022C1F2310269
:1004E000964205D00022C1F23202964220D100BFCE
:1004F0008A684AB1012A14BFC0F814B0C0F810B01D
:100500004FF0080914E000BF4FF0040910E000BFED
:10051000CA6802F108090BE04FF0000908E000BFCB
:10052000CA6802F1040903E0CA6802F10C0900BFBD
:1005300022460646B8F5807F24BF203A0436376845
:100540000F25954027EA050509FA02F22A43326091
:10055000CA79D2067FF583AF41F21803C4F20203D1
:100560001A68AEF57E7642F001021A601A6802F04F
:1005700001020192019A2AF0030256F802B040F6F5
:100580000002C4F20102904210D040F60042C4F2D0
:10059000010290423FF428AF41F20002C4F201028E
:1005A000009F904208BF02271FE700BF00271CE7FB
:1005B00002B0BDE8F08F0000002A08BF0904016105
:1005C0007047000040F21C10C2F200000068704743
:1005D00040F2000040F21C11C2F20000C2F2000121
:1005E00000780A68104408607047000080B542F245
:1005F0000000C4F20200016841F010010160032014
:1006000000F08CF80F2000F005F800F027F800202B
:1006100080BD000070B540F20006C2F2000640F254
:1006200008013278C2F200014FF47A730968B3FB13
:10063000F2F20446B1FBF2F1084600F089FB0F2C00
:100640004FF0010508D838B94FF0FF30214600229D
:10065000002500F037F87460284670BD82B041F282
:100660001800C4F202000168022241F00101016099
:10067000016801F0010101910199416841F0805147
:100680004160406800F08050009000980420C4F25F
:100690000100016862F31A61016002B07047000056
:1006A000002848BF704700F01F01012202FA01F143
:1006B0001C2202EAD0004EF20012CEF2000281505B
:1006C0007047000010B54EF60C5CCEF2000CDCF862
:1006D0000030C3F3022E8EF00704042C28BF04243C
:1006E000BEF103034FF0FF3E0EFA04F438BF0023BF
:1006F000A14399400EFA03F39A43114300F00F020D
:1007000000F160430901043A03F5644362440028A0
:1007100048BF02F10C03197010BD00004EF60C51D9
:10072000CEF200010A684FF6FF031A4060F30A2276
:1007300042F0806040F0FD7008607047002804BF00
:10074000012070472DE9F04381B042F20008C4F265
:1007500002080446D8F800000D4600F00700884261
:100760000CD2D8F8000020F007002843C8F8000099
:10077000D8F8000000F00700A8426CD1206841F2D0
:1007800004098107C4F2020917D5410705D5D9F834
:10079000001041F4E061C9F80010010705D5D9F84F
:1007A000001041F46051C9F80010D9F80010A26897
:1007B00021F0F0011143C9F80010C00742D1D8F868
:1007C000000000F00700A8420CD9D8F8000020F083
:1007D00007002843C8F80000D8F8000000F0070020
:1007E000A84238D12068410707D5D9F80010E2683F
:1007F00021F4E0611143C9F80010000708D5D9F8C9
:100800000000216920F4605040EAC100C9F80000EE
:10081000D9F8002002F00C00082841F20020C0F2B4
:100820007A0051D142F23043C2F38341C0F6000353
:10083000595CD2033CD440F60010C0F23D0048435E
:1008400042E000BF606802280AD001282AD159F886
:10085000041C890308D4012001B0BDE8F08300BF67
:1008600059F8041C8901F6D5D9F8001021F00301CC
:100870000843C9F80000FFF7A5FE064641F2883795
:10088000D9F80000616800F00C00B0EB810F96D041
:10089000FFF798FE801BB842F2D9032001B0BDE8F3
:1008A000F08300BF59F8041C8907D4D5DCE700BFEA
:1008B000D9F8002042F20E43C2F34042C0F60003D2
:1008C0009A5C4843B0FBF2F0D9F8001042F2F632DD
:1008D000C1F30311C0F60002515C40F2080220FA95
:1008E00001F140F20400C2F200000068C2F200020E
:1008F0001160FFF78FFE002001B0BDE8F08300001B
:1009000040F2080041F20401C2F20000C4F2020108
:100910000068096842F20642C1F30221C0F60002F3
:10092000515CC8407047000040F2080041F20401E9
:10093000C2F20000C4F202010068096842F20642F5
:10094000C1F3C221C0F60002515CC84070470000EC
:10095000002804BF012070472DE9F04182B0044611
:10096000007841F20006C007C4F202060CD070689D
:1009700000F00C00042840F081803068800303D52B
:100980006068002800F04E81207880071BD57068D1
:1009900010F00C0F09D0706800F00C00082840F02F
:1009A0008B807068C00300F187803068800703D5B2
:1009B0002069012840F036813068616920F0F80034
:1009C00040EAC10030602078000713D42078400747
:1009D0002CD4E569002D00F02081706800F00C0037
:1009E000082840F0AF80012D40F00C81012002B0BA
:1009F000BDE8F081A069002800F08C800020C4F2DE
:100A000042200121C0F88014FFF7DCFD054600BF3D
:100A1000706A800700F1BA80FFF7D4FD401B0228FE
:100A2000F6D9032002B0BDE8F08100BFF0695FEAAB
:100A3000C00808D4F06940F08050F061F06900F01F
:100A400080500090009847F20007C4F20007386811
:100A5000C0054DD4386840F480703860FFF7B2FDAF
:100A6000054600BF3868C00542D4FFF7ABFD401B08
:100A70006428F7D9032002B0BDE8F081706800F067
:100A80000C00082803D17068C0033FF576AF60689A
:100A9000002800F00981B0F5A02F00F01D81B0F50D
:100AA000803F00F01D81306820F480303060306875
:100AB00020F4802017E100BF2069002840F20000E8
:100AC000C4F2422000F08C8001210160FFF77AFD22
:100AD000054600BF306880073FF56EAFFFF772FD37
:100AE000401B0228F6D9032002B0BDE8F08100BF08
:100AF000E068002800F09A80052800F0B180012805
:100B000000F0B280306A20F001003062306A20F0DC
:100B10000400ACE00020C4F242200021C0F88014A0
:100B2000FFF750FD054600BF706A80077FF54EAFA6
:100B3000FFF748FD401B0228F6D9032002B0BDE8AC
:100B4000F08100BF0027C4F2422700203866FFF77B
:100B500039FD022D05460DD13068800140F1D68067
:100B6000FFF730FD401B02284FF00300F4D902B01C
:100B7000BDE8F081306880014FD5FFF723FD401BB1
:100B800002284FF00300F5D9F1E700BF40F208005A
:100B9000C2F20000006844F6D351C1F26201A0FB2A
:100BA0000101480A019000BF00BF0198411E0028C2
:100BB00001913FF40BAF00BF0198411E0028019145
:100BC0003FF404AF00BF0198411E002801913FF49B
:100BD000FDAE00BF0198411E00280191E4D1F5E669
:100BE00000210160FFF7EEFC054600BF306880077A
:100BF0007FF5E9AEFFF7E6FC401B02284FF003004B
:100C0000F4D9B4E77068216A00F480328A4209D1CD
:100C1000616A00F47010884204D1002002B0BDE87F
:100C2000F08100BF012002B0BDE8F081306A20F001
:100C300001003062306A20F004003062FFF7C2FC2D
:100C4000054641F2883700BF306A800722D5FFF79A
:100C5000B9FC401BB8424FF00300F5D987E700BF4D
:100C6000306A40F004003062306A40F001003062C7
:100C7000FFF7A8FC054641F2883700BF306A8007BD
:100C800008D4FFF79FFC401BB842F7D9032002B0FD
:100C9000BDE8F081B8F1000F3FF59BAEF06920F0A0
:100CA0008050F06195E600BF306820F480303060FD
:100CB000306820F480203060FFF784FC054600BFD8
:100CC000306880037FF560AEFFF77CFC401B642832
:100CD0004FF00300F4D94AE7306840F480203060D8
:100CE000306840F480303060FFF76CFC054600BF90
:100CF000306880033FF548AEFFF764FC401B642872
:100D0000F6D9032002B0BDE8F08100BF206AB0F53B
:100D1000803F05D17168A26821F4003111437160F0
:100D20007168626A21F474111143084370600120F4
:100D30003866FFF747FC0446306880013FF56DAF29
:100D4000FFF740FC001B02284FF00300F4D90EE728
:100D5000411E0020B0EB116F1CBF012070474EF206
:100D60001002CEF2000251604EF62351CEF2000185
:100D7000F0230B70072190601160704770470000EE
:100D80007047000090F83C20012A4FF0020236D054
:100D900010B580F83D200268D2F804E0D2F808C00F
:100DA0000C682EF07003234340F2FF74C4F2000479
:100DB000A24253600ADCB2F1804F13D040F20043EC
:100DC000C4F200039A420DD011E000BF42F6004386
:100DD000C4F201039A4205D040F60003C4F20003B6
:100DE0009A4204D149682CF0800319439160012193
:100DF000002280F83D1080F83C20BDE810401046ED
:100E000070470000002804BF0120704710B5044659
:100E100090F83D0028B9002084F83C00204600F0FE
:100E20006FF8022084F83D00206840F2FF730268EA
:100E3000C4F2000342F6004C9842C4F2010C15DCE7
:100E4000B0F1804F1AD040F20041C4F20001884254
:100E500014D0984218DCB0F1804F1DD040F2004110
:100E6000C4F20001884217D01AE000BF604505D0E7
:100E700040F60001C4F200018842EAD1A16822F0E4
:100E800070020A439842E6DD604505D040F6000155
:100E9000C4F20001884203D1216922F440720A435E
:100EA000A36922F08001D4F804E0E26819436045A8
:100EB0000160C262C0F828E002D16169CCF830104C
:100EC000012141610269D20703D0026922F00102C7
:100ED0000261002084F8461084F83E1084F83F1028
:100EE00084F8401084F8411084F8421084F84310CC
:100EF00084F8441084F8451084F83D1010BD0000BB
:100F0000006840F20041C4F20001884218BF7047F7
:100F100080B582B041F21C00C4F2020001680022D8
:100F200041F0020101600068002100F00200019020
:100F300001981D20FFF7C6FB1D2002B0BDE88040D0
:100F4000FFF7AEBB90F83C20012A4FF0020200F000
:100F5000C58080B580F83D20D0F800C04FF677728C
:100F6000DCF8083023EA0202CCF808200B684F2B8B
:100F700028DC1F2B44DD202B45D0302B43D0402BC9
:100F800040F0AE80D1F804E0C968DCF82030DCF82D
:100F9000202022F00102CCF82020DCF8182022F0DA
:100FA000F00242EA011123F00A0242EA0E02CCF8F2
:100FB0001810CCF82020DCF8081041F0470121F08F
:100FC000300180E06F2B27DDB3F5005F48D0B3F52B
:100FD000805F7AD0702B40F08380D1E901E3C9684B
:100FE000DCF8082043EA0E0322F47F4243EA0121A1
:100FF0001143CCF80810DCF8081041F0770162E0EA
:101000000BB1102B6CD1DCF8081021F070011943E2
:1010100041F0070157E000BF502B35D0602B5FD166
:10102000D1F804E0C968DCF82030DCF8202022F098
:101030001002CCF82020DCF8182022F4704242EA9A
:10104000013123F0A00242EA0E12CCF81810CCF8BD
:101050002020DCF8081041F0670121F0100132E097
:10106000D1E901E3C968DCF8082043EA0E0322F461
:101070007F4243EA01211143CCF80810DCF8081044
:1010800041F480411FE000BFD1F804E0C968DCF8FA
:101090002030DCF8202022F00102CCF82020DCF8FF
:1010A000182022F0F00242EA011123F00A0242EA7B
:1010B0000E02CCF81810CCF82020DCF8081041F013
:1010C000570121F02001CCF808100022012180F8FE
:1010D0003D10002180F83C10BDE88040104670476C
:1010E0000122F3E77047000070B504460068C56848
:1010F0000669B10716D515F0020113D06FF0020191
:101100000161012121778069800703D02046FFF724
:10111000E9FF05E0204600F08FF8204600F00EFAC7
:1011200000202077700719D515F0040016D020682C
:101130006FF00401016102212177806910F4407F82
:1011400004D02046FFF7CEFF06E000BF204600F0A7
:1011500073F8204600F0F2F900202077300717D509
:1011600015F0080014D020686FF008010161042117
:101170002177C069800703D02046FFF7B3FF05E061
:10118000204600F059F8204600F0D8F900202077DA
:10119000F00619D515F0100016D020686FF0100178
:1011A000016108212177C06910F4407F04D02046F6
:1011B000FFF798FF06E000BF204600F03DF820460C
:1011C00000F0BCF900202077F00718BF15F00100EF
:1011D00002D1300609D412E020686FF001010161EC
:1011E000204600F0B9FA300609D515F0800006D087
:1011F00020686FF0800101612046FFF7BFFD700697
:1012000009D515F0400006D020686FF0400101615B
:10121000204600F0A3FAB00658BF70BD15F02000BC
:1012200008D021686FF0200220460A61BDE87040B6
:10123000FFF7A6BD70BD00007047000090F83C307D
:10124000012B04BF022070474FEAB202032A3DD8A7
:101250002DE9F043DFE802F002407CB6036842F675
:1012600000461D6A1A6AC4F2010622F001021A62DF
:101270001A465C6852F818CFB3428E68D1F800E085
:1012800025F0020545EA06050CD1CE68D1E90578BE
:1012900024F4407425F00C0526F004063C43354345
:1012A00044EA08042CF0730747EA0E075C609F616C
:1012B0004F6809695F631D629F6947F008079F6176
:1012C0009F6927F004079F61ACE000BF0121002265
:1012D00080F83C2008467047036842F600461D6AC5
:1012E0001A6AC4F2010622F010021A621A46D3F8F2
:1012F00004C052F8184FB3428E68D1F800E025F0D0
:10130000200545EA06150FD1CE68D1E905986FF0A2
:10131000400725F0C00507EA061635432CF4406760
:1013200048EA090647EA860C24F4E64444EA0E2714
:10133000C3F804C09F614F6809699F631D629F697C
:1013400047F400679F619F6927F480679F6168E0A9
:10135000036842F600461D6A1A6AC4F2010622F4C6
:1013600080721A621A46D3F804C052F81CEFB342D6
:101370008E680C6825F4007545EA06250FD1CE6805
:10138000D1E90598360240F2FF4725F44065BE4397
:1013900035432CF4405748EA090647EA061C2EF06C
:1013A00073072743C3F804C0DF614F680969DF632F
:1013B0001D62DF6947F00807DF61DF6927F0040776
:1013C000DF612FE0036842F60047D3F820C01A6AB5
:1013D000C4F2010722F480521A621A465C6852F87D
:1013E0001C5FD1F800E08E68BB4204D14F6924F441
:1013F000804444EA87142CF4005747EA063725F462
:10140000E64646EA0E265C60DE614E6809691E64A7
:101410001F62DF6947F40067DF61DF6927F48067D7
:10142000DF6109021368194311600021BDE8F04330
:10143000002280F83C20084670470000002804BFC6
:101440000120704710B5044690F83D0028B90020EF
:1014500084F83C00204600F06FF8022084F83D003C
:10146000206840F2FF730268C4F2000342F6004CA9
:101470009842C4F2010C15DCB0F1804F1AD040F252
:101480000041C4F20001884214D0984218DCB0F147
:10149000804F1DD040F20041C4F20001884217D0B5
:1014A0001AE000BF604505D040F60001C4F200011B
:1014B0008842EAD1A16822F070020A439842E6DD30
:1014C000604505D040F60001C4F20001884203D116
:1014D000216922F440720A43A36922F08001D4F802
:1014E00004E0E268194360450160C262C0F828E088
:1014F00002D16169CCF83010012141610269D20743
:1015000003D0026922F001020261002084F8461033
:1015100084F83E1084F83F1084F8401084F841109D
:1015200084F8421084F8431084F8441084F845107D
:1015300084F83D1010BD000070470000016840F2C3
:101540000042C4F20002914200D07047007F01289F
:1015500018BF7047B0B540F27004C2F20004606971
:1015600010B1606901386061606918B1BDE8B040D0
:10157000704700BF40F28C00C2F20000002100253D
:1015800000F08EF86570BDE8B040704741B10829A1
:1015900016D0042914BF00F1410200F13F0211E00E
:1015A00090F83E20012A1CBF01207047022280F8DB
:1015B0003E204FEAB103032B4FF0010216D81FE083
:1015C00000F140021278012A1CBF0120704702225C
:1015D00008290DD0042914BF80F8412080F83F204D
:1015E0004FEAB103032B4FF0010209D910467047AF
:1015F00080F840204FEAB103032B4FF00102F5D8E9
:1016000042F2104C0068C0F6000C5CF823C0C368BE
:1016100001F01F0143EA0C03C360036A8A4023EA16
:1016200002010162036A42F64441C4F201011A4315
:10163000A1F144039842026210D040F2FF71C4F25B
:101640000001884214DCB0F1804F1DD040F200410F
:10165000C4F20001884217D01BE000BF0A6842F4C0
:1016600000420A6040F2FF71C4F200018842EADDE4
:1016700042F60041C4F20101884205D040F6000163
:10168000C4F20001884204D1816801F007010629F3
:1016900003D0016841F0010101600022104670474B
:1016A00010B54FEAB102032A4FF0010E51D842F2B1
:1016B000204C0368C0F6000C5CF82220DC6842F67F
:1016C000444C2240DA6001F01F021C6A0EFA02F25A
:1016D00024EA0202C4F2010C1A621A6AACF1440450
:1016E000A3421A6210D15CF8242C41F21114224258
:1016F0000AD11A6A40F24444224205D1DCF80020A3
:1017000022F40042CCF800201A6A41F2111422425D
:1017100008D11A6A40F24444224203D11A6822F0E6
:1017200001021A6008290BD004290DD000294FF0BE
:10173000010114BF80F8411080F83E1007E000BF9F
:10174000012180F8401002E0012180F83F104FF0A5
:10175000000E704610BD000070470000704700008A
:1017600070470000006844F20041C4F20001884262
:1017700018BF704740F27003C2F2000340F2D40079
:101780004FF0000C991CC2F20000012283F803C044
:1017900000F06EBBB0B582B0044600680168C36853
:1017A000426901F02F05202D03F0200506D12DB14F
:1017B000204602B0BDE8B04000F0D4BC5FEA017C36
:1017C0001EBF02F0010E03F4907212EB0E0243D121
:1017D000226BCD0618D5012A16D113F0100213D0B2
:1017E00000210191016801914168019101994069CD
:1017F00040063BD4A08DE18DE28D002A18BF8842BF
:1018000040F0F28102B0B0BD0A0640F1E78013F06B
:10181000800200F0E38094F841102129F2D1A16800
:10182000B1F5805F03D12169002900F06382216A4C
:101830004A1C226209784160E18C01390A04E18482
:10184000E0D1C16821F08001C160C16841F0400170
:10185000C16002B0B0BD00BFCA0718BF13F48072E8
:1018600040F0D0804A0700F1D380D8E0E06B0168F7
:1018700049688AB2002AC5D0A38D9A42C2D2E185B6
:101880008069202800F09E80206850E8030F2168BE
:1018900020F4807041E80302DAB1206850E8030FB9
:1018A000216820F4807041E8030292B1206850E87A
:1018B000030F216820F4807041E803024AB12068D8
:1018C00050E8030F216820F4807041E80302002AE9
:1018D000DAD1206850E8050F216820F0010041E8C6
:1018E0000502C2B3206850E8050F216820F001000E
:1018F00041E805027AB3206850E8050F216820F01E
:10190000010041E8050232B3206850E8050F216864
:1019100020F0010041E80502002ADAD11BE000BFF7
:10192000206850E8050F216820F0400041E80502DA
:10193000DAB1206850E8050F216820F0400041E846
:10194000050292B1206850E8050F216820F04000A0
:1019500041E805024AB1206850E8050F216820F0EF
:10196000400041E80502002ADAD1202084F8420034
:1019700000202063206850E8030F216820F0100049
:1019800041E80302DAB1206850E8030F216820F033
:10199000100041E8030292B1206850E8030F21686B
:1019A00020F0100041E803024AB1206850E8030F1C
:1019B000216820F0100041E80302002ADAD1E06B30
:1019C000FEF760FC02206063A08DE18D401A81B2B9
:1019D000204602B0BDE8B040FFF7C2BE49067FF521
:1019E00011AF13F040013FF40DAFC16821F0400189
:1019F000C1602021204684F8411002B0BDE8B0400B
:101A000000F0C2BA626C42F0010262644A0706D575
:101A1000BEF1000F03D0626C42F0020262648A07DA
:101A200006D5BEF1000F03D0626C42F0040262647E
:101A3000BCF1000F06D55EEA050203D0626C42F0ED
:101A400008026264626C002A3FF4DCAE890604D5A9
:101A50001DB1204600F086FB20684069616C00F0F3
:101A6000400001F00801401800F0B680206850E8FE
:101A7000030F216820F4907041E80302BAB3206894
:101A800050E8030F216820F4907041E8030272B31C
:101A9000206850E8030F216820F4907041E80302A9
:101AA0002AB3206850E8030F216820F4907041E8C1
:101AB0000302002ADAD11AE0206850E8050F2168F5
:101AC00020F0010041E80502DAB1206850E8050F76
:101AD000216820F0010041E8050292B1206850E839
:101AE000050F216820F0010041E805024AB1206895
:101AF00050E8050F216820F0010041E80502002AA6
:101B0000DAD1206B012824D1206850E8030F216826
:101B100020F0100041E80302DAB1206850E8030F1A
:101B2000216820F0100041E8030292B1206850E8DB
:101B3000030F216820F0100041E803024AB1206839
:101B400050E8030F216820F0100041E80302002A4A
:101B5000DAD1202084F84200002020632068406908
:101B6000400640F1C180206850E8050F216820F050
:101B7000400041E80502DAB1206850E8050F21680D
:101B800020F0400041E8050292B1206850E8050FBE
:101B9000216820F0400041E805024AB1206850E881
:101BA000050F216820F0400041E80502002ADAD143
:101BB000E06B002800F0988042F25911C0F6000155
:101BC0004163FEF783FB00283FF41CAEE06B416BE2
:101BD00002B0BDE8B04008472046FFF7C3FD002033
:101BE000606402B0B0BD00BF401A00BF216851E878
:101BF000031F226821F4907142E80313BBB32168EC
:101C000051E8031F226821F4907142E8031373B373
:101C1000216851E8031F226821F4907142E8031300
:101C20002BB3216851E8031F226821F4907142E828
:101C30000313002BDAD11AE0216851E8051F22684E
:101C400021F0010142E80513DBB1216851E8051FCD
:101C5000226821F0010142E8051393B1216851E89F
:101C6000051F226821F0010142E805134BB12168EC
:101C700051E8051F226821F0010142E80513002BFD
:101C8000DAD1202184F8421000212163216851E833
:101C9000031F226821F0100142E80313DBB1216821
:101CA00051E8031F226821F0100142E8031393B1A9
:101CB000216851E8031F226821F0100142E8031354
:101CC0004BB1216851E8031F226821F0100142E85E
:101CD0000313002BDAD1022281B22046626302B0E4
:101CE000BDE8B040FFF73CBD204602B0BDE8B040C3
:101CF000FFF738BD216A31F8022B6FF35F22426093
:101D0000216299E5002804BF0120704710B5044600
:101D100090F8410028B9002084F84000204600F0E7
:101D200063F8242084F841002068D4E90212C368D3
:101D300023F40053C360036923F440531A43026140
:101D4000D4E904231143C268194341F20C639A4356
:101D50001143C1604169A26921F44071114343F606
:101D60000002C4F201029042416103D0FEF7C8FDB7
:101D700002E000BFFEF7D8FDD4E900231921484353
:101D80009900B0FBF1F048F21F5CC5F2EB1CA0FB20
:101D90000C314FF69C734909C0F6FF7301FB030039
:101DA000322303EB0010A0FB0C03F02000EA5310D9
:101DB00000EB0110C3F34311084490601069202127
:101DC00020F490401061506920F02A005061D068E2
:101DD00040F40050D0600020606484F8411084F822
:101DE0004210606310BD000070B586B040F600047C
:101DF000C4F201040068A4F5444100268842049618
:101E000002D006B070BD00BF41F21800C4F202005B
:101E1000416802AD41F400314160416801F4003194
:101E200001910199016841F00401016000682946AF
:101E300000F0040001900198042002900220039019
:101E4000032005902046FEF7AFFA0820CDE90206F0
:101E5000204629460496FEF7A7FA262000210022F4
:101E6000FEF730FC2620FEF71BFC06B070BD00001C
:101E700090F84230202B07D100294FF0010318BF02
:101E8000002A05D11846704702231846704700BF44
:101E900000230363816222218285C285436480F826
:101EA00042100169006819B1C16841F48071C160D4
:101EB000416941F001014161C16841F02001C16007
:101EC00018467047006844F20041C4F2000188429D
:101ED00018BF704740F27000C2F20000817882683B
:101EE00001328260C278052A0CD8DFE802F00307CD
:101EF0000D171B1FAA293FD101223CE0552939D0DB
:101F0000AA2939D0002236E0A1F1AA02B2FA82F25F
:101F10005209022908BF03222DE000BF41710422AB
:101F200029E000BF8171052225E000BF4279837955
:101F30001A440132D2B28A4214D18279012A11D1D3
:101F400042797AB14279042A0CD8C2680132C2605F
:101F5000C27952B942795A235A4382610122C2712D
:101F6000027102E0026901320261AA39B1FA81F11B
:101F70004A0900E00222C270811C40F2D400C2F281
:101F800000000122FFF774BF70470000FEE7000069
:101F9000F0B585B041F21800C4F20200016840F6C5
:101FA000004441F0040101600168C4F2010401F041
:101FB0000401019101990168002241F008010160CA
:101FC0000068012100F008000190019820460125D9
:101FD0000026FEF7F1FA2046022101220227FEF731
:101FE000EBFA032001A9E1C101A92046FEF7DCF9C3
:101FF00005B0F0BDB0B594B040F28C0040F20045A1
:102000000021C2F2000040F2CF73C4F200050E912D
:10201000CDE90C110991CDE90711CDE90511CDE903
:102020000311CDE901113F22C0E9021301618021B2
:10203000C0E900528161FEF7E5FE002818BFFEF7F7
:102040001BF94FF480500B9040F28C00C2F200005C
:102050000BA9FEF777FF002818BFFEF70DF940F235
:102060008C00C2F20000FFF7E9F9002818BFFEF764
:1020700003F940F28C000024C2F2000008A9CDE967
:102080000844FEF77FFE002818BFFEF7F5F8602031
:1020900001904FF47A70CDE90204059440F28C046B
:1020A000C2F2000401A920460022FFF7C7F8002869
:1020B00018BFFEF7E1F820680021A842129101D074
:1020C00014B0B0BD41F21800C4F20200016841F042
:1020D00004010160006810A900F004000F900F983F
:1020E0004020109002201190139005F58230FEF7E9
:1020F0005BF914B0B0BD000080B540F2D40044F2EA
:102100000041C2F20000C4F2000100234FF00C0CA9
:102110004FF4165280E80E00C0E90333C0E905C34E
:10212000C361FFF7EFFD002808BF80BDBDE8804018
:10213000FEF7A2B8FEE70000FEE7000070470000CF
:1021400070470000FEF744BA7047000040F28C0070
:10215000C2F20000FEF7C8BF406A0021C185C184F9
:10216000FFF700BB81B090F84210222921D183688B
:102170000246B3F5805F09D152F8281F52F8183C87
:10218000002B63D003685B680AE000BF52F8281F89
:1021900013B90369002BF5D003685B6803F07F0374
:1021A0000B70116801311160C18D01390A04C185BC
:1021B00002D001B0704700BF0168CA6822F0200257
:1021C000CA60CA6822F48072CA604A6922F00102B9
:1021D0004A61202180F8421000214163026B012AEC
:1021E0003CD10163016851E8031F026821F010012E
:1021F00042E80313DBB1016851E8031F026821F0D4
:10220000100142E8031393B1016851E8031F02680B
:1022100021F0100142E803134BB1016851E8031F9C
:10222000026821F0100142E80313002BDAD10168A3
:102230000A68D20606D5002200920A680092496810
:1022400000910099818D01B0FFF78ABA0268526847
:102250006FF35F2221F8022B8162A5E701B0FFF73F
:1022600031BE000040F2D400C2F20000FFF792BA83
:10227000FEE7000090B0FEF7B9F900240120CDE997
:102280000B44CDE909440A9010200B904FF46010E4
:1022900002250F9006A8CDE907440695CDE90D5417
:1022A000FEF756FB20B1EFF3108072B6FEE700BFD9
:1022B0000F20CDE901054FF48060CDE9040401A8A9
:1022C00002210394FEF73AFA20B1EFF3108072B6C0
:1022D000FEE700BF40F60044C4F20104FFF758FED9
:1022E000FFF788FEFFF708FF40F28C05C2F20005F9
:1022F000284600214FF00008FFF7D2F920460221BE
:1023000001224FF0010AFEF757F940F27006C2F2BF
:10231000000640F2D400B11CC2F200000122FFF717
:10232000A7FD28B1EFF3108072B600BFFEE700BF33
:102330004FF47A70FEF724F86FF0030B0BE000BF48
:1023400028460021FFF7ACF9204602210122FEF7C2
:1023500033F986F800A030790028FCD0D6F8189020
:1023600020460221002286F80480FEF725F9642029
:10237000FEF706F8B9F1000FE2D04FF4486009FB10
:1023800000F0B43046F61742C108C1F2C162A1FBA9
:1023900002129708B0F5B47F20464FF001014FF0CC
:1023A000000238BF0127FEF707F90120FDF7E8FF1B
:1023B000776186F801A028680021C0F82480C0F861
:1023C00010B02846FFF7E2F870B900BF7078002817
:1023D000B6D070780028B3D070780028B0D070786C
:1023E0000028F3D1ACE700BF00207070EFF310803D
:1023F00072B600BFFEE7000000000000000001020E
:10240000030406070809000000000102030401029A
:10241000020000000400000008000000100000009E
:10242000FDFFFFFFFBFFFFFFF7FFFFFFEFFFFFFFDA
:1024300002030405060708090A0B0C0D0E0F101005
:102440006024000800000020100000005001000877
:102450007024000810000020100700007001000820
:10246000010000001000000000127A0000000000CF
:04000005080000ED02
:00000001FF
